{
  "contractName": "ClientReviewContract",
  "abi": [
    {
      "constant": true,
      "inputs": [
        {
          "name": "",
          "type": "uint256"
        }
      ],
      "name": "consultantAccounts",
      "outputs": [
        {
          "name": "",
          "type": "address"
        }
      ],
      "payable": false,
      "stateMutability": "view",
      "type": "function"
    },
    {
      "constant": true,
      "inputs": [
        {
          "name": "",
          "type": "uint256"
        }
      ],
      "name": "reviewsArray",
      "outputs": [
        {
          "name": "rating",
          "type": "uint256"
        },
        {
          "name": "comment",
          "type": "string"
        },
        {
          "name": "consultantAccount",
          "type": "address"
        },
        {
          "name": "clientAccount",
          "type": "address"
        }
      ],
      "payable": false,
      "stateMutability": "view",
      "type": "function"
    },
    {
      "inputs": [],
      "payable": false,
      "stateMutability": "nonpayable",
      "type": "constructor"
    },
    {
      "constant": false,
      "inputs": [
        {
          "name": "_rating",
          "type": "uint256"
        },
        {
          "name": "_comment",
          "type": "string"
        },
        {
          "name": "_consultantAccount",
          "type": "address"
        },
        {
          "name": "_clientAccount",
          "type": "address"
        }
      ],
      "name": "setReview",
      "outputs": [],
      "payable": false,
      "stateMutability": "nonpayable",
      "type": "function"
    },
    {
      "constant": true,
      "inputs": [],
      "name": "getReview",
      "outputs": [
        {
          "name": "",
          "type": "uint256"
        },
        {
          "name": "",
          "type": "string"
        },
        {
          "name": "",
          "type": "address"
        },
        {
          "name": "",
          "type": "address"
        }
      ],
      "payable": false,
      "stateMutability": "view",
      "type": "function"
    },
    {
      "constant": true,
      "inputs": [],
      "name": "totalReviews",
      "outputs": [
        {
          "name": "",
          "type": "uint256"
        }
      ],
      "payable": false,
      "stateMutability": "view",
      "type": "function"
    },
    {
      "constant": true,
      "inputs": [],
      "name": "getConsultantAccounts",
      "outputs": [
        {
          "name": "",
          "type": "address[]"
        }
      ],
      "payable": false,
      "stateMutability": "view",
      "type": "function"
    }
  ],
  "bytecode": "0x608060405234801561001057600080fd5b50610b8c806100206000396000f300608060405260043610610078576000357c0100000000000000000000000000000000000000000000000000000000900463ffffffff16806340c7920a1461007d578063952fa1ef146100e9578063a73a4aaf14610156578063e236789014610253578063f0d477991461027e578063fe49cd4214610391575b600080fd5b34801561008957600080fd5b50610092610444565b6040518080602001828103825283818151815260200191508051906020019060200280838360005b838110156100d55780820151818401526020810190506100ba565b505050509050019250505060405180910390f35b3480156100f557600080fd5b50610114600480360381019080803590602001909291905050506104d2565b604051808273ffffffffffffffffffffffffffffffffffffffff1673ffffffffffffffffffffffffffffffffffffffff16815260200191505060405180910390f35b34801561016257600080fd5b5061016b610510565b60405180858152602001806020018473ffffffffffffffffffffffffffffffffffffffff1673ffffffffffffffffffffffffffffffffffffffff1681526020018373ffffffffffffffffffffffffffffffffffffffff1673ffffffffffffffffffffffffffffffffffffffff168152602001828103825285818151815260200191508051906020019080838360005b838110156102155780820151818401526020810190506101fa565b50505050905090810190601f1680156102425780820380516001836020036101000a031916815260200191505b509550505050505060405180910390f35b34801561025f57600080fd5b50610268610688565b6040518082815260200191505060405180910390f35b34801561028a57600080fd5b506102a960048036038101908080359060200190929190505050610695565b60405180858152602001806020018473ffffffffffffffffffffffffffffffffffffffff1673ffffffffffffffffffffffffffffffffffffffff1681526020018373ffffffffffffffffffffffffffffffffffffffff1673ffffffffffffffffffffffffffffffffffffffff168152602001828103825285818151815260200191508051906020019080838360005b83811015610353578082015181840152602081019050610338565b50505050905090810190601f1680156103805780820380516001836020036101000a031916815260200191505b509550505050505060405180910390f35b34801561039d57600080fd5b5061044260048036038101908080359060200190929190803590602001908201803590602001908080601f0160208091040260200160405190810160405280939291908181526020018383808284378201915050505050509192919290803573ffffffffffffffffffffffffffffffffffffffff169060200190929190803573ffffffffffffffffffffffffffffffffffffffff1690602001909291905050506107ac565b005b606060018054806020026020016040519081016040528092919081815260200182805480156104c857602002820191906000526020600020905b8160009054906101000a900473ffffffffffffffffffffffffffffffffffffffff1673ffffffffffffffffffffffffffffffffffffffff168152602001906001019080831161047e575b5050505050905090565b6001818154811015156104e157fe5b906000526020600020016000915054906101000a900473ffffffffffffffffffffffffffffffffffffffff1681565b600060606000806002600081548110151561052757fe5b9060005260206000209060040201600001546002600081548110151561054957fe5b90600052602060002090600402016001016002600081548110151561056a57fe5b906000526020600020906004020160030160009054906101000a900473ffffffffffffffffffffffffffffffffffffffff16600260008154811015156105ac57fe5b906000526020600020906004020160020160009054906101000a900473ffffffffffffffffffffffffffffffffffffffff16828054600181600116156101000203166002900480601f0160208091040260200160405190810160405280929190818152602001828054600181600116156101000203166002900480156106735780601f1061064857610100808354040283529160200191610673565b820191906000526020600020905b81548152906001019060200180831161065657829003601f168201915b50505050509250935093509350935090919293565b6000600280549050905090565b6002818154811015156106a457fe5b9060005260206000209060040201600091509050806000015490806001018054600181600116156101000203166002900480601f0160208091040260200160405190810160405280929190818152602001828054600181600116156101000203166002900480156107565780601f1061072b57610100808354040283529160200191610756565b820191906000526020600020905b81548152906001019060200180831161073957829003601f168201915b5050505050908060020160009054906101000a900473ffffffffffffffffffffffffffffffffffffffff16908060030160009054906101000a900473ffffffffffffffffffffffffffffffffffffffff16905084565b60008060008473ffffffffffffffffffffffffffffffffffffffff1673ffffffffffffffffffffffffffffffffffffffff16815260200190815260200160002090508481600001819055508381600101908051906020019061080f929190610a34565b50818160030160006101000a81548173ffffffffffffffffffffffffffffffffffffffff021916908373ffffffffffffffffffffffffffffffffffffffff160217905550828160020160006101000a81548173ffffffffffffffffffffffffffffffffffffffff021916908373ffffffffffffffffffffffffffffffffffffffff1602179055506002819080600181540180825580915050906001820390600052602060002090600402016000909192909190915060008201548160000155600182018160010190805460018160011615610100020316600290046108f5929190610ab4565b506002820160009054906101000a900473ffffffffffffffffffffffffffffffffffffffff168160020160006101000a81548173ffffffffffffffffffffffffffffffffffffffff021916908373ffffffffffffffffffffffffffffffffffffffff1602179055506003820160009054906101000a900473ffffffffffffffffffffffffffffffffffffffff168160030160006101000a81548173ffffffffffffffffffffffffffffffffffffffff021916908373ffffffffffffffffffffffffffffffffffffffff16021790555050505060018390806001815401808255809150509060018203906000526020600020016000909192909190916101000a81548173ffffffffffffffffffffffffffffffffffffffff021916908373ffffffffffffffffffffffffffffffffffffffff160217905550505050505050565b828054600181600116156101000203166002900490600052602060002090601f016020900481019282601f10610a7557805160ff1916838001178555610aa3565b82800160010185558215610aa3579182015b82811115610aa2578251825591602001919060010190610a87565b5b509050610ab09190610b3b565b5090565b828054600181600116156101000203166002900490600052602060002090601f016020900481019282601f10610aed5780548555610b2a565b82800160010185558215610b2a57600052602060002091601f016020900482015b82811115610b29578254825591600101919060010190610b0e565b5b509050610b379190610b3b565b5090565b610b5d91905b80821115610b59576000816000905550600101610b41565b5090565b905600a165627a7a723058205ee1a3aa53236616baee193093a3bb54707d4fb5943af03712eb3699df114b310029",
  "source": "pragma solidity ^0.4.23;\n\n\ncontract ClientReviewContract{\n\t\n    struct Review{\n        uint rating;\n        string comment;\n        address consultantAccount;\n        address clientAccount;\n\n    }\n\n    mapping (address => Review) reviews;\n    address[] public consultantAccounts;\n    Review[] public reviewsArray;\n\n    constructor(){\n\t// Basic constructor for the contract\n    }\n\n    function setReview(uint _rating, string _comment, address _consultantAccount, address _clientAccount) public {\n\n        Review storage review = reviews[_consultantAccount];\n\n        review.rating = _rating;\n        review.comment = _comment;\n        review.clientAccount = _clientAccount;\n        review.consultantAccount = _consultantAccount;\n\n        reviewsArray.push(review);\n        consultantAccounts.push(_consultantAccount);\n\n    }\n\n    // Need to have multiple reviews retrivals \n    // 1) client's review\n    // 2) client with specific consultant review \n    // 3) All reviews\n\n    function getReview() public view returns(uint, string, address, address){\n        \n        return(reviewsArray[0].rating, reviewsArray[0].comment, reviewsArray[0].clientAccount, reviewsArray[0].consultantAccount);\n    }\n\n    function totalReviews() public view returns (uint){\n\n        return reviewsArray.length;\n    }\n\n    function getConsultantAccounts() public view returns (address[]){\n\n        return consultantAccounts;\n\n    }\n}",
  "sourcePath": "/Users/usman/Documents/blockchain/review/contracts/ClientReviewContract.sol",
  "compiler": {
    "name": "solc",
    "version": "0.4.24+commit.e67f0147.Emscripten.clang"
  },
  "schemaVersion": "2.0.1",
  "updatedAt": "2018-11-29T12:28:20.066Z"
}