{
  "contractName": "ClientContract",
  "abi": [
    {
      "constant": true,
      "inputs": [
        {
          "name": "",
          "type": "uint256"
        }
      ],
      "name": "clientAccounts",
      "outputs": [
        {
          "name": "",
          "type": "address"
        }
      ],
      "payable": false,
      "stateMutability": "view",
      "type": "function"
    },
    {
      "constant": true,
      "inputs": [],
      "name": "getOwner",
      "outputs": [
        {
          "name": "",
          "type": "address"
        }
      ],
      "payable": false,
      "stateMutability": "view",
      "type": "function"
    },
    {
      "inputs": [],
      "payable": false,
      "stateMutability": "nonpayable",
      "type": "constructor"
    },
    {
      "constant": true,
      "inputs": [
        {
          "name": "_address",
          "type": "address"
        }
      ],
      "name": "clientExist",
      "outputs": [
        {
          "name": "",
          "type": "bool"
        }
      ],
      "payable": false,
      "stateMutability": "view",
      "type": "function"
    },
    {
      "constant": false,
      "inputs": [
        {
          "name": "_address",
          "type": "address"
        },
        {
          "name": "_firstName",
          "type": "string"
        },
        {
          "name": "_lastName",
          "type": "string"
        },
        {
          "name": "_company",
          "type": "string"
        }
      ],
      "name": "setClient",
      "outputs": [],
      "payable": false,
      "stateMutability": "nonpayable",
      "type": "function"
    },
    {
      "constant": true,
      "inputs": [],
      "name": "getClients",
      "outputs": [
        {
          "name": "",
          "type": "address[]"
        }
      ],
      "payable": false,
      "stateMutability": "view",
      "type": "function"
    },
    {
      "constant": true,
      "inputs": [
        {
          "name": "_address",
          "type": "address"
        }
      ],
      "name": "getClient",
      "outputs": [
        {
          "name": "",
          "type": "string"
        },
        {
          "name": "",
          "type": "string"
        },
        {
          "name": "",
          "type": "string"
        }
      ],
      "payable": false,
      "stateMutability": "view",
      "type": "function"
    },
    {
      "constant": true,
      "inputs": [],
      "name": "countClients",
      "outputs": [
        {
          "name": "",
          "type": "uint256"
        }
      ],
      "payable": false,
      "stateMutability": "view",
      "type": "function"
    },
    {
      "constant": false,
      "inputs": [
        {
          "name": "_contractAddr",
          "type": "address"
        },
        {
          "name": "_number",
          "type": "uint256"
        }
      ],
      "name": "setTestNumberOnReview",
      "outputs": [
        {
          "name": "",
          "type": "uint256"
        }
      ],
      "payable": false,
      "stateMutability": "nonpayable",
      "type": "function"
    },
    {
      "constant": true,
      "inputs": [
        {
          "name": "_contractAddr",
          "type": "address"
        }
      ],
      "name": "getTestNumberOnReview",
      "outputs": [
        {
          "name": "",
          "type": "uint256"
        }
      ],
      "payable": false,
      "stateMutability": "view",
      "type": "function"
    },
    {
      "constant": false,
      "inputs": [
        {
          "name": "_contractAddr",
          "type": "address"
        },
        {
          "name": "_rating",
          "type": "uint256"
        },
        {
          "name": "_comment",
          "type": "string"
        },
        {
          "name": "_consultantAccount",
          "type": "address"
        }
      ],
      "name": "setConsultantReview",
      "outputs": [],
      "payable": false,
      "stateMutability": "nonpayable",
      "type": "function"
    },
    {
      "constant": true,
      "inputs": [
        {
          "name": "_contractAddr",
          "type": "address"
        }
      ],
      "name": "getConsultantReview",
      "outputs": [
        {
          "name": "",
          "type": "uint256"
        },
        {
          "name": "",
          "type": "string"
        },
        {
          "name": "",
          "type": "address"
        },
        {
          "name": "",
          "type": "address"
        }
      ],
      "payable": false,
      "stateMutability": "view",
      "type": "function"
    }
  ],
  "bytecode": "0x608060405234801561001057600080fd5b50336000806101000a81548173ffffffffffffffffffffffffffffffffffffffff021916908373ffffffffffffffffffffffffffffffffffffffff160217905550611270806100606000396000f3006080604052600436106100af576000357c0100000000000000000000000000000000000000000000000000000000900463ffffffff1680631c1b6e87146100b45780633b0aaac614610121578063418cd1391461018257806368e0164b146101dd5780636db80995146102905780638463bcf5146102fc578063893d20e8146103275780639bd00f2b1461037e578063a0e32870146104a7578063a352156a1461063b578063dc634d8d14610692575b600080fd5b3480156100c057600080fd5b506100df600480360381019080803590602001909291905050506107a7565b604051808273ffffffffffffffffffffffffffffffffffffffff1673ffffffffffffffffffffffffffffffffffffffff16815260200191505060405180910390f35b34801561012d57600080fd5b5061016c600480360381019080803573ffffffffffffffffffffffffffffffffffffffff169060200190929190803590602001909291905050506107e5565b6040518082815260200191505060405180910390f35b34801561018e57600080fd5b506101c3600480360381019080803573ffffffffffffffffffffffffffffffffffffffff16906020019092919050505061091a565b604051808215151515815260200191505060405180910390f35b3480156101e957600080fd5b5061028e600480360381019080803573ffffffffffffffffffffffffffffffffffffffff16906020019092919080359060200190929190803590602001908201803590602001908080601f0160208091040260200160405190810160405280939291908181526020018383808284378201915050505050509192919290803573ffffffffffffffffffffffffffffffffffffffff1690602001909291905050506109bd565b005b34801561029c57600080fd5b506102a5610af1565b6040518080602001828103825283818151815260200191508051906020019060200280838360005b838110156102e85780820151818401526020810190506102cd565b505050509050019250505060405180910390f35b34801561030857600080fd5b50610311610b7f565b6040518082815260200191505060405180910390f35b34801561033357600080fd5b5061033c610be7565b604051808273ffffffffffffffffffffffffffffffffffffffff1673ffffffffffffffffffffffffffffffffffffffff16815260200191505060405180910390f35b34801561038a57600080fd5b506103bf600480360381019080803573ffffffffffffffffffffffffffffffffffffffff169060200190929190505050610c10565b60405180858152602001806020018473ffffffffffffffffffffffffffffffffffffffff1673ffffffffffffffffffffffffffffffffffffffff1681526020018373ffffffffffffffffffffffffffffffffffffffff1673ffffffffffffffffffffffffffffffffffffffff168152602001828103825285818151815260200191508051906020019080838360005b8381101561046957808201518184015260208101905061044e565b50505050905090810190601f1680156104965780820380516001836020036101000a031916815260200191505b509550505050505060405180910390f35b3480156104b357600080fd5b506104e8600480360381019080803573ffffffffffffffffffffffffffffffffffffffff169060200190929190505050610d42565b60405180806020018060200180602001848103845287818151815260200191508051906020019080838360005b83811015610530578082015181840152602081019050610515565b50505050905090810190601f16801561055d5780820380516001836020036101000a031916815260200191505b50848103835286818151815260200191508051906020019080838360005b8381101561059657808201518184015260208101905061057b565b50505050905090810190601f1680156105c35780820380516001836020036101000a031916815260200191505b50848103825285818151815260200191508051906020019080838360005b838110156105fc5780820151818401526020810190506105e1565b50505050905090810190601f1680156106295780820380516001836020036101000a031916815260200191505b50965050505050505060405180910390f35b34801561064757600080fd5b5061067c600480360381019080803573ffffffffffffffffffffffffffffffffffffffff169060200190929190505050610fee565b6040518082815260200191505060405180910390f35b34801561069e57600080fd5b506107a5600480360381019080803573ffffffffffffffffffffffffffffffffffffffff169060200190929190803590602001908201803590602001908080601f0160208091040260200160405190810160405280939291908181526020018383808284378201915050505050509192919290803590602001908201803590602001908080601f0160208091040260200160405190810160405280939291908181526020018383808284378201915050505050509192919290803590602001908201803590602001908080601f01602080910402602001604051908101604052809392919081815260200183838082843782019150505050505091929192905050506110a1565b005b6002818154811015156107b657fe5b906000526020600020016000915054906101000a900473ffffffffffffffffffffffffffffffffffffffff1681565b6000808390508073ffffffffffffffffffffffffffffffffffffffff1663519c9dc6846040518263ffffffff167c010000000000000000000000000000000000000000000000000000000002815260040180828152602001915050600060405180830381600087803b15801561085a57600080fd5b505af115801561086e573d6000803e3d6000fd5b505050508073ffffffffffffffffffffffffffffffffffffffff1663aeb71b076040518163ffffffff167c0100000000000000000000000000000000000000000000000000000000028152600401602060405180830381600087803b1580156108d657600080fd5b505af11580156108ea573d6000803e3d6000fd5b505050506040513d602081101561090057600080fd5b810190808051906020019092919050505091505092915050565b600080600090505b6002805490508110156109b2578273ffffffffffffffffffffffffffffffffffffffff1660028281548110151561095557fe5b9060005260206000200160009054906101000a900473ffffffffffffffffffffffffffffffffffffffff1673ffffffffffffffffffffffffffffffffffffffff1614156109a557600191506109b7565b8080600101915050610922565b600091505b50919050565b60008490508073ffffffffffffffffffffffffffffffffffffffff166347d5558b8585856040518463ffffffff167c010000000000000000000000000000000000000000000000000000000002815260040180848152602001806020018373ffffffffffffffffffffffffffffffffffffffff1673ffffffffffffffffffffffffffffffffffffffff168152602001828103825284818151815260200191508051906020019080838360005b83811015610a84578082015181840152602081019050610a69565b50505050905090810190601f168015610ab15780820380516001836020036101000a031916815260200191505b50945050505050600060405180830381600087803b158015610ad257600080fd5b505af1158015610ae6573d6000803e3d6000fd5b505050505050505050565b60606002805480602002602001604051908101604052809291908181526020018280548015610b7557602002820191906000526020600020905b8160009054906101000a900473ffffffffffffffffffffffffffffffffffffffff1673ffffffffffffffffffffffffffffffffffffffff1681526020019060010190808311610b2b575b5050505050905090565b60008060009054906101000a900473ffffffffffffffffffffffffffffffffffffffff1673ffffffffffffffffffffffffffffffffffffffff163373ffffffffffffffffffffffffffffffffffffffff16141515610bdc57600080fd5b600280549050905090565b60008060009054906101000a900473ffffffffffffffffffffffffffffffffffffffff16905090565b6000606060008060008590508073ffffffffffffffffffffffffffffffffffffffff1663a73a4aaf6040518163ffffffff167c0100000000000000000000000000000000000000000000000000000000028152600401600060405180830381600087803b158015610c8057600080fd5b505af1158015610c94573d6000803e3d6000fd5b505050506040513d6000823e3d601f19601f820116820180604052506080811015610cbe57600080fd5b81019080805190602001909291908051640100000000811115610ce057600080fd5b82810190506020810184811115610cf657600080fd5b8151856001820283011164010000000082111715610d1357600080fd5b505092919060200180519060200190929190805190602001909291905050509450945094509450509193509193565b6060806060600160008573ffffffffffffffffffffffffffffffffffffffff1673ffffffffffffffffffffffffffffffffffffffff168152602001908152602001600020600001600160008673ffffffffffffffffffffffffffffffffffffffff1673ffffffffffffffffffffffffffffffffffffffff168152602001908152602001600020600101600160008773ffffffffffffffffffffffffffffffffffffffff1673ffffffffffffffffffffffffffffffffffffffff168152602001908152602001600020600201828054600181600116156101000203166002900480601f016020809104026020016040519081016040528092919081815260200182805460018160011615610100020316600290048015610ea25780601f10610e7757610100808354040283529160200191610ea2565b820191906000526020600020905b815481529060010190602001808311610e8557829003601f168201915b50505050509250818054600181600116156101000203166002900480601f016020809104026020016040519081016040528092919081815260200182805460018160011615610100020316600290048015610f3e5780601f10610f1357610100808354040283529160200191610f3e565b820191906000526020600020905b815481529060010190602001808311610f2157829003601f168201915b50505050509150808054600181600116156101000203166002900480601f016020809104026020016040519081016040528092919081815260200182805460018160011615610100020316600290048015610fda5780601f10610faf57610100808354040283529160200191610fda565b820191906000526020600020905b815481529060010190602001808311610fbd57829003601f168201915b505050505090509250925092509193909250565b60008060008391508173ffffffffffffffffffffffffffffffffffffffff1663aeb71b076040518163ffffffff167c0100000000000000000000000000000000000000000000000000000000028152600401602060405180830381600087803b15801561105a57600080fd5b505af115801561106e573d6000803e3d6000fd5b505050506040513d602081101561108457600080fd5b810190808051906020019092919050505090508092505050919050565b6000600160008673ffffffffffffffffffffffffffffffffffffffff1673ffffffffffffffffffffffffffffffffffffffff1681526020019081526020016000209050838160000190805190602001906110fc92919061119f565b508281600101908051906020019061111592919061119f565b508181600201908051906020019061112e92919061119f565b50600160028690806001815401808255809150509060018203906000526020600020016000909192909190916101000a81548173ffffffffffffffffffffffffffffffffffffffff021916908373ffffffffffffffffffffffffffffffffffffffff16021790555050505050505050565b828054600181600116156101000203166002900490600052602060002090601f016020900481019282601f106111e057805160ff191683800117855561120e565b8280016001018555821561120e579182015b8281111561120d5782518255916020019190600101906111f2565b5b50905061121b919061121f565b5090565b61124191905b8082111561123d576000816000905550600101611225565b5090565b905600a165627a7a72305820901de91d161572bf6e603fd2fa3be46c9f3a92bd84c8a87ac6a85ed658ea59c90029",
  "source": "pragma solidity ^0.4.23;\n\nimport \"./Owned.sol\";\n\ncontract ClientContract is Owned{\n\n    struct Client {\n        string firstName;\n        string lastName; // change string to bytes16\n        string company;\n    }\n\n    mapping (address => Client) clients;\n    address[] public clientAccounts;\n\n    constructor() public { //Default constructor\n\n    }\n\n    function clientExist(address _address) public view returns(bool){\n        for (uint i=0; i<clientAccounts.length; i++) {\n            if (clientAccounts[i] == _address)\n               return true;\n        }\n\n        return false;\n    }\n\t\n    function setClient(address _address, string _firstName, string _lastName, string _company) public {\n\n        Client storage client = clients[_address];\n\n        client.firstName = _firstName;\n        client.lastName = _lastName;\n        client.company = _company;\n\n        clientAccounts.push(_address) -1;\n    }\n\n    function getClients() view public returns(address[]){\n\n        return clientAccounts;\n    }\n\n\n    function getClient(address _address) view public returns (string, string, string){\n\n        return (clients[_address].firstName, clients[_address].lastName, clients[_address].company);\n    }\n\n    function countClients() onlyOwner view public returns (uint){\n\n        return clientAccounts.length;\n    }\n\n\t// Adding functions to call other contract\n\t/*\n\t\tfunction giveReviewToConsultant(address _addr, uint _rating, string _comment, address _consultantAddress) public{\n\n\t\t\tConsultantContract consultantContract = ConsultantContract(_addr);\n\n\n\t\t}\n\t*/\n\n\n\tfunction setTestNumberOnReview(address _contractAddr, uint _number) returns(uint){\n\n\t\tConsultantReviewContract crc = ConsultantReviewContract(_contractAddr);\n\t\tcrc.setTestNumber(_number);\n\t\treturn crc.getTestNumber();\n\t}\n\n\n    function getTestNumberOnReview(address _contractAddr) public view returns(uint){\n\n        ConsultantReviewContract crc = ConsultantReviewContract(_contractAddr);\n        uint getNumber = crc.getTestNumber();\n        return getNumber;\n\n    }\n\n    // Send client address explicity in the function\n    function setConsultantReview(address _contractAddr, uint _rating, string _comment, address _consultantAccount) public{\n        ConsultantReviewContract crc = ConsultantReviewContract(_contractAddr);\n        crc.setReview(_rating, _comment, _consultantAccount);\n    }\n\n    function getConsultantReview(address _contractAddr) public view returns(uint, string, address, address){\n\n        ConsultantReviewContract crc = ConsultantReviewContract(_contractAddr);\n        return crc.getReview();\n\n    }\n\n}\n\n\ncontract ConsultantReviewContract{\n\t\n    function getTestNumber() public view returns(uint);\n    function getReview() public view returns(uint, string, address, address);\n    function setTestNumber(uint _testNumber);\n    function setReview(uint _rating, string _comment, address _consultantAccount);\n    function totalReviews() returns (uint);\n    function getClientAccounts() returns (address[]);\n\n}",
  "sourcePath": "/Users/usman/Documents/blockchain/review/contracts/ClientContract.sol",
  "compiler": {
    "name": "solc",
    "version": "0.4.24+commit.e67f0147.Emscripten.clang"
  },
  "schemaVersion": "2.0.1",
  "updatedAt": "2018-11-10T00:26:58.804Z"
}