{
  "contractName": "ClientContract",
  "abi": [
    {
      "constant": true,
      "inputs": [
        {
          "name": "",
          "type": "uint256"
        }
      ],
      "name": "clientAccounts",
      "outputs": [
        {
          "name": "",
          "type": "address"
        }
      ],
      "payable": false,
      "stateMutability": "view",
      "type": "function"
    },
    {
      "constant": true,
      "inputs": [],
      "name": "getOwner",
      "outputs": [
        {
          "name": "",
          "type": "address"
        }
      ],
      "payable": false,
      "stateMutability": "view",
      "type": "function"
    },
    {
      "inputs": [],
      "payable": false,
      "stateMutability": "nonpayable",
      "type": "constructor"
    },
    {
      "constant": true,
      "inputs": [
        {
          "name": "_address",
          "type": "address"
        }
      ],
      "name": "clientExist",
      "outputs": [
        {
          "name": "",
          "type": "bool"
        }
      ],
      "payable": false,
      "stateMutability": "view",
      "type": "function"
    },
    {
      "constant": true,
      "inputs": [
        {
          "name": "_address",
          "type": "address"
        }
      ],
      "name": "clientDoesNotExist",
      "outputs": [
        {
          "name": "",
          "type": "bool"
        }
      ],
      "payable": false,
      "stateMutability": "view",
      "type": "function"
    },
    {
      "constant": false,
      "inputs": [
        {
          "name": "_address",
          "type": "address"
        },
        {
          "name": "_firstName",
          "type": "string"
        },
        {
          "name": "_lastName",
          "type": "string"
        },
        {
          "name": "_company",
          "type": "string"
        }
      ],
      "name": "setClient",
      "outputs": [],
      "payable": false,
      "stateMutability": "nonpayable",
      "type": "function"
    },
    {
      "constant": true,
      "inputs": [],
      "name": "getClients",
      "outputs": [
        {
          "name": "",
          "type": "address[]"
        }
      ],
      "payable": false,
      "stateMutability": "view",
      "type": "function"
    },
    {
      "constant": true,
      "inputs": [
        {
          "name": "_address",
          "type": "address"
        }
      ],
      "name": "getClient",
      "outputs": [
        {
          "name": "",
          "type": "string"
        },
        {
          "name": "",
          "type": "string"
        },
        {
          "name": "",
          "type": "string"
        }
      ],
      "payable": false,
      "stateMutability": "view",
      "type": "function"
    },
    {
      "constant": true,
      "inputs": [],
      "name": "countClients",
      "outputs": [
        {
          "name": "",
          "type": "uint256"
        }
      ],
      "payable": false,
      "stateMutability": "view",
      "type": "function"
    },
    {
      "constant": false,
      "inputs": [
        {
          "name": "_contractAddr",
          "type": "address"
        },
        {
          "name": "_rating",
          "type": "uint256"
        },
        {
          "name": "_comment",
          "type": "string"
        },
        {
          "name": "_consultantAccount",
          "type": "address"
        },
        {
          "name": "_clientAccount",
          "type": "address"
        }
      ],
      "name": "setConsultantReview",
      "outputs": [],
      "payable": false,
      "stateMutability": "nonpayable",
      "type": "function"
    },
    {
      "constant": true,
      "inputs": [
        {
          "name": "_contractAddr",
          "type": "address"
        }
      ],
      "name": "getConsultantReview",
      "outputs": [
        {
          "name": "",
          "type": "uint256"
        },
        {
          "name": "",
          "type": "string"
        },
        {
          "name": "",
          "type": "address"
        },
        {
          "name": "",
          "type": "address"
        }
      ],
      "payable": false,
      "stateMutability": "view",
      "type": "function"
    },
    {
      "constant": true,
      "inputs": [
        {
          "name": "_contractAddr",
          "type": "address"
        },
        {
          "name": "_clientAccount",
          "type": "address"
        }
      ],
      "name": "getConsultantsReviews",
      "outputs": [
        {
          "name": "",
          "type": "uint256[]"
        },
        {
          "name": "",
          "type": "string[]"
        },
        {
          "name": "",
          "type": "address[]"
        }
      ],
      "payable": false,
      "stateMutability": "view",
      "type": "function"
    },
    {
      "constant": true,
      "inputs": [
        {
          "name": "_contractAddr",
          "type": "address"
        },
        {
          "name": "_consultantAccount",
          "type": "address"
        },
        {
          "name": "_clientAccount",
          "type": "address"
        }
      ],
      "name": "getConsultantReviews",
      "outputs": [
        {
          "name": "",
          "type": "uint256[]"
        },
        {
          "name": "",
          "type": "string[]"
        }
      ],
      "payable": false,
      "stateMutability": "view",
      "type": "function"
    },
    {
      "constant": true,
      "inputs": [
        {
          "name": "_contractAddr",
          "type": "address"
        },
        {
          "name": "_clientAccount",
          "type": "address"
        }
      ],
      "name": "getClientFirstReview",
      "outputs": [
        {
          "name": "",
          "type": "uint256"
        },
        {
          "name": "",
          "type": "string"
        }
      ],
      "payable": false,
      "stateMutability": "view",
      "type": "function"
    }
  ],
  "bytecode": "0x608060405234801561001057600080fd5b50336000806101000a81548173ffffffffffffffffffffffffffffffffffffffff021916908373ffffffffffffffffffffffffffffffffffffffff160217905550611b3e806100606000396000f3006080604052600436106100c4576000357c0100000000000000000000000000000000000000000000000000000000900463ffffffff16806211d681146100c95780631c1b6e87146100f2578063418cd1391461012f5780636db809951461016c5780638463bcf514610197578063893d20e8146101c257806390fb9d65146101ed578063947720cd1461022b57806394afdbae146102685780639bd00f2b146102a6578063a0e32870146102e6578063c7a1777314610325578063dc634d8d14610364575b600080fd5b3480156100d557600080fd5b506100f060048036036100eb91908101906112a1565b61038d565b005b3480156100fe57600080fd5b5061011960048036036101149190810190611433565b610427565b60405161012691906116e8565b60405180910390f35b34801561013b57600080fd5b5061015660048036036101519190810190611142565b610465565b60405161016391906117d1565b60405180910390f35b34801561017857600080fd5b50610181610508565b60405161018e919061172c565b60405180910390f35b3480156101a357600080fd5b506101ac610596565b6040516101b99190611838565b60405180910390f35b3480156101ce57600080fd5b506101d76105fe565b6040516101e491906116e8565b60405180910390f35b3480156101f957600080fd5b50610214600480360361020f91908101906111a7565b610627565b60405161022292919061174e565b60405180910390f35b34801561023757600080fd5b50610252600480360361024d9190810190611142565b6106ea565b60405161025f91906117d1565b60405180910390f35b34801561027457600080fd5b5061028f600480360361028a919081019061116b565b61078d565b60405161029d929190611853565b60405180910390f35b3480156102b257600080fd5b506102cd60048036036102c89190810190611142565b61084e565b6040516102dd9493929190611883565b60405180910390f35b3480156102f257600080fd5b5061030d60048036036103089190810190611142565b61090b565b60405161031c939291906117ec565b60405180910390f35b34801561033157600080fd5b5061034c6004803603610347919081019061116b565b610bb7565b60405161035b93929190611785565b60405180910390f35b34801561037057600080fd5b5061038b600480360361038691908101906111f6565b610c7b565b005b60008590508073ffffffffffffffffffffffffffffffffffffffff1663fe49cd42868686866040518563ffffffff167c01000000000000000000000000000000000000000000000000000000000281526004016103ed9493929190611883565b600060405180830381600087803b15801561040757600080fd5b505af115801561041b573d6000803e3d6000fd5b50505050505050505050565b60028181548110151561043657fe5b906000526020600020016000915054906101000a900473ffffffffffffffffffffffffffffffffffffffff1681565b600080600090505b6002805490508110156104fd578273ffffffffffffffffffffffffffffffffffffffff166002828154811015156104a057fe5b9060005260206000200160009054906101000a900473ffffffffffffffffffffffffffffffffffffffff1673ffffffffffffffffffffffffffffffffffffffff1614156104f05760019150610502565b808060010191505061046d565b600091505b50919050565b6060600280548060200260200160405190810160405280929190818152602001828054801561058c57602002820191906000526020600020905b8160009054906101000a900473ffffffffffffffffffffffffffffffffffffffff1673ffffffffffffffffffffffffffffffffffffffff1681526020019060010190808311610542575b5050505050905090565b60008060009054906101000a900473ffffffffffffffffffffffffffffffffffffffff1673ffffffffffffffffffffffffffffffffffffffff163373ffffffffffffffffffffffffffffffffffffffff161415156105f357600080fd5b600280549050905090565b60008060009054906101000a900473ffffffffffffffffffffffffffffffffffffffff16905090565b60608060008590508073ffffffffffffffffffffffffffffffffffffffff16638640cc3485876040518363ffffffff167c0100000000000000000000000000000000000000000000000000000000028152600401610686929190611703565b600060405180830381600087803b1580156106a057600080fd5b505af11580156106b4573d6000803e3d6000fd5b505050506040513d6000823e3d601f19601f820116820180604052506106dd9190810190611330565b9250925050935093915050565b600080600090505b600280549050811015610782578273ffffffffffffffffffffffffffffffffffffffff1660028281548110151561072557fe5b9060005260206000200160009054906101000a900473ffffffffffffffffffffffffffffffffffffffff1673ffffffffffffffffffffffffffffffffffffffff1614156107755760009150610787565b80806001019150506106f2565b600191505b50919050565b6000606060008490508073ffffffffffffffffffffffffffffffffffffffff166322149c3a856040518263ffffffff167c01000000000000000000000000000000000000000000000000000000000281526004016107eb91906116e8565b600060405180830381600087803b15801561080557600080fd5b505af1158015610819573d6000803e3d6000fd5b505050506040513d6000823e3d601f19601f82011682018060405250610842919081019061145c565b92509250509250929050565b6000606060008060008590508073ffffffffffffffffffffffffffffffffffffffff1663a73a4aaf6040518163ffffffff167c0100000000000000000000000000000000000000000000000000000000028152600401600060405180830381600087803b1580156108be57600080fd5b505af11580156108d2573d6000803e3d6000fd5b505050506040513d6000823e3d601f19601f820116820180604052506108fb91908101906114b0565b9450945094509450509193509193565b6060806060600160008573ffffffffffffffffffffffffffffffffffffffff1673ffffffffffffffffffffffffffffffffffffffff168152602001908152602001600020600001600160008673ffffffffffffffffffffffffffffffffffffffff1673ffffffffffffffffffffffffffffffffffffffff168152602001908152602001600020600101600160008773ffffffffffffffffffffffffffffffffffffffff1673ffffffffffffffffffffffffffffffffffffffff168152602001908152602001600020600201828054600181600116156101000203166002900480601f016020809104026020016040519081016040528092919081815260200182805460018160011615610100020316600290048015610a6b5780601f10610a4057610100808354040283529160200191610a6b565b820191906000526020600020905b815481529060010190602001808311610a4e57829003601f168201915b50505050509250818054600181600116156101000203166002900480601f016020809104026020016040519081016040528092919081815260200182805460018160011615610100020316600290048015610b075780601f10610adc57610100808354040283529160200191610b07565b820191906000526020600020905b815481529060010190602001808311610aea57829003601f168201915b50505050509150808054600181600116156101000203166002900480601f016020809104026020016040519081016040528092919081815260200182805460018160011615610100020316600290048015610ba35780601f10610b7857610100808354040283529160200191610ba3565b820191906000526020600020905b815481529060010190602001808311610b8657829003601f168201915b505050505090509250925092509193909250565b606080606060008590508073ffffffffffffffffffffffffffffffffffffffff166338337562866040518263ffffffff167c0100000000000000000000000000000000000000000000000000000000028152600401610c1691906116e8565b600060405180830381600087803b158015610c3057600080fd5b505af1158015610c44573d6000803e3d6000fd5b505050506040513d6000823e3d601f19601f82011682018060405250610c6d919081019061139c565b935093509350509250925092565b6000610c86856106ea565b15610dc457600160008673ffffffffffffffffffffffffffffffffffffffff1673ffffffffffffffffffffffffffffffffffffffff168152602001908152602001600020905083816000019080519060200190610ce4929190610dcb565b5082816001019080519060200190610cfd929190610dcb565b5081816002019080519060200190610d16929190610dcb565b50848160030160006101000a81548173ffffffffffffffffffffffffffffffffffffffff021916908373ffffffffffffffffffffffffffffffffffffffff160217905550600160028690806001815401808255809150509060018203906000526020600020016000909192909190916101000a81548173ffffffffffffffffffffffffffffffffffffffff021916908373ffffffffffffffffffffffffffffffffffffffff16021790555050505b5050505050565b828054600181600116156101000203166002900490600052602060002090601f016020900481019282601f10610e0c57805160ff1916838001178555610e3a565b82800160010185558215610e3a579182015b82811115610e39578251825591602001919060010190610e1e565b5b509050610e479190610e4b565b5090565b610e6d91905b80821115610e69576000816000905550600101610e51565b5090565b90565b6000610e7c8235611a87565b905092915050565b6000610e908251611a87565b905092915050565b600082601f8301121515610eab57600080fd5b8151610ebe610eb9826118fc565b6118cf565b91508181835260208401935060208101905083856020840282011115610ee357600080fd5b60005b83811015610f135781610ef98882610e84565b845260208401935060208301925050600181019050610ee6565b5050505092915050565b600082601f8301121515610f3057600080fd5b8151610f43610f3e82611924565b6118cf565b9150818183526020840193506020810190508360005b83811015610f895781518601610f6f8882611018565b845260208401935060208301925050600181019050610f59565b5050505092915050565b600082601f8301121515610fa657600080fd5b8151610fb9610fb48261194c565b6118cf565b91508181835260208401935060208101905083856020840282011115610fde57600080fd5b60005b8381101561100e5781610ff4888261112e565b845260208401935060208301925050600181019050610fe1565b5050505092915050565b600082601f830112151561102b57600080fd5b815161103e61103982611974565b6118cf565b9150808252602083016020830185838301111561105a57600080fd5b611065838284611ac0565b50505092915050565b600082601f830112151561108157600080fd5b813561109461108f826119a0565b6118cf565b915080825260208301602083018583830111156110b057600080fd5b6110bb838284611ab1565b50505092915050565b600082601f83011215156110d757600080fd5b81516110ea6110e5826119a0565b6118cf565b9150808252602083016020830185838301111561110657600080fd5b611111838284611ac0565b50505092915050565b60006111268235611aa7565b905092915050565b600061113a8251611aa7565b905092915050565b60006020828403121561115457600080fd5b600061116284828501610e70565b91505092915050565b6000806040838503121561117e57600080fd5b600061118c85828601610e70565b925050602061119d85828601610e70565b9150509250929050565b6000806000606084860312156111bc57600080fd5b60006111ca86828701610e70565b93505060206111db86828701610e70565b92505060406111ec86828701610e70565b9150509250925092565b6000806000806080858703121561120c57600080fd5b600061121a87828801610e70565b945050602085013567ffffffffffffffff81111561123757600080fd5b6112438782880161106e565b935050604085013567ffffffffffffffff81111561126057600080fd5b61126c8782880161106e565b925050606085013567ffffffffffffffff81111561128957600080fd5b6112958782880161106e565b91505092959194509250565b600080600080600060a086880312156112b957600080fd5b60006112c788828901610e70565b95505060206112d88882890161111a565b945050604086013567ffffffffffffffff8111156112f557600080fd5b6113018882890161106e565b935050606061131288828901610e70565b925050608061132388828901610e70565b9150509295509295909350565b6000806040838503121561134357600080fd5b600083015167ffffffffffffffff81111561135d57600080fd5b61136985828601610f93565b925050602083015167ffffffffffffffff81111561138657600080fd5b61139285828601610f1d565b9150509250929050565b6000806000606084860312156113b157600080fd5b600084015167ffffffffffffffff8111156113cb57600080fd5b6113d786828701610f93565b935050602084015167ffffffffffffffff8111156113f457600080fd5b61140086828701610f1d565b925050604084015167ffffffffffffffff81111561141d57600080fd5b61142986828701610e98565b9150509250925092565b60006020828403121561144557600080fd5b60006114538482850161111a565b91505092915050565b6000806040838503121561146f57600080fd5b600061147d8582860161112e565b925050602083015167ffffffffffffffff81111561149a57600080fd5b6114a6858286016110c4565b9150509250929050565b600080600080608085870312156114c657600080fd5b60006114d48782880161112e565b945050602085015167ffffffffffffffff8111156114f157600080fd5b6114fd878288016110c4565b935050604061150e87828801610e84565b925050606061151f87828801610e84565b91505092959194509250565b61153481611a51565b82525050565b6000611545826119f3565b808452602084019350611557836119cc565b60005b828110156115895761156d86835161152b565b61157682611a2a565b915060208601955060018101905061155a565b50849250505092915050565b60006115a0826119fe565b808452602084019350836020820285016115b9856119d9565b60005b848110156115f25783830388526115d48383516116a3565b92506115df82611a37565b91506020880197506001810190506115bc565b508196508694505050505092915050565b600061160e82611a09565b808452602084019350611620836119e6565b60005b82811015611652576116368683516116d9565b61163f82611a44565b9150602086019550600181019050611623565b50849250505092915050565b61166781611a71565b82525050565b600061167882611a1f565b80845261168c816020860160208601611ac0565b61169581611af3565b602085010191505092915050565b60006116ae82611a14565b8084526116c2816020860160208601611ac0565b6116cb81611af3565b602085010191505092915050565b6116e281611a7d565b82525050565b60006020820190506116fd600083018461152b565b92915050565b6000604082019050611718600083018561152b565b611725602083018461152b565b9392505050565b60006020820190508181036000830152611746818461153a565b905092915050565b600060408201905081810360008301526117688185611603565b9050818103602083015261177c8184611595565b90509392505050565b6000606082019050818103600083015261179f8186611603565b905081810360208301526117b38185611595565b905081810360408301526117c7818461153a565b9050949350505050565b60006020820190506117e6600083018461165e565b92915050565b60006060820190508181036000830152611806818661166d565b9050818103602083015261181a818561166d565b9050818103604083015261182e818461166d565b9050949350505050565b600060208201905061184d60008301846116d9565b92915050565b600060408201905061186860008301856116d9565b818103602083015261187a818461166d565b90509392505050565b600060808201905061189860008301876116d9565b81810360208301526118aa818661166d565b90506118b9604083018561152b565b6118c6606083018461152b565b95945050505050565b6000604051905081810181811067ffffffffffffffff821117156118f257600080fd5b8060405250919050565b600067ffffffffffffffff82111561191357600080fd5b602082029050602081019050919050565b600067ffffffffffffffff82111561193b57600080fd5b602082029050602081019050919050565b600067ffffffffffffffff82111561196357600080fd5b602082029050602081019050919050565b600067ffffffffffffffff82111561198b57600080fd5b601f19601f8301169050602081019050919050565b600067ffffffffffffffff8211156119b757600080fd5b601f19601f8301169050602081019050919050565b6000602082019050919050565b6000602082019050919050565b6000602082019050919050565b600081519050919050565b600081519050919050565b600081519050919050565b600081519050919050565b600081519050919050565b6000602082019050919050565b6000602082019050919050565b6000602082019050919050565b600073ffffffffffffffffffffffffffffffffffffffff82169050919050565b60008115159050919050565b6000819050919050565b600073ffffffffffffffffffffffffffffffffffffffff82169050919050565b6000819050919050565b82818337600083830152505050565b60005b83811015611ade578082015181840152602081019050611ac3565b83811115611aed576000848401525b50505050565b6000601f19601f83011690509190505600a265627a7a7230582055272afbceeed014c67d2da3f646905eb8242abf4de1c91a951747a6ce76c13b6c6578706572696d656e74616cf50037",
  "source": "pragma experimental ABIEncoderV2;\npragma solidity ^0.4.23;\n\nimport \"./Owned.sol\";\n\ncontract ClientContract is Owned{\n\n    struct Client {\n        string firstName;\n        string lastName; // change string to bytes16\n        string company;\n        address account;\n    }\n\n    mapping (address => Client) clients;\n    address[] public clientAccounts;\n\n    constructor() public { //Default constructor\n\n    }\n\n    function clientExist(address _address) public view returns(bool){\n        for (uint i = 0; i < clientAccounts.length; i++) {\n            if (clientAccounts[i] == _address)\n               return true;\n        }\n        return false;\n    }\n\t\n    function clientDoesNotExist(address _address) public view returns(bool){\n        for (uint i = 0; i < clientAccounts.length; i++) {\n            if (clientAccounts[i] == _address)\n               return false;\n        }\n        return true;\n\n    }\n\n    function setClient(address _address, string _firstName, string _lastName, string _company) public {\n\n        if(clientDoesNotExist(_address)){\n            Client storage client = clients[_address];\n\n            client.firstName = _firstName;\n            client.lastName = _lastName;\n            client.company = _company;\n            client.account = _address;\n\n            clientAccounts.push(_address) -1;\n        }\n    }\n\n    function getClients() public view returns(address[]){\n\n        return clientAccounts;\n    }\n\n\n    function getClient(address _address) public view returns (string, string, string){\n\n        return (clients[_address].firstName, clients[_address].lastName, clients[_address].company);\n    }\n\n    function countClients() public onlyOwner  view returns (uint){\n\n        return clientAccounts.length;\n    }\n\n\t// function setTestNumberOnReview(address _contractAddr, uint _number) returns(uint){\n\n\t// \tConsultantReviewContract crc = ConsultantReviewContract(_contractAddr);\n\t// \tcrc.setTestNumber(_number);\n\t// \treturn crc.getTestNumber();\n\t// }\n\n\n    // function getTestNumberOnReview(address _contractAddr) public view returns(uint){\n\n    //     ConsultantReviewContract crc = ConsultantReviewContract(_contractAddr);\n    //     uint getNumber = crc.getTestNumber();\n    //     return getNumber;\n\n    // }\n\n    // Send client address explicity in the function\n    function setConsultantReview(address _contractAddr, uint _rating, string _comment, address _consultantAccount, address _clientAccount) \n    \n    public{\n\n        ConsultantReviewContract crc = ConsultantReviewContract(_contractAddr);\n        crc.setReview(_rating, _comment, _consultantAccount,_clientAccount);\n    }\n\n    function getConsultantReview(address _contractAddr) public view returns(uint, string, address, address){\n\n        ConsultantReviewContract crc = ConsultantReviewContract(_contractAddr);\n        return crc.getReview();\n\n    }\n\n    // All the reviews by this client to his/her consultants\n    // Check only authorized cleint can see the comments\n    function getConsultantsReviews(address _contractAddr, address _clientAccount) public view returns(uint[], string[], address[]){\n        \n        ConsultantReviewContract crc = ConsultantReviewContract(_contractAddr);\n        return crc.getConsultantsReviews(_clientAccount);\n    }\n\n\n    // All reviews of a particular consultant by the client\n    function getConsultantReviews(address _contractAddr, address _consultantAccount, address _clientAccount) public view returns(uint[], string[]){\n        ConsultantReviewContract crc = ConsultantReviewContract(_contractAddr);\n        return crc.getConsultantReviews(_clientAccount,_consultantAccount);\n    }\n\n    function getClientFirstReview(address _contractAddr, address _clientAccount)public view returns(uint, string){\n        ConsultantReviewContract crc = ConsultantReviewContract(_contractAddr);\n        return crc.getClientFirstReviewNow(_clientAccount);\n    }\n\n}\n\n// Get consultant first review\n// change string to fixed sized bytes array\n\n\n\ncontract ConsultantReviewContract{\n\t\n    // function getTestNumber() public view returns(uint);\n    function getReview() public view returns(uint, string, address, address);\n    // function setTestNumber(uint _testNumber);\n    function setReview(uint _rating, string _comment, address _consultantAccount, address _clientAccount) public;\n    function totalReviews() public returns (uint);\n    function getClientAccounts() public returns (address[]);\n    function getConsultantsReviews(address _clientAccount) public view returns(uint[], string[], address[]);\n    function getConsultantReviews(address _clientAccount, address _consultantAccount) public view returns(uint[], string[]);\n    function getClientFirstReviewNow(address _clientAccount) public view returns(uint, string);\n\n}",
  "sourcePath": "/Users/usman/Documents/blockchain/review/contracts/ClientContract.sol",
  "compiler": {
    "name": "solc",
    "version": "0.4.24+commit.e67f0147.Emscripten.clang"
  },
  "schemaVersion": "2.0.1",
  "updatedAt": "2018-12-09T11:23:31.040Z"
}