{
  "contractName": "ClientContract",
  "abi": [
    {
      "constant": true,
      "inputs": [
        {
          "name": "",
          "type": "uint256"
        }
      ],
      "name": "clientAccounts",
      "outputs": [
        {
          "name": "",
          "type": "address"
        }
      ],
      "payable": false,
      "stateMutability": "view",
      "type": "function"
    },
    {
      "constant": true,
      "inputs": [],
      "name": "getOwner",
      "outputs": [
        {
          "name": "",
          "type": "address"
        }
      ],
      "payable": false,
      "stateMutability": "view",
      "type": "function"
    },
    {
      "inputs": [],
      "payable": false,
      "stateMutability": "nonpayable",
      "type": "constructor"
    },
    {
      "constant": false,
      "inputs": [
        {
          "name": "_address",
          "type": "address"
        },
        {
          "name": "_firstName",
          "type": "string"
        },
        {
          "name": "_lastName",
          "type": "string"
        },
        {
          "name": "_company",
          "type": "string"
        }
      ],
      "name": "setClient",
      "outputs": [],
      "payable": false,
      "stateMutability": "nonpayable",
      "type": "function"
    },
    {
      "constant": true,
      "inputs": [],
      "name": "getClients",
      "outputs": [
        {
          "name": "",
          "type": "address[]"
        }
      ],
      "payable": false,
      "stateMutability": "view",
      "type": "function"
    },
    {
      "constant": true,
      "inputs": [
        {
          "name": "_address",
          "type": "address"
        }
      ],
      "name": "getClient",
      "outputs": [
        {
          "name": "",
          "type": "string"
        },
        {
          "name": "",
          "type": "string"
        },
        {
          "name": "",
          "type": "string"
        }
      ],
      "payable": false,
      "stateMutability": "view",
      "type": "function"
    },
    {
      "constant": true,
      "inputs": [],
      "name": "countClients",
      "outputs": [
        {
          "name": "",
          "type": "uint256"
        }
      ],
      "payable": false,
      "stateMutability": "view",
      "type": "function"
    },
    {
      "constant": false,
      "inputs": [
        {
          "name": "_contractAddr",
          "type": "address"
        },
        {
          "name": "_number",
          "type": "uint256"
        }
      ],
      "name": "setTestNumberOnReview",
      "outputs": [
        {
          "name": "",
          "type": "uint256"
        }
      ],
      "payable": false,
      "stateMutability": "nonpayable",
      "type": "function"
    },
    {
      "constant": false,
      "inputs": [
        {
          "name": "_contractAddr",
          "type": "address"
        }
      ],
      "name": "getTestNumberOnReview",
      "outputs": [
        {
          "name": "",
          "type": "uint256"
        }
      ],
      "payable": false,
      "stateMutability": "nonpayable",
      "type": "function"
    }
  ],
  "bytecode": "0x608060405234801561001057600080fd5b50336000806101000a81548173ffffffffffffffffffffffffffffffffffffffff021916908373ffffffffffffffffffffffffffffffffffffffff160217905550610d09806100606000396000f30060806040526004361061008e576000357c0100000000000000000000000000000000000000000000000000000000900463ffffffff1680631c1b6e87146100935780633b0aaac6146101005780636db80995146101615780638463bcf5146101cd578063893d20e8146101f8578063a0e328701461024f578063a352156a146103e3578063dc634d8d1461043a575b600080fd5b34801561009f57600080fd5b506100be6004803603810190808035906020019092919050505061054f565b604051808273ffffffffffffffffffffffffffffffffffffffff1673ffffffffffffffffffffffffffffffffffffffff16815260200191505060405180910390f35b34801561010c57600080fd5b5061014b600480360381019080803573ffffffffffffffffffffffffffffffffffffffff1690602001909291908035906020019092919050505061058d565b6040518082815260200191505060405180910390f35b34801561016d57600080fd5b506101766106c2565b6040518080602001828103825283818151815260200191508051906020019060200280838360005b838110156101b957808201518184015260208101905061019e565b505050509050019250505060405180910390f35b3480156101d957600080fd5b506101e2610750565b6040518082815260200191505060405180910390f35b34801561020457600080fd5b5061020d6107b8565b604051808273ffffffffffffffffffffffffffffffffffffffff1673ffffffffffffffffffffffffffffffffffffffff16815260200191505060405180910390f35b34801561025b57600080fd5b50610290600480360381019080803573ffffffffffffffffffffffffffffffffffffffff1690602001909291905050506107e1565b60405180806020018060200180602001848103845287818151815260200191508051906020019080838360005b838110156102d85780820151818401526020810190506102bd565b50505050905090810190601f1680156103055780820380516001836020036101000a031916815260200191505b50848103835286818151815260200191508051906020019080838360005b8381101561033e578082015181840152602081019050610323565b50505050905090810190601f16801561036b5780820380516001836020036101000a031916815260200191505b50848103825285818151815260200191508051906020019080838360005b838110156103a4578082015181840152602081019050610389565b50505050905090810190601f1680156103d15780820380516001836020036101000a031916815260200191505b50965050505050505060405180910390f35b3480156103ef57600080fd5b50610424600480360381019080803573ffffffffffffffffffffffffffffffffffffffff169060200190929190505050610a8d565b6040518082815260200191505060405180910390f35b34801561044657600080fd5b5061054d600480360381019080803573ffffffffffffffffffffffffffffffffffffffff169060200190929190803590602001908201803590602001908080601f0160208091040260200160405190810160405280939291908181526020018383808284378201915050505050509192919290803590602001908201803590602001908080601f0160208091040260200160405190810160405280939291908181526020018383808284378201915050505050509192919290803590602001908201803590602001908080601f0160208091040260200160405190810160405280939291908181526020018383808284378201915050505050509192919290505050610b3a565b005b60028181548110151561055e57fe5b906000526020600020016000915054906101000a900473ffffffffffffffffffffffffffffffffffffffff1681565b6000808390508073ffffffffffffffffffffffffffffffffffffffff1663519c9dc6846040518263ffffffff167c010000000000000000000000000000000000000000000000000000000002815260040180828152602001915050600060405180830381600087803b15801561060257600080fd5b505af1158015610616573d6000803e3d6000fd5b505050508073ffffffffffffffffffffffffffffffffffffffff1663aeb71b076040518163ffffffff167c0100000000000000000000000000000000000000000000000000000000028152600401602060405180830381600087803b15801561067e57600080fd5b505af1158015610692573d6000803e3d6000fd5b505050506040513d60208110156106a857600080fd5b810190808051906020019092919050505091505092915050565b6060600280548060200260200160405190810160405280929190818152602001828054801561074657602002820191906000526020600020905b8160009054906101000a900473ffffffffffffffffffffffffffffffffffffffff1673ffffffffffffffffffffffffffffffffffffffff16815260200190600101908083116106fc575b5050505050905090565b60008060009054906101000a900473ffffffffffffffffffffffffffffffffffffffff1673ffffffffffffffffffffffffffffffffffffffff163373ffffffffffffffffffffffffffffffffffffffff161415156107ad57600080fd5b600280549050905090565b60008060009054906101000a900473ffffffffffffffffffffffffffffffffffffffff16905090565b6060806060600160008573ffffffffffffffffffffffffffffffffffffffff1673ffffffffffffffffffffffffffffffffffffffff168152602001908152602001600020600001600160008673ffffffffffffffffffffffffffffffffffffffff1673ffffffffffffffffffffffffffffffffffffffff168152602001908152602001600020600101600160008773ffffffffffffffffffffffffffffffffffffffff1673ffffffffffffffffffffffffffffffffffffffff168152602001908152602001600020600201828054600181600116156101000203166002900480601f0160208091040260200160405190810160405280929190818152602001828054600181600116156101000203166002900480156109415780601f1061091657610100808354040283529160200191610941565b820191906000526020600020905b81548152906001019060200180831161092457829003601f168201915b50505050509250818054600181600116156101000203166002900480601f0160208091040260200160405190810160405280929190818152602001828054600181600116156101000203166002900480156109dd5780601f106109b2576101008083540402835291602001916109dd565b820191906000526020600020905b8154815290600101906020018083116109c057829003601f168201915b50505050509150808054600181600116156101000203166002900480601f016020809104026020016040519081016040528092919081815260200182805460018160011615610100020316600290048015610a795780601f10610a4e57610100808354040283529160200191610a79565b820191906000526020600020905b815481529060010190602001808311610a5c57829003601f168201915b505050505090509250925092509193909250565b6000808290508073ffffffffffffffffffffffffffffffffffffffff1663aeb71b076040518163ffffffff167c0100000000000000000000000000000000000000000000000000000000028152600401602060405180830381600087803b158015610af757600080fd5b505af1158015610b0b573d6000803e3d6000fd5b505050506040513d6020811015610b2157600080fd5b8101908080519060200190929190505050915050919050565b6000600160008673ffffffffffffffffffffffffffffffffffffffff1673ffffffffffffffffffffffffffffffffffffffff168152602001908152602001600020905083816000019080519060200190610b95929190610c38565b5082816001019080519060200190610bae929190610c38565b5081816002019080519060200190610bc7929190610c38565b50600160028690806001815401808255809150509060018203906000526020600020016000909192909190916101000a81548173ffffffffffffffffffffffffffffffffffffffff021916908373ffffffffffffffffffffffffffffffffffffffff16021790555050505050505050565b828054600181600116156101000203166002900490600052602060002090601f016020900481019282601f10610c7957805160ff1916838001178555610ca7565b82800160010185558215610ca7579182015b82811115610ca6578251825591602001919060010190610c8b565b5b509050610cb49190610cb8565b5090565b610cda91905b80821115610cd6576000816000905550600101610cbe565b5090565b905600a165627a7a7230582075b29d7b9651475da7c083d07bcf0737a4a07f3e6b3938fe8b7ac09be53a164d0029",
  "source": "pragma solidity ^0.4.23;\n\nimport \"./Owned.sol\";\n\ncontract ClientContract is Owned{\n\n\tconstructor() public {\n\n\t}\n\t\n    struct Client {\n        string firstName;\n        string lastName;\n        string company;\n    }\n\n    mapping (address => Client) clients;\n    address[] public clientAccounts;\n\n\tfunction setClient(address _address, string _firstName, string _lastName, string _company) public {\n\n\t\tClient storage client = clients[_address];\n\n\t\tclient.firstName = _firstName;\n\t\tclient.lastName = _lastName;\n\t\tclient.company = _company;\n\n\t\tclientAccounts.push(_address) -1;\n\t}\n\n\tfunction getClients() view public returns(address[]){\n\n\t\treturn clientAccounts;\n\t}\n\n\n\tfunction getClient(address _address) view public returns (string, string, string){\n\n\t\treturn (clients[_address].firstName, clients[_address].lastName, clients[_address].company);\n\t}\n\n\tfunction countClients() onlyOwner view public returns (uint){\n\n\t\treturn clientAccounts.length;\n\t}\n\n\t// Adding functions to call other contract\n\t/*\n\t\tfunction giveReviewToConsultant(address _addr, uint _rating, string _comment, address _consultantAddress) public{\n\n\t\t\tConsultantContract consultantContract = ConsultantContract(_addr);\n\n\n\t\t}\n\t*/\n\n\n\tfunction setTestNumberOnReview(address _contractAddr, uint _number) returns(uint){\n\n\t\tConsultantReviewContract crc = ConsultantReviewContract(_contractAddr);\n\t\tcrc.setTestNumber(_number);\n\t\treturn crc.getTestNumber();\n\t}\n\n\n\tfunction getTestNumberOnReview(address _contractAddr) returns(uint){\n\n\t\tConsultantReviewContract crc = ConsultantReviewContract(_contractAddr);\n\t\treturn crc.getTestNumber();\n\n\t}\n\n}\n\n\ncontract ConsultantReviewContract{\n\t\n\tfunction setTestNumber(uint _testNumber);\n\tfunction getTestNumber() returns(uint);\n}",
  "sourcePath": "/Users/usman/Documents/blockchain/review/contracts/ClientContract.sol",
  "compiler": {
    "name": "solc",
    "version": "0.4.24+commit.e67f0147.Emscripten.clang"
  },
  "schemaVersion": "2.0.1",
  "updatedAt": "2018-10-13T06:26:34.909Z"
}