{
  "contractName": "ClientContract",
  "abi": [
    {
      "constant": true,
      "inputs": [
        {
          "name": "",
          "type": "uint256"
        }
      ],
      "name": "clientAccounts",
      "outputs": [
        {
          "name": "",
          "type": "address"
        }
      ],
      "payable": false,
      "stateMutability": "view",
      "type": "function"
    },
    {
      "constant": true,
      "inputs": [],
      "name": "getOwner",
      "outputs": [
        {
          "name": "",
          "type": "address"
        }
      ],
      "payable": false,
      "stateMutability": "view",
      "type": "function"
    },
    {
      "inputs": [],
      "payable": false,
      "stateMutability": "nonpayable",
      "type": "constructor"
    },
    {
      "constant": true,
      "inputs": [
        {
          "name": "_address",
          "type": "address"
        }
      ],
      "name": "clientExist",
      "outputs": [
        {
          "name": "",
          "type": "bool"
        }
      ],
      "payable": false,
      "stateMutability": "view",
      "type": "function"
    },
    {
      "constant": true,
      "inputs": [
        {
          "name": "_address",
          "type": "address"
        }
      ],
      "name": "clientDoesNotExist",
      "outputs": [
        {
          "name": "",
          "type": "bool"
        }
      ],
      "payable": false,
      "stateMutability": "view",
      "type": "function"
    },
    {
      "constant": false,
      "inputs": [
        {
          "name": "_address",
          "type": "address"
        },
        {
          "name": "_firstName",
          "type": "string"
        },
        {
          "name": "_lastName",
          "type": "string"
        },
        {
          "name": "_company",
          "type": "string"
        }
      ],
      "name": "setClient",
      "outputs": [],
      "payable": false,
      "stateMutability": "nonpayable",
      "type": "function"
    },
    {
      "constant": true,
      "inputs": [],
      "name": "getClients",
      "outputs": [
        {
          "name": "",
          "type": "address[]"
        }
      ],
      "payable": false,
      "stateMutability": "view",
      "type": "function"
    },
    {
      "constant": true,
      "inputs": [
        {
          "name": "_address",
          "type": "address"
        }
      ],
      "name": "getClient",
      "outputs": [
        {
          "name": "",
          "type": "string"
        },
        {
          "name": "",
          "type": "string"
        },
        {
          "name": "",
          "type": "string"
        }
      ],
      "payable": false,
      "stateMutability": "view",
      "type": "function"
    },
    {
      "constant": true,
      "inputs": [],
      "name": "countClients",
      "outputs": [
        {
          "name": "",
          "type": "uint256"
        }
      ],
      "payable": false,
      "stateMutability": "view",
      "type": "function"
    },
    {
      "constant": false,
      "inputs": [
        {
          "name": "_contractAddr",
          "type": "address"
        },
        {
          "name": "_rating",
          "type": "uint256"
        },
        {
          "name": "_comment",
          "type": "bytes32"
        },
        {
          "name": "_consultantAccount",
          "type": "address"
        },
        {
          "name": "_clientAccount",
          "type": "address"
        }
      ],
      "name": "setConsultantReview",
      "outputs": [],
      "payable": false,
      "stateMutability": "nonpayable",
      "type": "function"
    },
    {
      "constant": true,
      "inputs": [
        {
          "name": "_contractAddr",
          "type": "address"
        }
      ],
      "name": "getConsultantReview",
      "outputs": [
        {
          "name": "",
          "type": "uint256"
        },
        {
          "name": "",
          "type": "bytes32"
        },
        {
          "name": "",
          "type": "address"
        },
        {
          "name": "",
          "type": "address"
        }
      ],
      "payable": false,
      "stateMutability": "view",
      "type": "function"
    },
    {
      "constant": true,
      "inputs": [
        {
          "name": "_contractAddr",
          "type": "address"
        },
        {
          "name": "_clientAccount",
          "type": "address"
        }
      ],
      "name": "getConsultantsReviews",
      "outputs": [
        {
          "name": "",
          "type": "uint256[]"
        },
        {
          "name": "",
          "type": "bytes32[20]"
        },
        {
          "name": "",
          "type": "address[]"
        }
      ],
      "payable": false,
      "stateMutability": "view",
      "type": "function"
    },
    {
      "constant": true,
      "inputs": [
        {
          "name": "_contractAddr",
          "type": "address"
        },
        {
          "name": "_consultantAccount",
          "type": "address"
        },
        {
          "name": "_clientAccount",
          "type": "address"
        }
      ],
      "name": "getConsultantReviews",
      "outputs": [
        {
          "name": "",
          "type": "uint256[]"
        },
        {
          "name": "",
          "type": "bytes32[20]"
        }
      ],
      "payable": false,
      "stateMutability": "view",
      "type": "function"
    },
    {
      "constant": true,
      "inputs": [
        {
          "name": "_contractAddr",
          "type": "address"
        },
        {
          "name": "_clientAccount",
          "type": "address"
        }
      ],
      "name": "getClientFirstReview",
      "outputs": [
        {
          "name": "",
          "type": "uint256"
        },
        {
          "name": "",
          "type": "bytes32"
        }
      ],
      "payable": false,
      "stateMutability": "view",
      "type": "function"
    }
  ],
  "bytecode": "0x608060405234801561001057600080fd5b50336000806101000a81548173ffffffffffffffffffffffffffffffffffffffff021916908373ffffffffffffffffffffffffffffffffffffffff160217905550611735806100606000396000f3006080604052600436106100c5576000357c0100000000000000000000000000000000000000000000000000000000900463ffffffff1680631c1b6e87146100ca578063418cd139146101375780636db80995146101925780638463bcf5146101fe578063893d20e81461022957806390fb9d6514610280578063947720cd1461038757806394afdbae146103e25780639bd00f2b14610468578063a0e3287014610534578063a4efe535146106c8578063c7a1777314610763578063dc634d8d14610892575b600080fd5b3480156100d657600080fd5b506100f5600480360381019080803590602001909291905050506109a7565b604051808273ffffffffffffffffffffffffffffffffffffffff1673ffffffffffffffffffffffffffffffffffffffff16815260200191505060405180910390f35b34801561014357600080fd5b50610178600480360381019080803573ffffffffffffffffffffffffffffffffffffffff1690602001909291905050506109e5565b604051808215151515815260200191505060405180910390f35b34801561019e57600080fd5b506101a7610a88565b6040518080602001828103825283818151815260200191508051906020019060200280838360005b838110156101ea5780820151818401526020810190506101cf565b505050509050019250505060405180910390f35b34801561020a57600080fd5b50610213610b16565b6040518082815260200191505060405180910390f35b34801561023557600080fd5b5061023e610b7e565b604051808273ffffffffffffffffffffffffffffffffffffffff1673ffffffffffffffffffffffffffffffffffffffff16815260200191505060405180910390f35b34801561028c57600080fd5b50610301600480360381019080803573ffffffffffffffffffffffffffffffffffffffff169060200190929190803573ffffffffffffffffffffffffffffffffffffffff169060200190929190803573ffffffffffffffffffffffffffffffffffffffff169060200190929190505050610ba7565b604051808060200183601460200280838360005b83811015610330578082015181840152602081019050610315565b50505050905001828103825284818151815260200191508051906020019060200280838360005b83811015610372578082015181840152602081019050610357565b50505050905001935050505060405180910390f35b34801561039357600080fd5b506103c8600480360381019080803573ffffffffffffffffffffffffffffffffffffffff169060200190929190505050610d28565b604051808215151515815260200191505060405180910390f35b3480156103ee57600080fd5b50610443600480360381019080803573ffffffffffffffffffffffffffffffffffffffff169060200190929190803573ffffffffffffffffffffffffffffffffffffffff169060200190929190505050610dcb565b6040518083815260200182600019166000191681526020019250505060405180910390f35b34801561047457600080fd5b506104a9600480360381019080803573ffffffffffffffffffffffffffffffffffffffff169060200190929190505050610ebe565b6040518085815260200184600019166000191681526020018373ffffffffffffffffffffffffffffffffffffffff1673ffffffffffffffffffffffffffffffffffffffff1681526020018273ffffffffffffffffffffffffffffffffffffffff1673ffffffffffffffffffffffffffffffffffffffff16815260200194505050505060405180910390f35b34801561054057600080fd5b50610575600480360381019080803573ffffffffffffffffffffffffffffffffffffffff169060200190929190505050610f96565b60405180806020018060200180602001848103845287818151815260200191508051906020019080838360005b838110156105bd5780820151818401526020810190506105a2565b50505050905090810190601f1680156105ea5780820380516001836020036101000a031916815260200191505b50848103835286818151815260200191508051906020019080838360005b83811015610623578082015181840152602081019050610608565b50505050905090810190601f1680156106505780820380516001836020036101000a031916815260200191505b50848103825285818151815260200191508051906020019080838360005b8381101561068957808201518184015260208101905061066e565b50505050905090810190601f1680156106b65780820380516001836020036101000a031916815260200191505b50965050505050505060405180910390f35b3480156106d457600080fd5b50610761600480360381019080803573ffffffffffffffffffffffffffffffffffffffff169060200190929190803590602001909291908035600019169060200190929190803573ffffffffffffffffffffffffffffffffffffffff169060200190929190803573ffffffffffffffffffffffffffffffffffffffff169060200190929190505050611242565b005b34801561076f57600080fd5b506107c4600480360381019080803573ffffffffffffffffffffffffffffffffffffffff169060200190929190803573ffffffffffffffffffffffffffffffffffffffff16906020019092919050505061134e565b604051808060200184601460200280838360005b838110156107f35780820151818401526020810190506107d8565b5050505090500180602001838103835286818151815260200191508051906020019060200280838360005b8381101561083957808201518184015260208101905061081e565b50505050905001838103825284818151815260200191508051906020019060200280838360005b8381101561087b578082015181840152602081019050610860565b505050509050019550505050505060405180910390f35b34801561089e57600080fd5b506109a5600480360381019080803573ffffffffffffffffffffffffffffffffffffffff169060200190929190803590602001908201803590602001908080601f0160208091040260200160405190810160405280939291908181526020018383808284378201915050505050509192919290803590602001908201803590602001908080601f0160208091040260200160405190810160405280939291908181526020018383808284378201915050505050509192919290803590602001908201803590602001908080601f01602080910402602001604051908101604052809392919081815260200183838082843782019150505050505091929192905050506114f0565b005b6002818154811015156109b657fe5b906000526020600020016000915054906101000a900473ffffffffffffffffffffffffffffffffffffffff1681565b600080600090505b600280549050811015610a7d578273ffffffffffffffffffffffffffffffffffffffff16600282815481101515610a2057fe5b9060005260206000200160009054906101000a900473ffffffffffffffffffffffffffffffffffffffff1673ffffffffffffffffffffffffffffffffffffffff161415610a705760019150610a82565b80806001019150506109ed565b600091505b50919050565b60606002805480602002602001604051908101604052809291908181526020018280548015610b0c57602002820191906000526020600020905b8160009054906101000a900473ffffffffffffffffffffffffffffffffffffffff1673ffffffffffffffffffffffffffffffffffffffff1681526020019060010190808311610ac2575b5050505050905090565b60008060009054906101000a900473ffffffffffffffffffffffffffffffffffffffff1673ffffffffffffffffffffffffffffffffffffffff163373ffffffffffffffffffffffffffffffffffffffff16141515610b7357600080fd5b600280549050905090565b60008060009054906101000a900473ffffffffffffffffffffffffffffffffffffffff16905090565b6060610bb1611640565b60008590508073ffffffffffffffffffffffffffffffffffffffff16638640cc3485876040518363ffffffff167c0100000000000000000000000000000000000000000000000000000000028152600401808373ffffffffffffffffffffffffffffffffffffffff1673ffffffffffffffffffffffffffffffffffffffff1681526020018273ffffffffffffffffffffffffffffffffffffffff1673ffffffffffffffffffffffffffffffffffffffff16815260200192505050600060405180830381600087803b158015610c8557600080fd5b505af1158015610c99573d6000803e3d6000fd5b505050506040513d6000823e3d601f19601f820116820180604052506102a0811015610cc457600080fd5b810190808051640100000000811115610cdc57600080fd5b82810190506020810184811115610cf257600080fd5b8151856020820283011164010000000082111715610d0f57600080fd5b5050929190602001919050509250925050935093915050565b600080600090505b600280549050811015610dc0578273ffffffffffffffffffffffffffffffffffffffff16600282815481101515610d6357fe5b9060005260206000200160009054906101000a900473ffffffffffffffffffffffffffffffffffffffff1673ffffffffffffffffffffffffffffffffffffffff161415610db35760009150610dc5565b8080600101915050610d30565b600191505b50919050565b60008060008490508073ffffffffffffffffffffffffffffffffffffffff166322149c3a856040518263ffffffff167c0100000000000000000000000000000000000000000000000000000000028152600401808273ffffffffffffffffffffffffffffffffffffffff1673ffffffffffffffffffffffffffffffffffffffff1681526020019150506040805180830381600087803b158015610e6d57600080fd5b505af1158015610e81573d6000803e3d6000fd5b505050506040513d6040811015610e9757600080fd5b81019080805190602001909291908051906020019092919050505092509250509250929050565b60008060008060008590508073ffffffffffffffffffffffffffffffffffffffff1663a73a4aaf6040518163ffffffff167c0100000000000000000000000000000000000000000000000000000000028152600401608060405180830381600087803b158015610f2d57600080fd5b505af1158015610f41573d6000803e3d6000fd5b505050506040513d6080811015610f5757600080fd5b81019080805190602001909291908051906020019092919080519060200190929190805190602001909291905050509450945094509450509193509193565b6060806060600160008573ffffffffffffffffffffffffffffffffffffffff1673ffffffffffffffffffffffffffffffffffffffff168152602001908152602001600020600001600160008673ffffffffffffffffffffffffffffffffffffffff1673ffffffffffffffffffffffffffffffffffffffff168152602001908152602001600020600101600160008773ffffffffffffffffffffffffffffffffffffffff1673ffffffffffffffffffffffffffffffffffffffff168152602001908152602001600020600201828054600181600116156101000203166002900480601f0160208091040260200160405190810160405280929190818152602001828054600181600116156101000203166002900480156110f65780601f106110cb576101008083540402835291602001916110f6565b820191906000526020600020905b8154815290600101906020018083116110d957829003601f168201915b50505050509250818054600181600116156101000203166002900480601f0160208091040260200160405190810160405280929190818152602001828054600181600116156101000203166002900480156111925780601f1061116757610100808354040283529160200191611192565b820191906000526020600020905b81548152906001019060200180831161117557829003601f168201915b50505050509150808054600181600116156101000203166002900480601f01602080910402602001604051908101604052809291908181526020018280546001816001161561010002031660029004801561122e5780601f106112035761010080835404028352916020019161122e565b820191906000526020600020905b81548152906001019060200180831161121157829003601f168201915b505050505090509250925092509193909250565b60008590508073ffffffffffffffffffffffffffffffffffffffff1663e3619d5b868686866040518563ffffffff167c01000000000000000000000000000000000000000000000000000000000281526004018085815260200184600019166000191681526020018373ffffffffffffffffffffffffffffffffffffffff1673ffffffffffffffffffffffffffffffffffffffff1681526020018273ffffffffffffffffffffffffffffffffffffffff1673ffffffffffffffffffffffffffffffffffffffff168152602001945050505050600060405180830381600087803b15801561132e57600080fd5b505af1158015611342573d6000803e3d6000fd5b50505050505050505050565b6060611358611640565b606060008590508073ffffffffffffffffffffffffffffffffffffffff166338337562866040518263ffffffff167c0100000000000000000000000000000000000000000000000000000000028152600401808273ffffffffffffffffffffffffffffffffffffffff1673ffffffffffffffffffffffffffffffffffffffff168152602001915050600060405180830381600087803b1580156113fa57600080fd5b505af115801561140e573d6000803e3d6000fd5b505050506040513d6000823e3d601f19601f820116820180604052506102c081101561143957600080fd5b81019080805164010000000081111561145157600080fd5b8281019050602081018481111561146757600080fd5b815185602082028301116401000000008211171561148457600080fd5b50509291906020019190826102800180516401000000008111156114a757600080fd5b828101905060208101848111156114bd57600080fd5b81518560208202830111640100000000821117156114da57600080fd5b5050929190505050935093509350509250925092565b60006114fb85610d28565b1561163957600160008673ffffffffffffffffffffffffffffffffffffffff1673ffffffffffffffffffffffffffffffffffffffff168152602001908152602001600020905083816000019080519060200190611559929190611664565b5082816001019080519060200190611572929190611664565b508181600201908051906020019061158b929190611664565b50848160030160006101000a81548173ffffffffffffffffffffffffffffffffffffffff021916908373ffffffffffffffffffffffffffffffffffffffff160217905550600160028690806001815401808255809150509060018203906000526020600020016000909192909190916101000a81548173ffffffffffffffffffffffffffffffffffffffff021916908373ffffffffffffffffffffffffffffffffffffffff16021790555050505b5050505050565b61028060405190810160405280601490602082028038833980820191505090505090565b828054600181600116156101000203166002900490600052602060002090601f016020900481019282601f106116a557805160ff19168380011785556116d3565b828001600101855582156116d3579182015b828111156116d25782518255916020019190600101906116b7565b5b5090506116e091906116e4565b5090565b61170691905b808211156117025760008160009055506001016116ea565b5090565b905600a165627a7a723058207046937e7c86ad19eef77086070f369044ad47379dea9e5fad6fd5bd69d0383a0029",
  "source": "pragma solidity ^0.4.23;\n\nimport \"./Owned.sol\";\n\ncontract ClientContract is Owned{\n\n    struct Client {\n        string firstName;\n        string lastName; // change string to bytes16\n        string company;\n        address account;\n    }\n\n    mapping (address => Client) clients;\n    address[] public clientAccounts;\n\n    constructor() public { //Default constructor\n\n    }\n\n    function clientExist(address _address) public view returns(bool){\n        for (uint i = 0; i < clientAccounts.length; i++) {\n            if (clientAccounts[i] == _address)\n               return true;\n        }\n        return false;\n    }\n\t\n    function clientDoesNotExist(address _address) public view returns(bool){\n        for (uint i = 0; i < clientAccounts.length; i++) {\n            if (clientAccounts[i] == _address)\n               return false;\n        }\n        return true;\n\n    }\n\n    function setClient(address _address, string _firstName, string _lastName, string _company) public {\n\n        if(clientDoesNotExist(_address)){\n            Client storage client = clients[_address];\n\n            client.firstName = _firstName;\n            client.lastName = _lastName;\n            client.company = _company;\n            client.account = _address;\n\n            clientAccounts.push(_address) -1;\n        }\n    }\n\n    function getClients() public view returns(address[]){\n\n        return clientAccounts;\n    }\n\n\n    function getClient(address _address) public view returns (string, string, string){\n\n        return (clients[_address].firstName, clients[_address].lastName, clients[_address].company);\n    }\n\n    function countClients() public onlyOwner  view returns (uint){\n\n        return clientAccounts.length;\n    }\n\n\t// function setTestNumberOnReview(address _contractAddr, uint _number) returns(uint){\n\n\t// \tConsultantReviewContract crc = ConsultantReviewContract(_contractAddr);\n\t// \tcrc.setTestNumber(_number);\n\t// \treturn crc.getTestNumber();\n\t// }\n\n\n    // function getTestNumberOnReview(address _contractAddr) public view returns(uint){\n\n    //     ConsultantReviewContract crc = ConsultantReviewContract(_contractAddr);\n    //     uint getNumber = crc.getTestNumber();\n    //     return getNumber;\n\n    // }\n\n    // Send client address explicity in the function\n    function setConsultantReview(address _contractAddr, uint _rating, bytes32 _comment, address _consultantAccount, address _clientAccount) \n    \n    public{\n\n        ConsultantReviewContract crc = ConsultantReviewContract(_contractAddr);\n        crc.setReview(_rating, _comment, _consultantAccount,_clientAccount);\n    }\n\n    function getConsultantReview(address _contractAddr) public view returns(uint, bytes32, address, address){\n\n        ConsultantReviewContract crc = ConsultantReviewContract(_contractAddr);\n        return crc.getReview();\n\n    }\n\n    // All the reviews by this client to his/her consultants\n    // Check only authorized cleint can see the comments\n    function getConsultantsReviews(address _contractAddr, address _clientAccount) public view returns(uint[], bytes32[20], address[]){\n        \n        ConsultantReviewContract crc = ConsultantReviewContract(_contractAddr);\n        return crc.getConsultantsReviews(_clientAccount);\n    }\n\n\n    // All reviews of a particular consultant by the client\n    function getConsultantReviews(address _contractAddr, address _consultantAccount, address _clientAccount)   \n    public view returns(uint[], bytes32[20]){\n        ConsultantReviewContract crc = ConsultantReviewContract(_contractAddr);\n        return crc.getConsultantReviews(_clientAccount,_consultantAccount);\n    }\n\n    function getClientFirstReview(address _contractAddr, address _clientAccount)public view returns(uint, bytes32){\n        ConsultantReviewContract crc = ConsultantReviewContract(_contractAddr);\n        return crc.getClientFirstReviewNow(_clientAccount);\n    }\n\n}\n\n// Get consultant first review\n// change string to fixed sized bytes array\n\n\n\ncontract ConsultantReviewContract{\n\t\n    // function getTestNumber() public view returns(uint);\n    function getReview() public view returns(uint, bytes32, address, address);\n    // function setTestNumber(uint _testNumber);\n    function setReview(uint _rating, bytes32 _comment, address _consultantAccount, address _clientAccount) public;\n    function totalReviews() public returns (uint);\n    function getClientAccounts() public returns (address[]);\n    function getConsultantsReviews(address _clientAccount) public view returns(uint[], bytes32[20], address[]);\n    function getConsultantReviews(address _clientAccount, address _consultantAccount) public view returns(uint[], bytes32[20]);\n    function getClientFirstReviewNow(address _clientAccount) public view returns(uint, bytes32);\n\n}",
  "sourcePath": "/Users/usman/Documents/blockchain/review/contracts/ClientContract.sol",
  "compiler": {
    "name": "solc",
    "version": "0.4.24+commit.e67f0147.Emscripten.clang"
  },
  "schemaVersion": "2.0.1",
  "updatedAt": "2018-12-10T08:10:08.388Z"
}