{
  "contractName": "ClientContract",
  "abi": [
    {
      "constant": true,
      "inputs": [
        {
          "name": "",
          "type": "uint256"
        }
      ],
      "name": "clientAccounts",
      "outputs": [
        {
          "name": "",
          "type": "address"
        }
      ],
      "payable": false,
      "stateMutability": "view",
      "type": "function"
    },
    {
      "constant": true,
      "inputs": [],
      "name": "getOwner",
      "outputs": [
        {
          "name": "",
          "type": "address"
        }
      ],
      "payable": false,
      "stateMutability": "view",
      "type": "function"
    },
    {
      "inputs": [],
      "payable": false,
      "stateMutability": "nonpayable",
      "type": "constructor"
    },
    {
      "constant": true,
      "inputs": [
        {
          "name": "_address",
          "type": "address"
        }
      ],
      "name": "clientExist",
      "outputs": [
        {
          "name": "",
          "type": "bool"
        }
      ],
      "payable": false,
      "stateMutability": "view",
      "type": "function"
    },
    {
      "constant": true,
      "inputs": [
        {
          "name": "_address",
          "type": "address"
        }
      ],
      "name": "clientDoesNotExist",
      "outputs": [
        {
          "name": "",
          "type": "bool"
        }
      ],
      "payable": false,
      "stateMutability": "view",
      "type": "function"
    },
    {
      "constant": false,
      "inputs": [
        {
          "name": "_address",
          "type": "address"
        },
        {
          "name": "_firstName",
          "type": "string"
        },
        {
          "name": "_lastName",
          "type": "string"
        },
        {
          "name": "_company",
          "type": "string"
        }
      ],
      "name": "setClient",
      "outputs": [],
      "payable": false,
      "stateMutability": "nonpayable",
      "type": "function"
    },
    {
      "constant": true,
      "inputs": [],
      "name": "getClients",
      "outputs": [
        {
          "name": "",
          "type": "address[]"
        }
      ],
      "payable": false,
      "stateMutability": "view",
      "type": "function"
    },
    {
      "constant": true,
      "inputs": [
        {
          "name": "_address",
          "type": "address"
        }
      ],
      "name": "getClient",
      "outputs": [
        {
          "name": "",
          "type": "string"
        },
        {
          "name": "",
          "type": "string"
        },
        {
          "name": "",
          "type": "string"
        }
      ],
      "payable": false,
      "stateMutability": "view",
      "type": "function"
    },
    {
      "constant": true,
      "inputs": [],
      "name": "countClients",
      "outputs": [
        {
          "name": "",
          "type": "uint256"
        }
      ],
      "payable": false,
      "stateMutability": "view",
      "type": "function"
    },
    {
      "constant": false,
      "inputs": [
        {
          "name": "_contractAddr",
          "type": "address"
        },
        {
          "name": "_rating",
          "type": "uint256"
        },
        {
          "name": "_comment",
          "type": "string"
        },
        {
          "name": "_consultantAccount",
          "type": "address"
        },
        {
          "name": "_clientAccount",
          "type": "address"
        }
      ],
      "name": "setConsultantReview",
      "outputs": [],
      "payable": false,
      "stateMutability": "nonpayable",
      "type": "function"
    },
    {
      "constant": true,
      "inputs": [
        {
          "name": "_contractAddr",
          "type": "address"
        }
      ],
      "name": "getConsultantReview",
      "outputs": [
        {
          "name": "",
          "type": "uint256"
        },
        {
          "name": "",
          "type": "string"
        },
        {
          "name": "",
          "type": "address"
        },
        {
          "name": "",
          "type": "address"
        }
      ],
      "payable": false,
      "stateMutability": "view",
      "type": "function"
    },
    {
      "constant": false,
      "inputs": [
        {
          "name": "_contractAddr",
          "type": "address"
        },
        {
          "name": "_clientAccount",
          "type": "address"
        }
      ],
      "name": "getConsultantsReviews",
      "outputs": [
        {
          "name": "",
          "type": "uint256[]"
        },
        {
          "name": "",
          "type": "string[]"
        },
        {
          "name": "",
          "type": "address[]"
        }
      ],
      "payable": false,
      "stateMutability": "nonpayable",
      "type": "function"
    },
    {
      "constant": false,
      "inputs": [
        {
          "name": "_contractAddr",
          "type": "address"
        },
        {
          "name": "_consultantAccount",
          "type": "address"
        },
        {
          "name": "_clientAccount",
          "type": "address"
        }
      ],
      "name": "getConsultantReviews",
      "outputs": [
        {
          "name": "",
          "type": "uint256[]"
        },
        {
          "name": "",
          "type": "string[]"
        }
      ],
      "payable": false,
      "stateMutability": "nonpayable",
      "type": "function"
    }
  ],
  "bytecode": "0x608060405234801561001057600080fd5b50336000806101000a81548173ffffffffffffffffffffffffffffffffffffffff021916908373ffffffffffffffffffffffffffffffffffffffff1602179055506119b0806100606000396000f3006080604052600436106100b9576000357c0100000000000000000000000000000000000000000000000000000000900463ffffffff16806211d681146100be5780631c1b6e87146100e7578063418cd139146101245780636db80995146101615780638463bcf51461018c578063893d20e8146101b757806390fb9d65146101e2578063947720cd146102205780639bd00f2b1461025d578063a0e328701461029d578063c7a17773146102dc578063dc634d8d1461031b575b600080fd5b3480156100ca57600080fd5b506100e560048036036100e09190810190611197565b610344565b005b3480156100f357600080fd5b5061010e60048036036101099190810190611329565b6103de565b60405161011b919061158a565b60405180910390f35b34801561013057600080fd5b5061014b60048036036101469190810190611038565b61041c565b6040516101589190611673565b60405180910390f35b34801561016d57600080fd5b506101766104bf565b60405161018391906115ce565b60405180910390f35b34801561019857600080fd5b506101a161054d565b6040516101ae91906116da565b60405180910390f35b3480156101c357600080fd5b506101cc6105b5565b6040516101d9919061158a565b60405180910390f35b3480156101ee57600080fd5b506102096004803603610204919081019061109d565b6105de565b6040516102179291906115f0565b60405180910390f35b34801561022c57600080fd5b5061024760048036036102429190810190611038565b6106a1565b6040516102549190611673565b60405180910390f35b34801561026957600080fd5b50610284600480360361027f9190810190611038565b610744565b60405161029494939291906116f5565b60405180910390f35b3480156102a957600080fd5b506102c460048036036102bf9190810190611038565b610801565b6040516102d39392919061168e565b60405180910390f35b3480156102e857600080fd5b5061030360048036036102fe9190810190611061565b610aad565b60405161031293929190611627565b60405180910390f35b34801561032757600080fd5b50610342600480360361033d91908101906110ec565b610b71565b005b60008590508073ffffffffffffffffffffffffffffffffffffffff1663fe49cd42868686866040518563ffffffff167c01000000000000000000000000000000000000000000000000000000000281526004016103a494939291906116f5565b600060405180830381600087803b1580156103be57600080fd5b505af11580156103d2573d6000803e3d6000fd5b50505050505050505050565b6002818154811015156103ed57fe5b906000526020600020016000915054906101000a900473ffffffffffffffffffffffffffffffffffffffff1681565b600080600090505b6002805490508110156104b4578273ffffffffffffffffffffffffffffffffffffffff1660028281548110151561045757fe5b9060005260206000200160009054906101000a900473ffffffffffffffffffffffffffffffffffffffff1673ffffffffffffffffffffffffffffffffffffffff1614156104a757600191506104b9565b8080600101915050610424565b600091505b50919050565b6060600280548060200260200160405190810160405280929190818152602001828054801561054357602002820191906000526020600020905b8160009054906101000a900473ffffffffffffffffffffffffffffffffffffffff1673ffffffffffffffffffffffffffffffffffffffff16815260200190600101908083116104f9575b5050505050905090565b60008060009054906101000a900473ffffffffffffffffffffffffffffffffffffffff1673ffffffffffffffffffffffffffffffffffffffff163373ffffffffffffffffffffffffffffffffffffffff161415156105aa57600080fd5b600280549050905090565b60008060009054906101000a900473ffffffffffffffffffffffffffffffffffffffff16905090565b60608060008590508073ffffffffffffffffffffffffffffffffffffffff16638640cc3485876040518363ffffffff167c010000000000000000000000000000000000000000000000000000000002815260040161063d9291906115a5565b600060405180830381600087803b15801561065757600080fd5b505af115801561066b573d6000803e3d6000fd5b505050506040513d6000823e3d601f19601f820116820180604052506106949190810190611226565b9250925050935093915050565b600080600090505b600280549050811015610739578273ffffffffffffffffffffffffffffffffffffffff166002828154811015156106dc57fe5b9060005260206000200160009054906101000a900473ffffffffffffffffffffffffffffffffffffffff1673ffffffffffffffffffffffffffffffffffffffff16141561072c576000915061073e565b80806001019150506106a9565b600191505b50919050565b6000606060008060008590508073ffffffffffffffffffffffffffffffffffffffff1663a73a4aaf6040518163ffffffff167c0100000000000000000000000000000000000000000000000000000000028152600401600060405180830381600087803b1580156107b457600080fd5b505af11580156107c8573d6000803e3d6000fd5b505050506040513d6000823e3d601f19601f820116820180604052506107f19190810190611352565b9450945094509450509193509193565b6060806060600160008573ffffffffffffffffffffffffffffffffffffffff1673ffffffffffffffffffffffffffffffffffffffff168152602001908152602001600020600001600160008673ffffffffffffffffffffffffffffffffffffffff1673ffffffffffffffffffffffffffffffffffffffff168152602001908152602001600020600101600160008773ffffffffffffffffffffffffffffffffffffffff1673ffffffffffffffffffffffffffffffffffffffff168152602001908152602001600020600201828054600181600116156101000203166002900480601f0160208091040260200160405190810160405280929190818152602001828054600181600116156101000203166002900480156109615780601f1061093657610100808354040283529160200191610961565b820191906000526020600020905b81548152906001019060200180831161094457829003601f168201915b50505050509250818054600181600116156101000203166002900480601f0160208091040260200160405190810160405280929190818152602001828054600181600116156101000203166002900480156109fd5780601f106109d2576101008083540402835291602001916109fd565b820191906000526020600020905b8154815290600101906020018083116109e057829003601f168201915b50505050509150808054600181600116156101000203166002900480601f016020809104026020016040519081016040528092919081815260200182805460018160011615610100020316600290048015610a995780601f10610a6e57610100808354040283529160200191610a99565b820191906000526020600020905b815481529060010190602001808311610a7c57829003601f168201915b505050505090509250925092509193909250565b606080606060008590508073ffffffffffffffffffffffffffffffffffffffff166338337562866040518263ffffffff167c0100000000000000000000000000000000000000000000000000000000028152600401610b0c919061158a565b600060405180830381600087803b158015610b2657600080fd5b505af1158015610b3a573d6000803e3d6000fd5b505050506040513d6000823e3d601f19601f82011682018060405250610b639190810190611292565b935093509350509250925092565b6000610b7c856106a1565b15610cba57600160008673ffffffffffffffffffffffffffffffffffffffff1673ffffffffffffffffffffffffffffffffffffffff168152602001908152602001600020905083816000019080519060200190610bda929190610cc1565b5082816001019080519060200190610bf3929190610cc1565b5081816002019080519060200190610c0c929190610cc1565b50848160030160006101000a81548173ffffffffffffffffffffffffffffffffffffffff021916908373ffffffffffffffffffffffffffffffffffffffff160217905550600160028690806001815401808255809150509060018203906000526020600020016000909192909190916101000a81548173ffffffffffffffffffffffffffffffffffffffff021916908373ffffffffffffffffffffffffffffffffffffffff16021790555050505b5050505050565b828054600181600116156101000203166002900490600052602060002090601f016020900481019282601f10610d0257805160ff1916838001178555610d30565b82800160010185558215610d30579182015b82811115610d2f578251825591602001919060010190610d14565b5b509050610d3d9190610d41565b5090565b610d6391905b80821115610d5f576000816000905550600101610d47565b5090565b90565b6000610d7282356118f9565b905092915050565b6000610d8682516118f9565b905092915050565b600082601f8301121515610da157600080fd5b8151610db4610daf8261176e565b611741565b91508181835260208401935060208101905083856020840282011115610dd957600080fd5b60005b83811015610e095781610def8882610d7a565b845260208401935060208301925050600181019050610ddc565b5050505092915050565b600082601f8301121515610e2657600080fd5b8151610e39610e3482611796565b611741565b9150818183526020840193506020810190508360005b83811015610e7f5781518601610e658882610f0e565b845260208401935060208301925050600181019050610e4f565b5050505092915050565b600082601f8301121515610e9c57600080fd5b8151610eaf610eaa826117be565b611741565b91508181835260208401935060208101905083856020840282011115610ed457600080fd5b60005b83811015610f045781610eea8882611024565b845260208401935060208301925050600181019050610ed7565b5050505092915050565b600082601f8301121515610f2157600080fd5b8151610f34610f2f826117e6565b611741565b91508082526020830160208301858383011115610f5057600080fd5b610f5b838284611932565b50505092915050565b600082601f8301121515610f7757600080fd5b8135610f8a610f8582611812565b611741565b91508082526020830160208301858383011115610fa657600080fd5b610fb1838284611923565b50505092915050565b600082601f8301121515610fcd57600080fd5b8151610fe0610fdb82611812565b611741565b91508082526020830160208301858383011115610ffc57600080fd5b611007838284611932565b50505092915050565b600061101c8235611919565b905092915050565b60006110308251611919565b905092915050565b60006020828403121561104a57600080fd5b600061105884828501610d66565b91505092915050565b6000806040838503121561107457600080fd5b600061108285828601610d66565b925050602061109385828601610d66565b9150509250929050565b6000806000606084860312156110b257600080fd5b60006110c086828701610d66565b93505060206110d186828701610d66565b92505060406110e286828701610d66565b9150509250925092565b6000806000806080858703121561110257600080fd5b600061111087828801610d66565b945050602085013567ffffffffffffffff81111561112d57600080fd5b61113987828801610f64565b935050604085013567ffffffffffffffff81111561115657600080fd5b61116287828801610f64565b925050606085013567ffffffffffffffff81111561117f57600080fd5b61118b87828801610f64565b91505092959194509250565b600080600080600060a086880312156111af57600080fd5b60006111bd88828901610d66565b95505060206111ce88828901611010565b945050604086013567ffffffffffffffff8111156111eb57600080fd5b6111f788828901610f64565b935050606061120888828901610d66565b925050608061121988828901610d66565b9150509295509295909350565b6000806040838503121561123957600080fd5b600083015167ffffffffffffffff81111561125357600080fd5b61125f85828601610e89565b925050602083015167ffffffffffffffff81111561127c57600080fd5b61128885828601610e13565b9150509250929050565b6000806000606084860312156112a757600080fd5b600084015167ffffffffffffffff8111156112c157600080fd5b6112cd86828701610e89565b935050602084015167ffffffffffffffff8111156112ea57600080fd5b6112f686828701610e13565b925050604084015167ffffffffffffffff81111561131357600080fd5b61131f86828701610d8e565b9150509250925092565b60006020828403121561133b57600080fd5b600061134984828501611010565b91505092915050565b6000806000806080858703121561136857600080fd5b600061137687828801611024565b945050602085015167ffffffffffffffff81111561139357600080fd5b61139f87828801610fba565b93505060406113b087828801610d7a565b92505060606113c187828801610d7a565b91505092959194509250565b6113d6816118c3565b82525050565b60006113e782611865565b8084526020840193506113f98361183e565b60005b8281101561142b5761140f8683516113cd565b6114188261189c565b91506020860195506001810190506113fc565b50849250505092915050565b600061144282611870565b8084526020840193508360208202850161145b8561184b565b60005b84811015611494578383038852611476838351611545565b9250611481826118a9565b915060208801975060018101905061145e565b508196508694505050505092915050565b60006114b08261187b565b8084526020840193506114c283611858565b60005b828110156114f4576114d886835161157b565b6114e1826118b6565b91506020860195506001810190506114c5565b50849250505092915050565b611509816118e3565b82525050565b600061151a82611891565b80845261152e816020860160208601611932565b61153781611965565b602085010191505092915050565b600061155082611886565b808452611564816020860160208601611932565b61156d81611965565b602085010191505092915050565b611584816118ef565b82525050565b600060208201905061159f60008301846113cd565b92915050565b60006040820190506115ba60008301856113cd565b6115c760208301846113cd565b9392505050565b600060208201905081810360008301526115e881846113dc565b905092915050565b6000604082019050818103600083015261160a81856114a5565b9050818103602083015261161e8184611437565b90509392505050565b6000606082019050818103600083015261164181866114a5565b905081810360208301526116558185611437565b9050818103604083015261166981846113dc565b9050949350505050565b60006020820190506116886000830184611500565b92915050565b600060608201905081810360008301526116a8818661150f565b905081810360208301526116bc818561150f565b905081810360408301526116d0818461150f565b9050949350505050565b60006020820190506116ef600083018461157b565b92915050565b600060808201905061170a600083018761157b565b818103602083015261171c818661150f565b905061172b60408301856113cd565b61173860608301846113cd565b95945050505050565b6000604051905081810181811067ffffffffffffffff8211171561176457600080fd5b8060405250919050565b600067ffffffffffffffff82111561178557600080fd5b602082029050602081019050919050565b600067ffffffffffffffff8211156117ad57600080fd5b602082029050602081019050919050565b600067ffffffffffffffff8211156117d557600080fd5b602082029050602081019050919050565b600067ffffffffffffffff8211156117fd57600080fd5b601f19601f8301169050602081019050919050565b600067ffffffffffffffff82111561182957600080fd5b601f19601f8301169050602081019050919050565b6000602082019050919050565b6000602082019050919050565b6000602082019050919050565b600081519050919050565b600081519050919050565b600081519050919050565b600081519050919050565b600081519050919050565b6000602082019050919050565b6000602082019050919050565b6000602082019050919050565b600073ffffffffffffffffffffffffffffffffffffffff82169050919050565b60008115159050919050565b6000819050919050565b600073ffffffffffffffffffffffffffffffffffffffff82169050919050565b6000819050919050565b82818337600083830152505050565b60005b83811015611950578082015181840152602081019050611935565b8381111561195f576000848401525b50505050565b6000601f19601f83011690509190505600a265627a7a72305820b47282dca0169c3a2894f566ae9a76369279afeedf46cf3f9afa8924305418c86c6578706572696d656e74616cf50037",
  "source": "pragma experimental ABIEncoderV2;\npragma solidity ^0.4.23;\n\nimport \"./Owned.sol\";\n\ncontract ClientContract is Owned{\n\n    struct Client {\n        string firstName;\n        string lastName; // change string to bytes16\n        string company;\n        address account;\n    }\n\n    mapping (address => Client) clients;\n    address[] public clientAccounts;\n\n    constructor() public { //Default constructor\n\n    }\n\n    function clientExist(address _address) public view returns(bool){\n        for (uint i = 0; i < clientAccounts.length; i++) {\n            if (clientAccounts[i] == _address)\n               return true;\n        }\n        return false;\n    }\n\t\n    function clientDoesNotExist(address _address) public view returns(bool){\n        for (uint i = 0; i < clientAccounts.length; i++) {\n            if (clientAccounts[i] == _address)\n               return false;\n        }\n        return true;\n\n    }\n\n    function setClient(address _address, string _firstName, string _lastName, string _company) public {\n\n        if(clientDoesNotExist(_address)){\n            Client storage client = clients[_address];\n\n            client.firstName = _firstName;\n            client.lastName = _lastName;\n            client.company = _company;\n            client.account = _address;\n\n            clientAccounts.push(_address) -1;\n        }\n    }\n\n    function getClients() public view returns(address[]){\n\n        return clientAccounts;\n    }\n\n\n    function getClient(address _address) public view returns (string, string, string){\n\n        return (clients[_address].firstName, clients[_address].lastName, clients[_address].company);\n    }\n\n    function countClients() public onlyOwner  view returns (uint){\n\n        return clientAccounts.length;\n    }\n\n\t// function setTestNumberOnReview(address _contractAddr, uint _number) returns(uint){\n\n\t// \tConsultantReviewContract crc = ConsultantReviewContract(_contractAddr);\n\t// \tcrc.setTestNumber(_number);\n\t// \treturn crc.getTestNumber();\n\t// }\n\n\n    // function getTestNumberOnReview(address _contractAddr) public view returns(uint){\n\n    //     ConsultantReviewContract crc = ConsultantReviewContract(_contractAddr);\n    //     uint getNumber = crc.getTestNumber();\n    //     return getNumber;\n\n    // }\n\n    // Send client address explicity in the function\n    function setConsultantReview(address _contractAddr, uint _rating, string _comment, address _consultantAccount, address _clientAccount) \n    \n    public{\n\n        ConsultantReviewContract crc = ConsultantReviewContract(_contractAddr);\n        crc.setReview(_rating, _comment, _consultantAccount,_clientAccount);\n    }\n\n    function getConsultantReview(address _contractAddr) public view returns(uint, string, address, address){\n\n        ConsultantReviewContract crc = ConsultantReviewContract(_contractAddr);\n        return crc.getReview();\n\n    }\n\n    // All the reviews by this client to his/her consultants\n    // Check only authorized cleint can see the comments\n    function getConsultantsReviews(address _contractAddr, address _clientAccount) public returns(uint[], string[], address[]){\n        \n        ConsultantReviewContract crc = ConsultantReviewContract(_contractAddr);\n        return crc.getConsultantsReviews(_clientAccount);\n    }\n\n\n    // All reviews of a particular consultant by the client\n    function getConsultantReviews(address _contractAddr, address _consultantAccount, address _clientAccount) public returns(uint[], string[]){\n        ConsultantReviewContract crc = ConsultantReviewContract(_contractAddr);\n        return crc.getConsultantReviews(_clientAccount,_consultantAccount);\n    }\n\n}\n\n\ncontract ConsultantReviewContract{\n\t\n    function getReview() public view returns(uint, string, address, address);\n    function setReview(uint _rating, string _comment, address _consultantAccount, address _clientAccount) public;\n    function totalReviews() public returns (uint);\n    function getClientAccounts() public returns (address[]);\n    function getConsultantsReviews(address _clientAccount) public returns(uint[], string[], address[]);\n    function getConsultantReviews(address _clientAccount, address _consultantAccount) public  returns(uint[], string[]);\n\n}",
  "sourcePath": "/Users/usman/Documents/blockchain/review/contracts/ClientContract.sol",
  "compiler": {
    "name": "solc",
    "version": "0.4.24+commit.e67f0147.Emscripten.clang"
  },
  "schemaVersion": "2.0.1",
  "updatedAt": "2018-12-06T11:16:46.289Z"
}