{
  "contractName": "ClientReviewContract",
  "abi": [
    {
      "constant": true,
      "inputs": [
        {
          "name": "",
          "type": "uint256"
        }
      ],
      "name": "consultantAccounts",
      "outputs": [
        {
          "name": "",
          "type": "address"
        }
      ],
      "payable": false,
      "stateMutability": "view",
      "type": "function"
    },
    {
      "constant": true,
      "inputs": [
        {
          "name": "",
          "type": "uint256"
        }
      ],
      "name": "reviewsArray",
      "outputs": [
        {
          "name": "rating",
          "type": "uint256"
        },
        {
          "name": "comment",
          "type": "bytes32"
        },
        {
          "name": "consultantAccount",
          "type": "address"
        },
        {
          "name": "clientAccount",
          "type": "address"
        }
      ],
      "payable": false,
      "stateMutability": "view",
      "type": "function"
    },
    {
      "inputs": [],
      "payable": false,
      "stateMutability": "nonpayable",
      "type": "constructor"
    },
    {
      "anonymous": false,
      "inputs": [
        {
          "indexed": false,
          "name": "rating",
          "type": "uint256"
        },
        {
          "indexed": false,
          "name": "comment",
          "type": "bytes32"
        },
        {
          "indexed": false,
          "name": "consultantAccount",
          "type": "address"
        },
        {
          "indexed": false,
          "name": "clientAccount",
          "type": "address"
        }
      ],
      "name": "ClientReviewEvent",
      "type": "event"
    },
    {
      "constant": false,
      "inputs": [
        {
          "name": "_rating",
          "type": "uint256"
        },
        {
          "name": "_comment",
          "type": "bytes32"
        },
        {
          "name": "_clientAccount",
          "type": "address"
        },
        {
          "name": "_consultantAccount",
          "type": "address"
        }
      ],
      "name": "setReview",
      "outputs": [],
      "payable": false,
      "stateMutability": "nonpayable",
      "type": "function"
    },
    {
      "constant": true,
      "inputs": [],
      "name": "getReview",
      "outputs": [
        {
          "name": "",
          "type": "uint256"
        },
        {
          "name": "",
          "type": "bytes32"
        },
        {
          "name": "",
          "type": "address"
        },
        {
          "name": "",
          "type": "address"
        }
      ],
      "payable": false,
      "stateMutability": "view",
      "type": "function"
    },
    {
      "constant": true,
      "inputs": [],
      "name": "totalReviews",
      "outputs": [
        {
          "name": "",
          "type": "uint256"
        }
      ],
      "payable": false,
      "stateMutability": "view",
      "type": "function"
    },
    {
      "constant": true,
      "inputs": [],
      "name": "getConsultantAccounts",
      "outputs": [
        {
          "name": "",
          "type": "address[]"
        }
      ],
      "payable": false,
      "stateMutability": "view",
      "type": "function"
    },
    {
      "constant": true,
      "inputs": [
        {
          "name": "_consultantAccount",
          "type": "address"
        }
      ],
      "name": "getClientsReviews",
      "outputs": [
        {
          "name": "",
          "type": "uint256[]"
        },
        {
          "name": "",
          "type": "bytes32[20]"
        },
        {
          "name": "",
          "type": "address[]"
        }
      ],
      "payable": false,
      "stateMutability": "view",
      "type": "function"
    },
    {
      "constant": true,
      "inputs": [
        {
          "name": "_consultantAccount",
          "type": "address"
        },
        {
          "name": "_clientAccount",
          "type": "address"
        }
      ],
      "name": "getClientReviews",
      "outputs": [
        {
          "name": "",
          "type": "uint256[]"
        },
        {
          "name": "",
          "type": "bytes32[20]"
        }
      ],
      "payable": false,
      "stateMutability": "view",
      "type": "function"
    },
    {
      "constant": true,
      "inputs": [
        {
          "name": "_consultantAccount",
          "type": "address"
        }
      ],
      "name": "getConsultantFirstReviewNow",
      "outputs": [
        {
          "name": "",
          "type": "uint256"
        },
        {
          "name": "",
          "type": "bytes32"
        }
      ],
      "payable": false,
      "stateMutability": "view",
      "type": "function"
    }
  ],
  "bytecode": "0x608060405234801561001057600080fd5b5061108a806100206000396000f300608060405260043610610099576000357c0100000000000000000000000000000000000000000000000000000000900463ffffffff16806340c7920a1461009e578063952fa1ef1461010a5780639678a0ae14610177578063a73a4aaf14610286578063cf4a25ef14610326578063df226c381461038c578063e236789014610473578063e3619d5b1461049e578063f0d4779914610519575b600080fd5b3480156100aa57600080fd5b506100b36105cf565b6040518080602001828103825283818151815260200191508051906020019060200280838360005b838110156100f65780820151818401526020810190506100db565b505050509050019250505060405180910390f35b34801561011657600080fd5b506101356004803603810190808035906020019092919050505061065d565b604051808273ffffffffffffffffffffffffffffffffffffffff1673ffffffffffffffffffffffffffffffffffffffff16815260200191505060405180910390f35b34801561018357600080fd5b506101b8600480360381019080803573ffffffffffffffffffffffffffffffffffffffff16906020019092919050505061069b565b604051808060200184601460200280838360005b838110156101e75780820151818401526020810190506101cc565b5050505090500180602001838103835286818151815260200191508051906020019060200280838360005b8381101561022d578082015181840152602081019050610212565b50505050905001838103825284818151815260200191508051906020019060200280838360005b8381101561026f578082015181840152602081019050610254565b505050509050019550505050505060405180910390f35b34801561029257600080fd5b5061029b6108da565b6040518085815260200184600019166000191681526020018373ffffffffffffffffffffffffffffffffffffffff1673ffffffffffffffffffffffffffffffffffffffff1681526020018273ffffffffffffffffffffffffffffffffffffffff1673ffffffffffffffffffffffffffffffffffffffff16815260200194505050505060405180910390f35b34801561033257600080fd5b50610367600480360381019080803573ffffffffffffffffffffffffffffffffffffffff1690602001909291905050506109b6565b6040518083815260200182600019166000191681526020019250505060405180910390f35b34801561039857600080fd5b506103ed600480360381019080803573ffffffffffffffffffffffffffffffffffffffff169060200190929190803573ffffffffffffffffffffffffffffffffffffffff169060200190929190505050610aaa565b604051808060200183601460200280838360005b8381101561041c578082015181840152602081019050610401565b50505050905001828103825284818151815260200191508051906020019060200280838360005b8381101561045e578082015181840152602081019050610443565b50505050905001935050505060405180910390f35b34801561047f57600080fd5b50610488610c9b565b6040518082815260200191505060405180910390f35b3480156104aa57600080fd5b50610517600480360381019080803590602001909291908035600019169060200190929190803573ffffffffffffffffffffffffffffffffffffffff169060200190929190803573ffffffffffffffffffffffffffffffffffffffff169060200190929190505050610ca8565b005b34801561052557600080fd5b5061054460048036038101908080359060200190929190505050610fbb565b6040518085815260200184600019166000191681526020018373ffffffffffffffffffffffffffffffffffffffff1673ffffffffffffffffffffffffffffffffffffffff1681526020018273ffffffffffffffffffffffffffffffffffffffff1673ffffffffffffffffffffffffffffffffffffffff16815260200194505050505060405180910390f35b6060600180548060200260200160405190810160405280929190818152602001828054801561065357602002820191906000526020600020905b8160009054906101000a900473ffffffffffffffffffffffffffffffffffffffff1673ffffffffffffffffffffffffffffffffffffffff1681526020019060010190808311610609575b5050505050905090565b60018181548110151561066c57fe5b906000526020600020016000915054906101000a900473ffffffffffffffffffffffffffffffffffffffff1681565b60606106a561103a565b6060806106b061103a565b6060600080600a6040519080825280602002602001820160405280156106e55781602001602082028038833980820191505090505b509450600a6040519080825280602002602001820160405280156107185781602001602082028038833980820191505090505b50925060009150600090505b6002805490508110156108c5578873ffffffffffffffffffffffffffffffffffffffff1660028281548110151561075757fe5b906000526020600020906004020160020160009054906101000a900473ffffffffffffffffffffffffffffffffffffffff1673ffffffffffffffffffffffffffffffffffffffff1614156108b8576002818154811015156107b457fe5b90600052602060002090600402016000015485838151811015156107d457fe5b90602001906020020181815250506002818154811015156107f157fe5b906000526020600020906004020160010154848360148110151561081157fe5b6020020190600019169081600019168152505060028181548110151561083357fe5b906000526020600020906004020160030160009054906101000a900473ffffffffffffffffffffffffffffffffffffffff16838381518110151561087357fe5b9060200190602002019073ffffffffffffffffffffffffffffffffffffffff16908173ffffffffffffffffffffffffffffffffffffffff168152505081806001019250505b8080600101915050610724565b84848497509750975050505050509193909250565b600080600080600260008154811015156108f057fe5b9060005260206000209060040201600001546002600081548110151561091257fe5b9060005260206000209060040201600101546002600081548110151561093457fe5b906000526020600020906004020160030160009054906101000a900473ffffffffffffffffffffffffffffffffffffffff166002600081548110151561097657fe5b906000526020600020906004020160020160009054906101000a900473ffffffffffffffffffffffffffffffffffffffff16935093509350935090919293565b60008060008090505b600280549050811015610a98578373ffffffffffffffffffffffffffffffffffffffff166002828154811015156109f257fe5b906000526020600020906004020160020160009054906101000a900473ffffffffffffffffffffffffffffffffffffffff1673ffffffffffffffffffffffffffffffffffffffff161415610a8b57600281815481101515610a4f57fe5b906000526020600020906004020160000154600282815481101515610a7057fe5b90600052602060002090600402016001015492509250610aa4565b80806001019150506109bf565b60008090506000925092505b50915091565b6060610ab461103a565b6060610abe61103a565b600080600a604051908082528060200260200182016040528015610af15781602001602082028038833980820191505090505b50935060009150600090505b600280549050811015610c8a578773ffffffffffffffffffffffffffffffffffffffff16600282815481101515610b3057fe5b906000526020600020906004020160020160009054906101000a900473ffffffffffffffffffffffffffffffffffffffff1673ffffffffffffffffffffffffffffffffffffffff16148015610bf057508673ffffffffffffffffffffffffffffffffffffffff16600282815481101515610ba657fe5b906000526020600020906004020160030160009054906101000a900473ffffffffffffffffffffffffffffffffffffffff1673ffffffffffffffffffffffffffffffffffffffff16145b15610c7d57600281815481101515610c0457fe5b9060005260206000209060040201600001548483815181101515610c2457fe5b9060200190602002018181525050600281815481101515610c4157fe5b9060005260206000209060040201600101548383601481101515610c6157fe5b6020020190600019169081600019168152505081806001019250505b8080600101915050610afd565b838395509550505050509250929050565b6000600280549050905090565b60008060008373ffffffffffffffffffffffffffffffffffffffff1673ffffffffffffffffffffffffffffffffffffffff168152602001908152602001600020905084816000018190555083816001018160001916905550828160030160006101000a81548173ffffffffffffffffffffffffffffffffffffffff021916908373ffffffffffffffffffffffffffffffffffffffff160217905550818160020160006101000a81548173ffffffffffffffffffffffffffffffffffffffff021916908373ffffffffffffffffffffffffffffffffffffffff1602179055506002819080600181540180825580915050906001820390600052602060002090600402016000909192909190915060008201548160000155600182015481600101906000191690556002820160009054906101000a900473ffffffffffffffffffffffffffffffffffffffff168160020160006101000a81548173ffffffffffffffffffffffffffffffffffffffff021916908373ffffffffffffffffffffffffffffffffffffffff1602179055506003820160009054906101000a900473ffffffffffffffffffffffffffffffffffffffff168160030160006101000a81548173ffffffffffffffffffffffffffffffffffffffff021916908373ffffffffffffffffffffffffffffffffffffffff16021790555050505060018290806001815401808255809150509060018203906000526020600020016000909192909190916101000a81548173ffffffffffffffffffffffffffffffffffffffff021916908373ffffffffffffffffffffffffffffffffffffffff160217905550507fb1c4b674b9589dd8a569429ab7983345d251f70471f7d0b56a053af58fbe46c5858584866040518085815260200184600019166000191681526020018373ffffffffffffffffffffffffffffffffffffffff1673ffffffffffffffffffffffffffffffffffffffff1681526020018273ffffffffffffffffffffffffffffffffffffffff1673ffffffffffffffffffffffffffffffffffffffff16815260200194505050505060405180910390a15050505050565b600281815481101515610fca57fe5b90600052602060002090600402016000915090508060000154908060010154908060020160009054906101000a900473ffffffffffffffffffffffffffffffffffffffff16908060030160009054906101000a900473ffffffffffffffffffffffffffffffffffffffff16905084565b610280604051908101604052806014906020820280388339808201915050905050905600a165627a7a723058203e021b15c2e9dfb6368c2f713b77777670dd694a197b1e93fbb72614ef5558fc0029",
  "source": "pragma solidity ^0.4.23;\n\n\ncontract ClientReviewContract{\n\t\n    struct Review{\n        uint rating;\n        bytes32 comment;\n        address consultantAccount;\n        address clientAccount;\n\n    }\n\n    mapping (address => Review) reviews;\n    address[] public consultantAccounts;\n    Review[] public reviewsArray;\n\n    constructor() public{\n\t// Basic constructor for the contract\n    }\n\n    event ClientReviewEvent(\n        uint rating,\n        bytes32 comment,\n        address consultantAccount,\n        address clientAccount\n    );\n\n    function setReview(uint _rating, bytes32 _comment, address _clientAccount, address _consultantAccount) public {\n\n        Review storage review = reviews[_consultantAccount];\n\n        review.rating = _rating;\n        review.comment = _comment;\n        review.clientAccount = _clientAccount;\n        review.consultantAccount = _consultantAccount;\n\n        reviewsArray.push(review);\n        consultantAccounts.push(_consultantAccount);\n\n        emit ClientReviewEvent(_rating, _comment, _consultantAccount, _clientAccount);\n\n    }\n\n    // Need to have multiple reviews retrivals \n    // 1) client's review\n    // 2) client with specific consultant review \n    // 3) All reviews\n\n    function getReview() public view returns(uint, bytes32, address, address){\n        \n        return(reviewsArray[0].rating, reviewsArray[0].comment, reviewsArray[0].clientAccount, reviewsArray[0].consultantAccount);\n    }\n\n    function totalReviews() public view returns (uint){\n        return reviewsArray.length;\n    }\n\n    function getConsultantAccounts() public view returns (address[]){\n        return consultantAccounts;\n    }\n\n    function getClientsReviews(address _consultantAccount) public view returns(uint[], bytes32[20], address[]){\n\n        uint[] memory _ratings = new uint[](10);\n        bytes32[20] memory _comments;\n        address[] memory _clientAccounts = new address[](10);\n        uint counter = 0; \n\n\n        for (uint i = 0; i < reviewsArray.length; i++) {\n            if (reviewsArray[i].consultantAccount == _consultantAccount){\n                _ratings[counter] = reviewsArray[i].rating;\n                _comments[counter] = reviewsArray[i].comment;\n                _clientAccounts[counter] = reviewsArray[i].clientAccount;\n                counter++;\n            }\n        }\n        return (_ratings, _comments, _clientAccounts);\n\n    }\n\n    // We might need event on this side aswell, will take a look\n    function getClientReviews(address _consultantAccount, address _clientAccount) public view returns(uint[], bytes32[20]){\n\n        uint[] memory _ratings = new uint[](10);\n        bytes32[20] memory _comments;\n        uint counter = 0; \n\n        for (uint i = 0; i < reviewsArray.length; i++) {\n            if (reviewsArray[i].consultantAccount == _consultantAccount && reviewsArray[i].clientAccount == _clientAccount){\n                _ratings[counter] = reviewsArray[i].rating;\n                _comments[counter] = reviewsArray[i].comment;\n                counter++;\n            }\n        }\n        return (_ratings, _comments);\n\n    }\n\n\n    function getConsultantFirstReviewNow(address _consultantAccount) public view returns(uint, bytes32){\n        \n        for(uint i = 0; i < reviewsArray.length; i++){\n            if (reviewsArray[i].consultantAccount == _consultantAccount){\n                return(reviewsArray[i].rating,reviewsArray[i].comment);  \n            }\n        }\n        return(0,\"\");\n    }\n\n\n    \n}",
  "sourcePath": "/Users/usman/Documents/blockchain/review/contracts/ClientReviewContract.sol",
  "compiler": {
    "name": "solc",
    "version": "0.4.24+commit.e67f0147.Emscripten.clang"
  },
  "schemaVersion": "2.0.1",
  "updatedAt": "2019-01-15T08:22:49.770Z"
}