{
  "contractName": "ClientContract",
  "abi": [
    {
      "constant": true,
      "inputs": [
        {
          "name": "",
          "type": "uint256"
        }
      ],
      "name": "clientAccounts",
      "outputs": [
        {
          "name": "",
          "type": "address"
        }
      ],
      "payable": false,
      "stateMutability": "view",
      "type": "function"
    },
    {
      "constant": true,
      "inputs": [],
      "name": "getOwner",
      "outputs": [
        {
          "name": "",
          "type": "address"
        }
      ],
      "payable": false,
      "stateMutability": "view",
      "type": "function"
    },
    {
      "inputs": [],
      "payable": false,
      "stateMutability": "nonpayable",
      "type": "constructor"
    },
    {
      "anonymous": false,
      "inputs": [
        {
          "indexed": false,
          "name": "firstName",
          "type": "string"
        },
        {
          "indexed": false,
          "name": "lastName",
          "type": "string"
        },
        {
          "indexed": false,
          "name": "company",
          "type": "string"
        },
        {
          "indexed": false,
          "name": "account",
          "type": "address"
        }
      ],
      "name": "ClientEvent",
      "type": "event"
    },
    {
      "anonymous": false,
      "inputs": [
        {
          "indexed": false,
          "name": "message",
          "type": "string"
        }
      ],
      "name": "ClientAlreadyExistsEvent",
      "type": "event"
    },
    {
      "constant": true,
      "inputs": [
        {
          "name": "_address",
          "type": "address"
        }
      ],
      "name": "clientExist",
      "outputs": [
        {
          "name": "",
          "type": "bool"
        }
      ],
      "payable": false,
      "stateMutability": "view",
      "type": "function"
    },
    {
      "constant": true,
      "inputs": [
        {
          "name": "_address",
          "type": "address"
        }
      ],
      "name": "clientDoesNotExist",
      "outputs": [
        {
          "name": "",
          "type": "bool"
        }
      ],
      "payable": false,
      "stateMutability": "view",
      "type": "function"
    },
    {
      "constant": false,
      "inputs": [
        {
          "name": "_firstName",
          "type": "string"
        },
        {
          "name": "_lastName",
          "type": "string"
        },
        {
          "name": "_company",
          "type": "string"
        }
      ],
      "name": "setClient",
      "outputs": [],
      "payable": false,
      "stateMutability": "nonpayable",
      "type": "function"
    },
    {
      "constant": true,
      "inputs": [],
      "name": "getClients",
      "outputs": [
        {
          "name": "",
          "type": "address[]"
        }
      ],
      "payable": false,
      "stateMutability": "view",
      "type": "function"
    },
    {
      "constant": true,
      "inputs": [],
      "name": "getClient",
      "outputs": [
        {
          "name": "",
          "type": "string"
        },
        {
          "name": "",
          "type": "string"
        },
        {
          "name": "",
          "type": "string"
        }
      ],
      "payable": false,
      "stateMutability": "view",
      "type": "function"
    },
    {
      "constant": true,
      "inputs": [],
      "name": "countClients",
      "outputs": [
        {
          "name": "",
          "type": "uint256"
        }
      ],
      "payable": false,
      "stateMutability": "view",
      "type": "function"
    },
    {
      "constant": false,
      "inputs": [
        {
          "name": "_contractAddr",
          "type": "address"
        },
        {
          "name": "_rating",
          "type": "uint256"
        },
        {
          "name": "_comment",
          "type": "bytes32"
        },
        {
          "name": "_consultantAccount",
          "type": "address"
        }
      ],
      "name": "setConsultantReview",
      "outputs": [],
      "payable": false,
      "stateMutability": "nonpayable",
      "type": "function"
    },
    {
      "constant": true,
      "inputs": [
        {
          "name": "_contractAddr",
          "type": "address"
        }
      ],
      "name": "getConsultantReview",
      "outputs": [
        {
          "name": "",
          "type": "uint256"
        },
        {
          "name": "",
          "type": "bytes32"
        },
        {
          "name": "",
          "type": "address"
        },
        {
          "name": "",
          "type": "address"
        }
      ],
      "payable": false,
      "stateMutability": "view",
      "type": "function"
    },
    {
      "constant": true,
      "inputs": [
        {
          "name": "_contractAddr",
          "type": "address"
        }
      ],
      "name": "getConsultantsReviews",
      "outputs": [
        {
          "name": "",
          "type": "uint256[]"
        },
        {
          "name": "",
          "type": "bytes32[20]"
        },
        {
          "name": "",
          "type": "address[]"
        }
      ],
      "payable": false,
      "stateMutability": "view",
      "type": "function"
    },
    {
      "constant": true,
      "inputs": [
        {
          "name": "_contractAddr",
          "type": "address"
        },
        {
          "name": "_consultantAccount",
          "type": "address"
        }
      ],
      "name": "getConsultantReviews",
      "outputs": [
        {
          "name": "",
          "type": "uint256[]"
        },
        {
          "name": "",
          "type": "bytes32[20]"
        }
      ],
      "payable": false,
      "stateMutability": "view",
      "type": "function"
    },
    {
      "constant": true,
      "inputs": [
        {
          "name": "_contractAddr",
          "type": "address"
        }
      ],
      "name": "getClientFirstReview",
      "outputs": [
        {
          "name": "",
          "type": "uint256"
        },
        {
          "name": "",
          "type": "bytes32"
        }
      ],
      "payable": false,
      "stateMutability": "view",
      "type": "function"
    }
  ],
  "bytecode": "0x608060405234801561001057600080fd5b50336000806101000a81548173ffffffffffffffffffffffffffffffffffffffff021916908373ffffffffffffffffffffffffffffffffffffffff1602179055506119a5806100606000396000f3006080604052600436106100c5576000357c0100000000000000000000000000000000000000000000000000000000900463ffffffff1680631abc1ed2146100ca5780631c1b6e87146101bf57806324a777981461022c5780633833756214610292578063418cd139146103a15780634bc28e1b146103fc57806359dc735c146104775780636db80995146105df5780638463bcf51461064b5780638640cc3414610676578063893d20e81461075d578063947720cd146107b45780639bd00f2b1461080f575b600080fd5b3480156100d657600080fd5b506101bd600480360381019080803590602001908201803590602001908080601f0160208091040260200160405190810160405280939291908181526020018383808284378201915050505050509192919290803590602001908201803590602001908080601f0160208091040260200160405190810160405280939291908181526020018383808284378201915050505050509192919290803590602001908201803590602001908080601f01602080910402602001604051908101604052809392919081815260200183838082843782019150505050505091929192905050506108db565b005b3480156101cb57600080fd5b506101ea60048036038101908080359060200190929190505050610cde565b604051808273ffffffffffffffffffffffffffffffffffffffff1673ffffffffffffffffffffffffffffffffffffffff16815260200191505060405180910390f35b34801561023857600080fd5b5061026d600480360381019080803573ffffffffffffffffffffffffffffffffffffffff169060200190929190505050610d1c565b6040518083815260200182600019166000191681526020019250505060405180910390f35b34801561029e57600080fd5b506102d3600480360381019080803573ffffffffffffffffffffffffffffffffffffffff169060200190929190505050610e0d565b604051808060200184601460200280838360005b838110156103025780820151818401526020810190506102e7565b5050505090500180602001838103835286818151815260200191508051906020019060200280838360005b8381101561034857808201518184015260208101905061032d565b50505050905001838103825284818151815260200191508051906020019060200280838360005b8381101561038a57808201518184015260208101905061036f565b505050509050019550505050505060405180910390f35b3480156103ad57600080fd5b506103e2600480360381019080803573ffffffffffffffffffffffffffffffffffffffff169060200190929190505050610faf565b604051808215151515815260200191505060405180910390f35b34801561040857600080fd5b50610475600480360381019080803573ffffffffffffffffffffffffffffffffffffffff169060200190929190803590602001909291908035600019169060200190929190803573ffffffffffffffffffffffffffffffffffffffff169060200190929190505050611052565b005b34801561048357600080fd5b5061048c61115d565b60405180806020018060200180602001848103845287818151815260200191508051906020019080838360005b838110156104d45780820151818401526020810190506104b9565b50505050905090810190601f1680156105015780820380516001836020036101000a031916815260200191505b50848103835286818151815260200191508051906020019080838360005b8381101561053a57808201518184015260208101905061051f565b50505050905090810190601f1680156105675780820380516001836020036101000a031916815260200191505b50848103825285818151815260200191508051906020019080838360005b838110156105a0578082015181840152602081019050610585565b50505050905090810190601f1680156105cd5780820380516001836020036101000a031916815260200191505b50965050505050505060405180910390f35b3480156105eb57600080fd5b506105f4611407565b6040518080602001828103825283818151815260200191508051906020019060200280838360005b8381101561063757808201518184015260208101905061061c565b505050509050019250505060405180910390f35b34801561065757600080fd5b50610660611495565b6040518082815260200191505060405180910390f35b34801561068257600080fd5b506106d7600480360381019080803573ffffffffffffffffffffffffffffffffffffffff169060200190929190803573ffffffffffffffffffffffffffffffffffffffff16906020019092919050505061158c565b604051808060200183601460200280838360005b838110156107065780820151818401526020810190506106eb565b50505050905001828103825284818151815260200191508051906020019060200280838360005b8381101561074857808201518184015260208101905061072d565b50505050905001935050505060405180910390f35b34801561076957600080fd5b5061077261170c565b604051808273ffffffffffffffffffffffffffffffffffffffff1673ffffffffffffffffffffffffffffffffffffffff16815260200191505060405180910390f35b3480156107c057600080fd5b506107f5600480360381019080803573ffffffffffffffffffffffffffffffffffffffff169060200190929190505050611735565b604051808215151515815260200191505060405180910390f35b34801561081b57600080fd5b50610850600480360381019080803573ffffffffffffffffffffffffffffffffffffffff1690602001909291905050506117d8565b6040518085815260200184600019166000191681526020018373ffffffffffffffffffffffffffffffffffffffff1673ffffffffffffffffffffffffffffffffffffffff1681526020018273ffffffffffffffffffffffffffffffffffffffff1673ffffffffffffffffffffffffffffffffffffffff16815260200194505050505060405180910390f35b60006108e633611735565b801561091f5750600073ffffffffffffffffffffffffffffffffffffffff163373ffffffffffffffffffffffffffffffffffffffff1614155b15610c6f57600160003373ffffffffffffffffffffffffffffffffffffffff1673ffffffffffffffffffffffffffffffffffffffff16815260200190815260200160002090508381600001908051906020019061097d9291906118b0565b50828160010190805190602001906109969291906118b0565b50818160020190805190602001906109af9291906118b0565b50338160030160006101000a81548173ffffffffffffffffffffffffffffffffffffffff021916908373ffffffffffffffffffffffffffffffffffffffff1602179055507f567b35ec395e783ef5ff4a6072522af0ec30ab802c82a174f6edca6cdebb19978160000182600101848460030160009054906101000a900473ffffffffffffffffffffffffffffffffffffffff16604051808060200180602001806020018573ffffffffffffffffffffffffffffffffffffffff1673ffffffffffffffffffffffffffffffffffffffff168152602001848103845288818154600181600116156101000203166002900481526020019150805460018160011615610100020316600290048015610b055780601f10610ada57610100808354040283529160200191610b05565b820191906000526020600020905b815481529060010190602001808311610ae857829003601f168201915b5050848103835287818154600181600116156101000203166002900481526020019150805460018160011615610100020316600290048015610b885780601f10610b5d57610100808354040283529160200191610b88565b820191906000526020600020905b815481529060010190602001808311610b6b57829003601f168201915b5050848103825286818151815260200191508051906020019080838360005b83811015610bc2578082015181840152602081019050610ba7565b50505050905090810190601f168015610bef5780820380516001836020036101000a031916815260200191505b5097505050505050505060405180910390a1600160023390806001815401808255809150509060018203906000526020600020016000909192909190916101000a81548173ffffffffffffffffffffffffffffffffffffffff021916908373ffffffffffffffffffffffffffffffffffffffff1602179055505050610cd8565b7fb96022b403f5276dfb957e09c6e69f6e3bc8e883e08248d07598551d84e02be06040518080602001828103825260158152602001807f436c69656e7420416c726561647920657869737473000000000000000000000081525060200191505060405180910390a15b50505050565b600281815481101515610ced57fe5b906000526020600020016000915054906101000a900473ffffffffffffffffffffffffffffffffffffffff1681565b60008060008390508073ffffffffffffffffffffffffffffffffffffffff166322149c3a336040518263ffffffff167c0100000000000000000000000000000000000000000000000000000000028152600401808273ffffffffffffffffffffffffffffffffffffffff1673ffffffffffffffffffffffffffffffffffffffff1681526020019150506040805180830381600087803b158015610dbe57600080fd5b505af1158015610dd2573d6000803e3d6000fd5b505050506040513d6040811015610de857600080fd5b8101908080519060200190929190805190602001909291905050509250925050915091565b6060610e17611930565b606060008490508073ffffffffffffffffffffffffffffffffffffffff166338337562336040518263ffffffff167c0100000000000000000000000000000000000000000000000000000000028152600401808273ffffffffffffffffffffffffffffffffffffffff1673ffffffffffffffffffffffffffffffffffffffff168152602001915050600060405180830381600087803b158015610eb957600080fd5b505af1158015610ecd573d6000803e3d6000fd5b505050506040513d6000823e3d601f19601f820116820180604052506102c0811015610ef857600080fd5b810190808051640100000000811115610f1057600080fd5b82810190506020810184811115610f2657600080fd5b8151856020820283011164010000000082111715610f4357600080fd5b5050929190602001919082610280018051640100000000811115610f6657600080fd5b82810190506020810184811115610f7c57600080fd5b8151856020820283011164010000000082111715610f9957600080fd5b5050929190505050935093509350509193909250565b600080600090505b600280549050811015611047578273ffffffffffffffffffffffffffffffffffffffff16600282815481101515610fea57fe5b9060005260206000200160009054906101000a900473ffffffffffffffffffffffffffffffffffffffff1673ffffffffffffffffffffffffffffffffffffffff16141561103a576001915061104c565b8080600101915050610fb7565b600091505b50919050565b60008490508073ffffffffffffffffffffffffffffffffffffffff1663e3619d5b858585336040518563ffffffff167c01000000000000000000000000000000000000000000000000000000000281526004018085815260200184600019166000191681526020018373ffffffffffffffffffffffffffffffffffffffff1673ffffffffffffffffffffffffffffffffffffffff1681526020018273ffffffffffffffffffffffffffffffffffffffff1673ffffffffffffffffffffffffffffffffffffffff168152602001945050505050600060405180830381600087803b15801561113e57600080fd5b505af1158015611152573d6000803e3d6000fd5b505050505050505050565b6060806060600160003373ffffffffffffffffffffffffffffffffffffffff1673ffffffffffffffffffffffffffffffffffffffff168152602001908152602001600020600001600160003373ffffffffffffffffffffffffffffffffffffffff1673ffffffffffffffffffffffffffffffffffffffff168152602001908152602001600020600101600160003373ffffffffffffffffffffffffffffffffffffffff1673ffffffffffffffffffffffffffffffffffffffff168152602001908152602001600020600201828054600181600116156101000203166002900480601f0160208091040260200160405190810160405280929190818152602001828054600181600116156101000203166002900480156112bd5780601f10611292576101008083540402835291602001916112bd565b820191906000526020600020905b8154815290600101906020018083116112a057829003601f168201915b50505050509250818054600181600116156101000203166002900480601f0160208091040260200160405190810160405280929190818152602001828054600181600116156101000203166002900480156113595780601f1061132e57610100808354040283529160200191611359565b820191906000526020600020905b81548152906001019060200180831161133c57829003601f168201915b50505050509150808054600181600116156101000203166002900480601f0160208091040260200160405190810160405280929190818152602001828054600181600116156101000203166002900480156113f55780601f106113ca576101008083540402835291602001916113f5565b820191906000526020600020905b8154815290600101906020018083116113d857829003601f168201915b50505050509050925092509250909192565b6060600280548060200260200160405190810160405280929190818152602001828054801561148b57602002820191906000526020600020905b8160009054906101000a900473ffffffffffffffffffffffffffffffffffffffff1673ffffffffffffffffffffffffffffffffffffffff1681526020019060010190808311611441575b5050505050905090565b60008060009054906101000a900473ffffffffffffffffffffffffffffffffffffffff1673ffffffffffffffffffffffffffffffffffffffff163373ffffffffffffffffffffffffffffffffffffffff16141515611581576040517f08c379a00000000000000000000000000000000000000000000000000000000081526004018080602001828103825260278152602001807f4f6e6c79206f776e657220697320617574686f72697a656420666f722074686981526020017f73207461736b2e0000000000000000000000000000000000000000000000000081525060400191505060405180910390fd5b600280549050905090565b6060611596611930565b60008490508073ffffffffffffffffffffffffffffffffffffffff16638640cc3433866040518363ffffffff167c0100000000000000000000000000000000000000000000000000000000028152600401808373ffffffffffffffffffffffffffffffffffffffff1673ffffffffffffffffffffffffffffffffffffffff1681526020018273ffffffffffffffffffffffffffffffffffffffff1673ffffffffffffffffffffffffffffffffffffffff16815260200192505050600060405180830381600087803b15801561166a57600080fd5b505af115801561167e573d6000803e3d6000fd5b505050506040513d6000823e3d601f19601f820116820180604052506102a08110156116a957600080fd5b8101908080516401000000008111156116c157600080fd5b828101905060208101848111156116d757600080fd5b81518560208202830111640100000000821117156116f457600080fd5b50509291906020019190505092509250509250929050565b60008060009054906101000a900473ffffffffffffffffffffffffffffffffffffffff16905090565b600080600090505b6002805490508110156117cd578273ffffffffffffffffffffffffffffffffffffffff1660028281548110151561177057fe5b9060005260206000200160009054906101000a900473ffffffffffffffffffffffffffffffffffffffff1673ffffffffffffffffffffffffffffffffffffffff1614156117c057600091506117d2565b808060010191505061173d565b600191505b50919050565b60008060008060008590508073ffffffffffffffffffffffffffffffffffffffff1663a73a4aaf6040518163ffffffff167c0100000000000000000000000000000000000000000000000000000000028152600401608060405180830381600087803b15801561184757600080fd5b505af115801561185b573d6000803e3d6000fd5b505050506040513d608081101561187157600080fd5b81019080805190602001909291908051906020019092919080519060200190929190805190602001909291905050509450945094509450509193509193565b828054600181600116156101000203166002900490600052602060002090601f016020900481019282601f106118f157805160ff191683800117855561191f565b8280016001018555821561191f579182015b8281111561191e578251825591602001919060010190611903565b5b50905061192c9190611954565b5090565b61028060405190810160405280601490602082028038833980820191505090505090565b61197691905b8082111561197257600081600090555060010161195a565b5090565b905600a165627a7a72305820e7c4bce71c0bef7b523207d24c7c46a941dd842a61c1829783ee849d789415f90029",
  "source": "pragma solidity ^0.4.23;\n\nimport \"./Owned.sol\";\n\ncontract ClientContract is Owned{\n\n    struct Client {\n        string firstName;\n        string lastName; // change string to bytes16\n        string company;\n        address account; // client account \n    }\n\n    mapping (address => Client) clients;\n    address[] public clientAccounts;\n\n    constructor() public { //Default constructor\n\n    }\n\n    event ClientEvent(\n       string firstName,\n       string lastName, // change string to bytes16\n       string company,\n       address account\n    );\n\n    event ClientAlreadyExistsEvent(\n        string message\n    );\n\n    function clientExist(address _address) public view returns(bool){\n        for (uint i = 0; i < clientAccounts.length; i++) {\n            if (clientAccounts[i] == _address)\n               return true;\n        }\n        return false;\n    }\n\t\n    function clientDoesNotExist(address _address) public view returns(bool){\n        for (uint i = 0; i < clientAccounts.length; i++) {\n            if (clientAccounts[i] == _address)\n               return false;\n        }\n        return true;\n\n    }\n\n    function setClient(string _firstName, string _lastName, string _company) public {\n\n        if(clientDoesNotExist(msg.sender) && (msg.sender != address(0))){\n            Client storage client = clients[msg.sender];\n\n            client.firstName = _firstName;\n            client.lastName = _lastName;\n            client.company = _company;\n            client.account = msg.sender;\n\n            emit ClientEvent(client.firstName, client.lastName, _company, client.account);\n\n            clientAccounts.push(msg.sender) -1;\n        }else{\n            emit ClientAlreadyExistsEvent(\"Client Already exists\");\n        }\n    }\n\n    function getClients() public view returns(address[]){\n\n        return clientAccounts;\n    }\n\n\n    function getClient() public view returns (string, string, string){\n\n        return (clients[msg.sender].firstName, clients[msg.sender].lastName, clients[msg.sender].company);\n    }\n\n    function countClients() public onlyOwner view returns (uint){\n\n        return clientAccounts.length;\n    }\n\n    // Send client address explicity in the function\n    function setConsultantReview(address _contractAddr, uint _rating, bytes32 _comment, address _consultantAccount) \n    \n    public{\n\n        ConsultantReviewContract crc = ConsultantReviewContract(_contractAddr);\n        crc.setReview(_rating, _comment, _consultantAccount, msg.sender);\n    }\n\n    function getConsultantReview(address _contractAddr) public view returns(uint, bytes32, address, address){\n\n        ConsultantReviewContract crc = ConsultantReviewContract(_contractAddr);\n        return crc.getReview();\n\n    }\n\n    // All the reviews by this client to his/her consultants\n    // Check only authorized cleint can see the comments\n    function getConsultantsReviews(address _contractAddr) public view returns(uint[], bytes32[20], address[]){\n        \n        ConsultantReviewContract crc = ConsultantReviewContract(_contractAddr);\n        return crc.getConsultantsReviews(msg.sender);\n    }\n\n\n    // All reviews of a particular consultant by the client\n    function getConsultantReviews(address _contractAddr, address _consultantAccount)   \n    public view returns(uint[], bytes32[20]){\n        ConsultantReviewContract crc = ConsultantReviewContract(_contractAddr);\n        return crc.getConsultantReviews(msg.sender,_consultantAccount);\n    }\n\n    function getClientFirstReview(address _contractAddr)public view returns(uint, bytes32){\n        ConsultantReviewContract crc = ConsultantReviewContract(_contractAddr);\n        return crc.getClientFirstReviewNow(msg.sender);\n    }\n\n}\n\n// Get consultant first review\n// change string to fixed sized bytes array\n\n\n\ncontract ConsultantReviewContract{\n\t\n    // function getTestNumber() public view returns(uint);\n    function getReview() public view returns(uint, bytes32, address, address);\n    // function setTestNumber(uint _testNumber);\n    function setReview(uint _rating, bytes32 _comment, address _consultantAccount, address _clientAccount) public;\n    function totalReviews() public returns (uint);\n    function getClientAccounts() public returns (address[]);\n    function getConsultantsReviews(address _clientAccount) public view returns(uint[], bytes32[20], address[]);\n    function getConsultantReviews(address _clientAccount, address _consultantAccount) public view returns(uint[], bytes32[20]);\n    function getClientFirstReviewNow(address _clientAccount) public view returns(uint, bytes32);\n\n}",
  "sourcePath": "/Users/usman/Documents/blockchain/review/contracts/ClientContract.sol",
  "compiler": {
    "name": "solc",
    "version": "0.4.24+commit.e67f0147.Emscripten.clang"
  },
  "schemaVersion": "2.0.1",
  "updatedAt": "2019-01-06T10:08:58.418Z"
}