{
  "contractName": "ConsultantReviewContract",
  "abi": [
    {
      "constant": true,
      "inputs": [],
      "name": "testNumber",
      "outputs": [
        {
          "name": "",
          "type": "uint256"
        }
      ],
      "payable": false,
      "stateMutability": "view",
      "type": "function"
    },
    {
      "constant": true,
      "inputs": [
        {
          "name": "",
          "type": "uint256"
        }
      ],
      "name": "clientAccounts",
      "outputs": [
        {
          "name": "",
          "type": "address"
        }
      ],
      "payable": false,
      "stateMutability": "view",
      "type": "function"
    },
    {
      "constant": true,
      "inputs": [
        {
          "name": "",
          "type": "uint256"
        }
      ],
      "name": "reviewsArray",
      "outputs": [
        {
          "name": "rating",
          "type": "uint256"
        },
        {
          "name": "comment",
          "type": "string"
        },
        {
          "name": "clientAccount",
          "type": "address"
        },
        {
          "name": "consultantAccount",
          "type": "address"
        }
      ],
      "payable": false,
      "stateMutability": "view",
      "type": "function"
    },
    {
      "inputs": [],
      "payable": false,
      "stateMutability": "nonpayable",
      "type": "constructor"
    },
    {
      "constant": false,
      "inputs": [
        {
          "name": "_rating",
          "type": "uint256"
        },
        {
          "name": "_comment",
          "type": "string"
        },
        {
          "name": "_consultantAccount",
          "type": "address"
        },
        {
          "name": "_clientAccount",
          "type": "address"
        }
      ],
      "name": "setReview",
      "outputs": [],
      "payable": false,
      "stateMutability": "nonpayable",
      "type": "function"
    },
    {
      "constant": true,
      "inputs": [],
      "name": "getReview",
      "outputs": [
        {
          "name": "",
          "type": "uint256"
        },
        {
          "name": "",
          "type": "string"
        },
        {
          "name": "",
          "type": "address"
        },
        {
          "name": "",
          "type": "address"
        }
      ],
      "payable": false,
      "stateMutability": "view",
      "type": "function"
    },
    {
      "constant": true,
      "inputs": [],
      "name": "totalReviews",
      "outputs": [
        {
          "name": "",
          "type": "uint256"
        }
      ],
      "payable": false,
      "stateMutability": "view",
      "type": "function"
    },
    {
      "constant": true,
      "inputs": [],
      "name": "getClientAccounts",
      "outputs": [
        {
          "name": "",
          "type": "address[]"
        }
      ],
      "payable": false,
      "stateMutability": "view",
      "type": "function"
    },
    {
      "constant": false,
      "inputs": [
        {
          "name": "_clientAccount",
          "type": "address"
        }
      ],
      "name": "getConsultantsReviews",
      "outputs": [
        {
          "name": "",
          "type": "uint256[]"
        },
        {
          "name": "",
          "type": "string[]"
        },
        {
          "name": "",
          "type": "address[]"
        }
      ],
      "payable": false,
      "stateMutability": "nonpayable",
      "type": "function"
    },
    {
      "constant": false,
      "inputs": [
        {
          "name": "_clientAccount",
          "type": "address"
        },
        {
          "name": "_consultantAccount",
          "type": "address"
        }
      ],
      "name": "getConsultantReviews",
      "outputs": [
        {
          "name": "",
          "type": "uint256[]"
        },
        {
          "name": "",
          "type": "string[]"
        }
      ],
      "payable": false,
      "stateMutability": "nonpayable",
      "type": "function"
    }
  ],
  "bytecode": "0x608060405234801561001057600080fd5b50611755806100206000396000f300608060405260043610610099576000357c0100000000000000000000000000000000000000000000000000000000900463ffffffff1680630d1972f31461009e5780631c1b6e87146100c957806338337562146101065780638640cc3414610145578063a73a4aaf14610183578063dae55d67146101b1578063e2367890146101dc578063f0d4779914610207578063fe49cd4214610247575b600080fd5b3480156100aa57600080fd5b506100b3610270565b6040516100c091906114e3565b60405180910390f35b3480156100d557600080fd5b506100f060048036036100eb91908101906111d1565b610276565b6040516100fd9190611423565b60405180910390f35b34801561011257600080fd5b5061012d6004803603610128919081019061116c565b6102b4565b60405161013c93929190611497565b60405180910390f35b34801561015157600080fd5b5061016c60048036036101679190810190611195565b61067d565b60405161017a929190611460565b60405180910390f35b34801561018f57600080fd5b50610198610988565b6040516101a894939291906114fe565b60405180910390f35b3480156101bd57600080fd5b506101c6610b00565b6040516101d3919061143e565b60405180910390f35b3480156101e857600080fd5b506101f1610b8e565b6040516101fe91906114e3565b60405180910390f35b34801561021357600080fd5b5061022e600480360361022991908101906111d1565b610b9b565b60405161023e949392919061154a565b60405180910390f35b34801561025357600080fd5b5061026e600480360361026991908101906111fa565b610cb2565b005b60005481565b60028181548110151561028557fe5b906000526020600020016000915054906101000a900473ffffffffffffffffffffffffffffffffffffffff1681565b6060806060600080600080600090505b6003805490508110156104ac578773ffffffffffffffffffffffffffffffffffffffff166003828154811015156102f757fe5b906000526020600020906004020160020160009054906101000a900473ffffffffffffffffffffffffffffffffffffffff1673ffffffffffffffffffffffffffffffffffffffff16141561049f578360038281548110151561035557fe5b9060005260206000209060040201600001549080600181540180825580915050906001820390600052602060002001600090919290919091505550826003828154811015156103a057fe5b906000526020600020906004020160010190806001815401808255809150509060018203906000526020600020016000909192909190915090805460018160011615610100020316600290046103f7929190610f3b565b50508160038281548110151561040957fe5b906000526020600020906004020160030160009054906101000a900473ffffffffffffffffffffffffffffffffffffffff1690806001815401808255809150509060018203906000526020600020016000909192909190916101000a81548173ffffffffffffffffffffffffffffffffffffffff021916908373ffffffffffffffffffffffffffffffffffffffff160217905550505b80806001019150506102c4565b838383828054806020026020016040519081016040528092919081815260200182805480156104fa57602002820191906000526020600020905b8154815260200190600101908083116104e6575b5050505050925081805480602002602001604051908101604052809291908181526020016000905b828210156105de578382906000526020600020018054600181600116156101000203166002900480601f0160208091040260200160405190810160405280929190818152602001828054600181600116156101000203166002900480156105ca5780601f1061059f576101008083540402835291602001916105ca565b820191906000526020600020905b8154815290600101906020018083116105ad57829003601f168201915b505050505081526020019060010190610522565b5050505091508080548060200260200160405190810160405280929190818152602001828054801561066557602002820191906000526020600020905b8160009054906101000a900473ffffffffffffffffffffffffffffffffffffffff1673ffffffffffffffffffffffffffffffffffffffff168152602001906001019080831161061b575b50505050509050965096509650505050509193909250565b60608060008060008090505b600380549050811015610843578673ffffffffffffffffffffffffffffffffffffffff166003828154811015156106bc57fe5b906000526020600020906004020160020160009054906101000a900473ffffffffffffffffffffffffffffffffffffffff1673ffffffffffffffffffffffffffffffffffffffff1614801561077c57508573ffffffffffffffffffffffffffffffffffffffff1660038281548110151561073257fe5b906000526020600020906004020160030160009054906101000a900473ffffffffffffffffffffffffffffffffffffffff1673ffffffffffffffffffffffffffffffffffffffff16145b15610836578260038281548110151561079157fe5b9060005260206000209060040201600001549080600181540180825580915050906001820390600052602060002001600090919290919091505550816003828154811015156107dc57fe5b90600052602060002090600402016001019080600181540180825580915050906001820390600052602060002001600090919290919091509080546001816001161561010002031660029004610833929190610f3b565b50505b8080600101915050610689565b82828180548060200260200160405190810160405280929190818152602001828054801561089057602002820191906000526020600020905b81548152602001906001019080831161087c575b5050505050915080805480602002602001604051908101604052809291908181526020016000905b82821015610974578382906000526020600020018054600181600116156101000203166002900480601f0160208091040260200160405190810160405280929190818152602001828054600181600116156101000203166002900480156109605780601f1061093557610100808354040283529160200191610960565b820191906000526020600020905b81548152906001019060200180831161094357829003601f168201915b5050505050815260200190600101906108b8565b505050509050945094505050509250929050565b600060606000806003600081548110151561099f57fe5b906000526020600020906004020160000154600360008154811015156109c157fe5b9060005260206000209060040201600101600360008154811015156109e257fe5b906000526020600020906004020160020160009054906101000a900473ffffffffffffffffffffffffffffffffffffffff1660036000815481101515610a2457fe5b906000526020600020906004020160030160009054906101000a900473ffffffffffffffffffffffffffffffffffffffff16828054600181600116156101000203166002900480601f016020809104026020016040519081016040528092919081815260200182805460018160011615610100020316600290048015610aeb5780601f10610ac057610100808354040283529160200191610aeb565b820191906000526020600020905b815481529060010190602001808311610ace57829003601f168201915b50505050509250935093509350935090919293565b60606002805480602002602001604051908101604052809291908181526020018280548015610b8457602002820191906000526020600020905b8160009054906101000a900473ffffffffffffffffffffffffffffffffffffffff1673ffffffffffffffffffffffffffffffffffffffff1681526020019060010190808311610b3a575b5050505050905090565b6000600380549050905090565b600381815481101515610baa57fe5b9060005260206000209060040201600091509050806000015490806001018054600181600116156101000203166002900480601f016020809104026020016040519081016040528092919081815260200182805460018160011615610100020316600290048015610c5c5780601f10610c3157610100808354040283529160200191610c5c565b820191906000526020600020905b815481529060010190602001808311610c3f57829003601f168201915b5050505050908060020160009054906101000a900473ffffffffffffffffffffffffffffffffffffffff16908060030160009054906101000a900473ffffffffffffffffffffffffffffffffffffffff16905084565b6000600160008373ffffffffffffffffffffffffffffffffffffffff1673ffffffffffffffffffffffffffffffffffffffff168152602001908152602001600020905084816000018190555083816001019080519060200190610d16929190610fc2565b50828160030160006101000a81548173ffffffffffffffffffffffffffffffffffffffff021916908373ffffffffffffffffffffffffffffffffffffffff160217905550818160020160006101000a81548173ffffffffffffffffffffffffffffffffffffffff021916908373ffffffffffffffffffffffffffffffffffffffff160217905550600381908060018154018082558091505090600182039060005260206000209060040201600090919290919091506000820154816000015560018201816001019080546001816001161561010002031660029004610dfc929190611042565b506002820160009054906101000a900473ffffffffffffffffffffffffffffffffffffffff168160020160006101000a81548173ffffffffffffffffffffffffffffffffffffffff021916908373ffffffffffffffffffffffffffffffffffffffff1602179055506003820160009054906101000a900473ffffffffffffffffffffffffffffffffffffffff168160030160006101000a81548173ffffffffffffffffffffffffffffffffffffffff021916908373ffffffffffffffffffffffffffffffffffffffff16021790555050505060028290806001815401808255809150509060018203906000526020600020016000909192909190916101000a81548173ffffffffffffffffffffffffffffffffffffffff021916908373ffffffffffffffffffffffffffffffffffffffff160217905550505050505050565b828054600181600116156101000203166002900490600052602060002090601f016020900481019282601f10610f745780548555610fb1565b82800160010185558215610fb157600052602060002091601f016020900482015b82811115610fb0578254825591600101919060010190610f95565b5b509050610fbe91906110c9565b5090565b828054600181600116156101000203166002900490600052602060002090601f016020900481019282601f1061100357805160ff1916838001178555611031565b82800160010185558215611031579182015b82811115611030578251825591602001919060010190611015565b5b50905061103e91906110c9565b5090565b828054600181600116156101000203166002900490600052602060002090601f016020900481019282601f1061107b57805485556110b8565b828001600101855582156110b857600052602060002091601f016020900482015b828111156110b757825482559160010191906001019061109c565b5b5090506110c591906110c9565b5090565b6110eb91905b808211156110e75760008160009055506001016110cf565b5090565b90565b60006110fa823561169e565b905092915050565b600082601f830112151561111557600080fd5b8135611128611123826115c3565b611596565b9150808252602083016020830185838301111561114457600080fd5b61114f8382846116c8565b50505092915050565b600061116482356116be565b905092915050565b60006020828403121561117e57600080fd5b600061118c848285016110ee565b91505092915050565b600080604083850312156111a857600080fd5b60006111b6858286016110ee565b92505060206111c7858286016110ee565b9150509250929050565b6000602082840312156111e357600080fd5b60006111f184828501611158565b91505092915050565b6000806000806080858703121561121057600080fd5b600061121e87828801611158565b945050602085013567ffffffffffffffff81111561123b57600080fd5b61124787828801611102565b9350506040611258878288016110ee565b9250506060611269878288016110ee565b91505092959194509250565b61127e81611674565b82525050565b600061128f82611616565b8084526020840193506112a1836115ef565b60005b828110156112d3576112b7868351611275565b6112c08261164d565b91506020860195506001810190506112a4565b50849250505092915050565b60006112ea82611621565b80845260208401935083602082028501611303856115fc565b60005b8481101561133c57838303885261131e8383516113de565b92506113298261165a565b9150602088019750600181019050611306565b508196508694505050505092915050565b60006113588261162c565b80845260208401935061136a83611609565b60005b8281101561139c57611380868351611414565b61138982611667565b915060208601955060018101905061136d565b50849250505092915050565b60006113b382611642565b8084526113c78160208601602086016116d7565b6113d08161170a565b602085010191505092915050565b60006113e982611637565b8084526113fd8160208601602086016116d7565b6114068161170a565b602085010191505092915050565b61141d81611694565b82525050565b60006020820190506114386000830184611275565b92915050565b600060208201905081810360008301526114588184611284565b905092915050565b6000604082019050818103600083015261147a818561134d565b9050818103602083015261148e81846112df565b90509392505050565b600060608201905081810360008301526114b1818661134d565b905081810360208301526114c581856112df565b905081810360408301526114d98184611284565b9050949350505050565b60006020820190506114f86000830184611414565b92915050565b60006080820190506115136000830187611414565b818103602083015261152581866113a8565b90506115346040830185611275565b6115416060830184611275565b95945050505050565b600060808201905061155f6000830187611414565b818103602083015261157181866113de565b90506115806040830185611275565b61158d6060830184611275565b95945050505050565b6000604051905081810181811067ffffffffffffffff821117156115b957600080fd5b8060405250919050565b600067ffffffffffffffff8211156115da57600080fd5b601f19601f8301169050602081019050919050565b6000602082019050919050565b6000602082019050919050565b6000602082019050919050565b600081519050919050565b600081519050919050565b600081519050919050565b600081519050919050565b600081519050919050565b6000602082019050919050565b6000602082019050919050565b6000602082019050919050565b600073ffffffffffffffffffffffffffffffffffffffff82169050919050565b6000819050919050565b600073ffffffffffffffffffffffffffffffffffffffff82169050919050565b6000819050919050565b82818337600083830152505050565b60005b838110156116f55780820151818401526020810190506116da565b83811115611704576000848401525b50505050565b6000601f19601f83011690509190505600a265627a7a72305820c919de5c00e464411f7930a9b8567871cf05575bf5552603323883d94d73ce126c6578706572696d656e74616cf50037",
  "source": "pragma solidity ^0.4.23;\npragma experimental ABIEncoderV2;\n\n\n\ncontract ConsultantReviewContract{\n\t\n    uint public testNumber;\n\n    struct Review{\n        uint rating;\n        string comment;\n        address clientAccount;\n        address consultantAccount;\n    }\n\n    mapping (address => Review) reviews;\n    address[] public clientAccounts;\n    Review[] public reviewsArray;\n\n    constructor(){\n\t// Basic constructor for the contract\n    }\n\n    // Do we need any check for setting the review, if so what it will be \n    function setReview(uint _rating, string _comment, address _consultantAccount, address _clientAccount) public {\n\n        Review storage review = reviews[_clientAccount];\n\n        review.rating = _rating;\n        review.comment = _comment;\n        review.consultantAccount = _consultantAccount;\n        review.clientAccount = _clientAccount;\n\n        reviewsArray.push(review);\n        clientAccounts.push(_clientAccount);\n\n    }\n\n    // Need to have multiple reviews retrivals \n    // 1) client's review\n    // 2) client with specific consultant review \n    // 3) All reviews\n\n    function getReview() public view returns(uint, string, address, address){\n        return(reviewsArray[0].rating, reviewsArray[0].comment, reviewsArray[0].clientAccount, reviewsArray[0].consultantAccount);\n    }\n\n    function totalReviews() public view returns (uint){\n        return reviewsArray.length;\n    }\n\n    function getClientAccounts() public view returns (address[]){\n        return clientAccounts;\n    }\n\n    function getConsultantsReviews(address _clientAccount) public returns(uint[], string[], address[]){\n\n        uint[] _ratings;\n        string[] _comments;\n        address[] _consultantAccounts;\n\n\n        for (uint i = 0; i < reviewsArray.length; i++) {\n            if (reviewsArray[i].clientAccount == _clientAccount){\n                _ratings.push(reviewsArray[i].rating);\n                _comments.push(reviewsArray[i].comment);\n                _consultantAccounts.push(reviewsArray[i].consultantAccount);\n            }\n        }\n        return (_ratings, _comments, _consultantAccounts);\n\n    }\n\n\n    function getConsultantReviews(address _clientAccount, address _consultantAccount) public returns(uint[], string[]){\n\n        uint[] _ratings;\n        string[] _comments;\n\n        for (uint i = 0; i < reviewsArray.length; i++) {\n            if (reviewsArray[i].clientAccount == _clientAccount && reviewsArray[i].consultantAccount == _consultantAccount){\n                _ratings.push(reviewsArray[i].rating);\n                _comments.push(reviewsArray[i].comment);\n            }\n        }\n        return (_ratings, _comments);\n\n    }\n\n\n\n\n}\n\n\n\n/*\n\t-- Just some comments\n\n\t\tClient storage client = clients[_address];\n\n\t\tclient.firstName = _firstName;\n\t\tclient.lastName = _lastName;\n\t\tclient.company = _company;\n\n\t\tclientAccounts.push(_address) -1;\n\n        function getConsultantsReviews(address _clientAccount) public returns(string[], string[], address[]);\n    function getConsultantReviews(address _clientAccount, address _consultantAccount) public  returns(string[], string[]);\n\n*/",
  "sourcePath": "/Users/usman/Documents/blockchain/review/contracts/ConsultantReviewContract.sol",
  "compiler": {
    "name": "solc",
    "version": "0.4.24+commit.e67f0147.Emscripten.clang"
  },
  "schemaVersion": "2.0.1",
  "updatedAt": "2018-12-06T11:16:46.439Z"
}