{
  "contractName": "ConsultantContract",
  "abi": [
    {
      "constant": true,
      "inputs": [],
      "name": "getOwner",
      "outputs": [
        {
          "name": "",
          "type": "address"
        }
      ],
      "payable": false,
      "stateMutability": "view",
      "type": "function"
    },
    {
      "constant": true,
      "inputs": [
        {
          "name": "",
          "type": "uint256"
        }
      ],
      "name": "consultantAccounts",
      "outputs": [
        {
          "name": "",
          "type": "address"
        }
      ],
      "payable": false,
      "stateMutability": "view",
      "type": "function"
    },
    {
      "inputs": [],
      "payable": false,
      "stateMutability": "nonpayable",
      "type": "constructor"
    },
    {
      "anonymous": false,
      "inputs": [
        {
          "indexed": false,
          "name": "firstName",
          "type": "string"
        },
        {
          "indexed": false,
          "name": "lastName",
          "type": "string"
        },
        {
          "indexed": false,
          "name": "account",
          "type": "address"
        }
      ],
      "name": "ConsultantEvent",
      "type": "event"
    },
    {
      "anonymous": false,
      "inputs": [
        {
          "indexed": false,
          "name": "message",
          "type": "string"
        }
      ],
      "name": "ConsultantAlreadyExistsEvent",
      "type": "event"
    },
    {
      "constant": true,
      "inputs": [
        {
          "name": "_address",
          "type": "address"
        }
      ],
      "name": "consultantExist",
      "outputs": [
        {
          "name": "",
          "type": "bool"
        }
      ],
      "payable": false,
      "stateMutability": "view",
      "type": "function"
    },
    {
      "constant": true,
      "inputs": [
        {
          "name": "_address",
          "type": "address"
        }
      ],
      "name": "consultantDoesNotExist",
      "outputs": [
        {
          "name": "",
          "type": "bool"
        }
      ],
      "payable": false,
      "stateMutability": "view",
      "type": "function"
    },
    {
      "constant": false,
      "inputs": [
        {
          "name": "_firstName",
          "type": "string"
        },
        {
          "name": "_lastName",
          "type": "string"
        }
      ],
      "name": "setConsultant",
      "outputs": [],
      "payable": false,
      "stateMutability": "nonpayable",
      "type": "function"
    },
    {
      "constant": true,
      "inputs": [],
      "name": "getConsultants",
      "outputs": [
        {
          "name": "",
          "type": "address[]"
        }
      ],
      "payable": false,
      "stateMutability": "view",
      "type": "function"
    },
    {
      "constant": true,
      "inputs": [],
      "name": "getConsultant",
      "outputs": [
        {
          "name": "",
          "type": "string"
        },
        {
          "name": "",
          "type": "string"
        }
      ],
      "payable": false,
      "stateMutability": "view",
      "type": "function"
    },
    {
      "constant": true,
      "inputs": [],
      "name": "countConsultants",
      "outputs": [
        {
          "name": "",
          "type": "uint256"
        }
      ],
      "payable": false,
      "stateMutability": "view",
      "type": "function"
    },
    {
      "constant": false,
      "inputs": [
        {
          "name": "_contractAddr",
          "type": "address"
        },
        {
          "name": "_rating",
          "type": "uint256"
        },
        {
          "name": "_comment",
          "type": "bytes32"
        },
        {
          "name": "_clientAccount",
          "type": "address"
        }
      ],
      "name": "setClientReview",
      "outputs": [],
      "payable": false,
      "stateMutability": "nonpayable",
      "type": "function"
    },
    {
      "constant": true,
      "inputs": [
        {
          "name": "_contractAddr",
          "type": "address"
        }
      ],
      "name": "getClientReview",
      "outputs": [
        {
          "name": "",
          "type": "uint256"
        },
        {
          "name": "",
          "type": "string"
        },
        {
          "name": "",
          "type": "address"
        },
        {
          "name": "",
          "type": "address"
        }
      ],
      "payable": false,
      "stateMutability": "view",
      "type": "function"
    },
    {
      "constant": true,
      "inputs": [
        {
          "name": "_contractAddr",
          "type": "address"
        }
      ],
      "name": "getClientsReviews",
      "outputs": [
        {
          "name": "",
          "type": "uint256[]"
        },
        {
          "name": "",
          "type": "bytes32[20]"
        },
        {
          "name": "",
          "type": "address[]"
        }
      ],
      "payable": false,
      "stateMutability": "view",
      "type": "function"
    },
    {
      "constant": true,
      "inputs": [
        {
          "name": "_contractAddr",
          "type": "address"
        },
        {
          "name": "_clientAccount",
          "type": "address"
        }
      ],
      "name": "getClientReviews",
      "outputs": [
        {
          "name": "",
          "type": "uint256[]"
        },
        {
          "name": "",
          "type": "bytes32[20]"
        }
      ],
      "payable": false,
      "stateMutability": "view",
      "type": "function"
    },
    {
      "constant": true,
      "inputs": [
        {
          "name": "_contractAddr",
          "type": "address"
        }
      ],
      "name": "getConsultantFirstReview",
      "outputs": [
        {
          "name": "",
          "type": "uint256"
        },
        {
          "name": "",
          "type": "bytes32"
        }
      ],
      "payable": false,
      "stateMutability": "view",
      "type": "function"
    }
  ],
  "bytecode": "0x608060405234801561001057600080fd5b50336000806101000a81548173ffffffffffffffffffffffffffffffffffffffff021916908373ffffffffffffffffffffffffffffffffffffffff160217905550611840806100606000396000f3006080604052600436106100c5576000357c0100000000000000000000000000000000000000000000000000000000900463ffffffff16806319c04f7e146100ca57806349aa3f4f146101255780634d13e8b1146101a05780634f3a5267146101fb578063719f6ea0146102f7578063893d20e8146103635780638c537daa146103ba578063952fa1ef146103e55780639678a0ae146104525780639ff2b5d714610561578063c3e4659614610610578063d4d9d41914610739578063df226c381461079f575b600080fd5b3480156100d657600080fd5b5061010b600480360381019080803573ffffffffffffffffffffffffffffffffffffffff169060200190929190505050610886565b604051808215151515815260200191505060405180910390f35b34801561013157600080fd5b5061019e600480360381019080803573ffffffffffffffffffffffffffffffffffffffff169060200190929190803590602001909291908035600019169060200190929190803573ffffffffffffffffffffffffffffffffffffffff169060200190929190505050610929565b005b3480156101ac57600080fd5b506101e1600480360381019080803573ffffffffffffffffffffffffffffffffffffffff169060200190929190505050610a34565b604051808215151515815260200191505060405180910390f35b34801561020757600080fd5b50610210610ad7565b604051808060200180602001838103835285818151815260200191508051906020019080838360005b83811015610254578082015181840152602081019050610239565b50505050905090810190601f1680156102815780820380516001836020036101000a031916815260200191505b50838103825284818151815260200191508051906020019080838360005b838110156102ba57808201518184015260208101905061029f565b50505050905090810190601f1680156102e75780820380516001836020036101000a031916815260200191505b5094505050505060405180910390f35b34801561030357600080fd5b5061030c610c9e565b6040518080602001828103825283818151815260200191508051906020019060200280838360005b8381101561034f578082015181840152602081019050610334565b505050509050019250505060405180910390f35b34801561036f57600080fd5b50610378610d2c565b604051808273ffffffffffffffffffffffffffffffffffffffff1673ffffffffffffffffffffffffffffffffffffffff16815260200191505060405180910390f35b3480156103c657600080fd5b506103cf610d55565b6040518082815260200191505060405180910390f35b3480156103f157600080fd5b5061041060048036038101908080359060200190929190505050610e4c565b604051808273ffffffffffffffffffffffffffffffffffffffff1673ffffffffffffffffffffffffffffffffffffffff16815260200191505060405180910390f35b34801561045e57600080fd5b50610493600480360381019080803573ffffffffffffffffffffffffffffffffffffffff169060200190929190505050610e8a565b604051808060200184601460200280838360005b838110156104c25780820151818401526020810190506104a7565b5050505090500180602001838103835286818151815260200191508051906020019060200280838360005b838110156105085780820151818401526020810190506104ed565b50505050905001838103825284818151815260200191508051906020019060200280838360005b8381101561054a57808201518184015260208101905061052f565b505050509050019550505050505060405180910390f35b34801561056d57600080fd5b5061060e600480360381019080803590602001908201803590602001908080601f0160208091040260200160405190810160405280939291908181526020018383808284378201915050505050509192919290803590602001908201803590602001908080601f016020809104026020016040519081016040528093929190818152602001838380828437820191505050505050919291929050505061102c565b005b34801561061c57600080fd5b50610651600480360381019080803573ffffffffffffffffffffffffffffffffffffffff1690602001909291905050506113a8565b60405180858152602001806020018473ffffffffffffffffffffffffffffffffffffffff1673ffffffffffffffffffffffffffffffffffffffff1681526020018373ffffffffffffffffffffffffffffffffffffffff1673ffffffffffffffffffffffffffffffffffffffff168152602001828103825285818151815260200191508051906020019080838360005b838110156106fb5780820151818401526020810190506106e0565b50505050905090810190601f1680156107285780820380516001836020036101000a031916815260200191505b509550505050505060405180910390f35b34801561074557600080fd5b5061077a600480360381019080803573ffffffffffffffffffffffffffffffffffffffff1690602001909291905050506114da565b6040518083815260200182600019166000191681526020019250505060405180910390f35b3480156107ab57600080fd5b50610800600480360381019080803573ffffffffffffffffffffffffffffffffffffffff169060200190929190803573ffffffffffffffffffffffffffffffffffffffff1690602001909291905050506115cb565b604051808060200183601460200280838360005b8381101561082f578082015181840152602081019050610814565b50505050905001828103825284818151815260200191508051906020019060200280838360005b83811015610871578082015181840152602081019050610856565b50505050905001935050505060405180910390f35b600080600090505b60028054905081101561091e578273ffffffffffffffffffffffffffffffffffffffff166002828154811015156108c157fe5b9060005260206000200160009054906101000a900473ffffffffffffffffffffffffffffffffffffffff1673ffffffffffffffffffffffffffffffffffffffff1614156109115760009150610923565b808060010191505061088e565b600191505b50919050565b60008490508073ffffffffffffffffffffffffffffffffffffffff1663e3619d5b858585336040518563ffffffff167c01000000000000000000000000000000000000000000000000000000000281526004018085815260200184600019166000191681526020018373ffffffffffffffffffffffffffffffffffffffff1673ffffffffffffffffffffffffffffffffffffffff1681526020018273ffffffffffffffffffffffffffffffffffffffff1673ffffffffffffffffffffffffffffffffffffffff168152602001945050505050600060405180830381600087803b158015610a1557600080fd5b505af1158015610a29573d6000803e3d6000fd5b505050505050505050565b600080600090505b600280549050811015610acc578273ffffffffffffffffffffffffffffffffffffffff16600282815481101515610a6f57fe5b9060005260206000200160009054906101000a900473ffffffffffffffffffffffffffffffffffffffff1673ffffffffffffffffffffffffffffffffffffffff161415610abf5760019150610ad1565b8080600101915050610a3c565b600091505b50919050565b606080600160003373ffffffffffffffffffffffffffffffffffffffff1673ffffffffffffffffffffffffffffffffffffffff168152602001908152602001600020600001600160003373ffffffffffffffffffffffffffffffffffffffff1673ffffffffffffffffffffffffffffffffffffffff168152602001908152602001600020600101818054600181600116156101000203166002900480601f016020809104026020016040519081016040528092919081815260200182805460018160011615610100020316600290048015610bf35780601f10610bc857610100808354040283529160200191610bf3565b820191906000526020600020905b815481529060010190602001808311610bd657829003601f168201915b50505050509150808054600181600116156101000203166002900480601f016020809104026020016040519081016040528092919081815260200182805460018160011615610100020316600290048015610c8f5780601f10610c6457610100808354040283529160200191610c8f565b820191906000526020600020905b815481529060010190602001808311610c7257829003601f168201915b50505050509050915091509091565b60606002805480602002602001604051908101604052809291908181526020018280548015610d2257602002820191906000526020600020905b8160009054906101000a900473ffffffffffffffffffffffffffffffffffffffff1673ffffffffffffffffffffffffffffffffffffffff1681526020019060010190808311610cd8575b5050505050905090565b60008060009054906101000a900473ffffffffffffffffffffffffffffffffffffffff16905090565b60008060009054906101000a900473ffffffffffffffffffffffffffffffffffffffff1673ffffffffffffffffffffffffffffffffffffffff163373ffffffffffffffffffffffffffffffffffffffff16141515610e41576040517f08c379a00000000000000000000000000000000000000000000000000000000081526004018080602001828103825260278152602001807f4f6e6c79206f776e657220697320617574686f72697a656420666f722074686981526020017f73207461736b2e0000000000000000000000000000000000000000000000000081525060400191505060405180910390fd5b600280549050905090565b600281815481101515610e5b57fe5b906000526020600020016000915054906101000a900473ffffffffffffffffffffffffffffffffffffffff1681565b6060610e9461174b565b606060008490508073ffffffffffffffffffffffffffffffffffffffff16639678a0ae336040518263ffffffff167c0100000000000000000000000000000000000000000000000000000000028152600401808273ffffffffffffffffffffffffffffffffffffffff1673ffffffffffffffffffffffffffffffffffffffff168152602001915050600060405180830381600087803b158015610f3657600080fd5b505af1158015610f4a573d6000803e3d6000fd5b505050506040513d6000823e3d601f19601f820116820180604052506102c0811015610f7557600080fd5b810190808051640100000000811115610f8d57600080fd5b82810190506020810184811115610fa357600080fd5b8151856020820283011164010000000082111715610fc057600080fd5b5050929190602001919082610280018051640100000000811115610fe357600080fd5b82810190506020810184811115610ff957600080fd5b815185602082028301116401000000008211171561101657600080fd5b5050929190505050935093509350509193909250565b600061103733610886565b80156110705750600073ffffffffffffffffffffffffffffffffffffffff163373ffffffffffffffffffffffffffffffffffffffff1614155b1561133a57600160003373ffffffffffffffffffffffffffffffffffffffff1673ffffffffffffffffffffffffffffffffffffffff1681526020019081526020016000209050828160000190805190602001906110ce92919061176f565b50818160010190805190602001906110e792919061176f565b50338160020160006101000a81548173ffffffffffffffffffffffffffffffffffffffff021916908373ffffffffffffffffffffffffffffffffffffffff1602179055507f455c247fba514a7e1fa6f17d8ec294c03e610625d6482cfc6ec8405531a9c0e381600001826001018360020160009054906101000a900473ffffffffffffffffffffffffffffffffffffffff166040518080602001806020018473ffffffffffffffffffffffffffffffffffffffff1673ffffffffffffffffffffffffffffffffffffffff1681526020018381038352868181546001816001161561010002031660029004815260200191508054600181600116156101000203166002900480156112385780601f1061120d57610100808354040283529160200191611238565b820191906000526020600020905b81548152906001019060200180831161121b57829003601f168201915b50508381038252858181546001816001161561010002031660029004815260200191508054600181600116156101000203166002900480156112bb5780601f10611290576101008083540402835291602001916112bb565b820191906000526020600020905b81548152906001019060200180831161129e57829003601f168201915b50509550505050505060405180910390a1600160023390806001815401808255809150509060018203906000526020600020016000909192909190916101000a81548173ffffffffffffffffffffffffffffffffffffffff021916908373ffffffffffffffffffffffffffffffffffffffff16021790555050506113a3565b7f4031c61609fe371489ccd0c7d0eccb5075e836c3c6ae947a3a8fc5dd18d5b15c6040518080602001828103825260198152602001807f436f6e73756c74616e7420416c7265616479206578697374730000000000000081525060200191505060405180910390a15b505050565b6000606060008060008590508073ffffffffffffffffffffffffffffffffffffffff1663a73a4aaf6040518163ffffffff167c0100000000000000000000000000000000000000000000000000000000028152600401600060405180830381600087803b15801561141857600080fd5b505af115801561142c573d6000803e3d6000fd5b505050506040513d6000823e3d601f19601f82011682018060405250608081101561145657600080fd5b8101908080519060200190929190805164010000000081111561147857600080fd5b8281019050602081018481111561148e57600080fd5b81518560018202830111640100000000821117156114ab57600080fd5b505092919060200180519060200190929190805190602001909291905050509450945094509450509193509193565b60008060008390508073ffffffffffffffffffffffffffffffffffffffff1663cf4a25ef336040518263ffffffff167c0100000000000000000000000000000000000000000000000000000000028152600401808273ffffffffffffffffffffffffffffffffffffffff1673ffffffffffffffffffffffffffffffffffffffff1681526020019150506040805180830381600087803b15801561157c57600080fd5b505af1158015611590573d6000803e3d6000fd5b505050506040513d60408110156115a657600080fd5b8101908080519060200190929190805190602001909291905050509250925050915091565b60606115d561174b565b60008490508073ffffffffffffffffffffffffffffffffffffffff1663df226c3833866040518363ffffffff167c0100000000000000000000000000000000000000000000000000000000028152600401808373ffffffffffffffffffffffffffffffffffffffff1673ffffffffffffffffffffffffffffffffffffffff1681526020018273ffffffffffffffffffffffffffffffffffffffff1673ffffffffffffffffffffffffffffffffffffffff16815260200192505050600060405180830381600087803b1580156116a957600080fd5b505af11580156116bd573d6000803e3d6000fd5b505050506040513d6000823e3d601f19601f820116820180604052506102a08110156116e857600080fd5b81019080805164010000000081111561170057600080fd5b8281019050602081018481111561171657600080fd5b815185602082028301116401000000008211171561173357600080fd5b50509291906020019190505092509250509250929050565b61028060405190810160405280601490602082028038833980820191505090505090565b828054600181600116156101000203166002900490600052602060002090601f016020900481019282601f106117b057805160ff19168380011785556117de565b828001600101855582156117de579182015b828111156117dd5782518255916020019190600101906117c2565b5b5090506117eb91906117ef565b5090565b61181191905b8082111561180d5760008160009055506001016117f5565b5090565b905600a165627a7a72305820c494d84ba7f4d2561de634a8388ea69d8103deac7d243fe981fb8a62509514a70029",
  "source": "pragma solidity ^0.4.23;\n\nimport \"./Owned.sol\";\n\ncontract ConsultantContract is Owned{\n\t\n    struct Consultant { // change string to bytes16\n        string firstName;\n        string lastName;\n        address account; // client account \n    }\n\n    mapping (address => Consultant) consultants;\n    address[] public consultantAccounts;\n\n    constructor() public{\n    }\n\n\n    event ConsultantEvent(\n       string firstName,\n       string lastName, // change string to bytes16\n       address account\n    );\n\n    event ConsultantAlreadyExistsEvent(\n        string message\n    );\n\n    function consultantExist(address _address) public view returns(bool){\n        for (uint i = 0; i < consultantAccounts.length; i++) {\n            if (consultantAccounts[i] == _address)\n               return true;\n        }\n        return false;\n    }\n\n    function consultantDoesNotExist(address _address) public view returns(bool){\n        for (uint i = 0; i < consultantAccounts.length; i++) {\n            if (consultantAccounts[i] == _address)\n               return false;\n        }\n        return true;\n    }\n\n\n    function setConsultant(string _firstName, string _lastName) public {\n\n        if(consultantDoesNotExist(msg.sender) && (msg.sender != address(0))){\n            Consultant storage consultant = consultants[msg.sender];\n\n            consultant.firstName = _firstName;\n            consultant.lastName = _lastName;\n            consultant.account = msg.sender;\n\n            emit ConsultantEvent(consultant.firstName, consultant.lastName, consultant.account);\n\n            consultantAccounts.push(msg.sender) -1;\n        }else{\n            emit ConsultantAlreadyExistsEvent(\"Consultant Already exists\");\n        }\n\n        // Consultant storage consultant = consultants[_address];\n\n        // consultant.firstName = _firstName;\n        // consultant.lastName = _lastName;\n\n        // consultantAccounts.push(_address);\n    }\n\n    function getConsultants() public view returns(address[]){\n\n        return consultantAccounts;\n    }\n\n\n    function getConsultant() public view returns (string, string){\n\n        return (consultants[msg.sender].firstName, consultants[msg.sender].lastName);\n    }\n\n    function countConsultants() public onlyOwner view  returns (uint){\n\n        return consultantAccounts.length;\n    }\n\n    // Send client address explicity in the function\n    function setClientReview(address _contractAddr, uint _rating, bytes32 _comment, address _clientAccount) \n    \n    public{\n        ClientReviewContract crc = ClientReviewContract(_contractAddr);\n        crc.setReview(_rating, _comment, _clientAccount, msg.sender);\n    }\n    //****** Make sure to change the Client Review contarct aswell\n    \n     /////// ConsultantContract.deployed().then(function(contractInstance) { contractInstance.setClientReview('0x38563ac0aabb090b306d9db879c4df7317fa98a8',7,\"meow\",web3.eth.accounts[1],{from: web3.eth.accounts[2]}).then(function(v) {console.log(v)})})\n\n\n    function getClientReview(address _contractAddr) public view returns(uint, string, address, address){\n\n        ClientReviewContract crc = ClientReviewContract(_contractAddr);\n        return crc.getReview();\n\n    }    \n\n    // ********* Retrival of comments ****************\n    // All the reviews by this client to his/her consultants\n    // Check only authorized cleint can see the comments\n    function getClientsReviews(address _contractAddr) public view returns(uint[], bytes32[20], address[]){\n        \n        ClientReviewContract crc = ClientReviewContract(_contractAddr);\n        return crc.getClientsReviews(msg.sender);\n    }\n\n\n    // All reviews of a particular consultant by the client\n    function getClientReviews(address _contractAddr, address _clientAccount)   \n    public view returns(uint[], bytes32[20]){\n        ClientReviewContract crc = ClientReviewContract(_contractAddr);\n        return crc.getClientReviews(msg.sender,_clientAccount);\n    }\n\n    function getConsultantFirstReview(address _contractAddr)public view returns(uint, bytes32){\n        ClientReviewContract crc = ClientReviewContract(_contractAddr);\n        return crc.getConsultantFirstReviewNow(msg.sender);\n    }\n\n\n\n\n}\n\n\ncontract ClientReviewContract{\n\t\n    function getReview() public view returns(uint, string, address, address);\n    function setReview(uint _rating, bytes32 _comment, address _clientAccount, address _consultantAccount) public;\n    function totalReviews() public returns (uint);\n    function getConsultantsAccounts() public returns (address[]);\n\n    function getClientsReviews(address _consultantAccount) public view returns(uint[], bytes32[20], address[]);\n    function getClientReviews(address _consultantAccount, address _clientAccount) public view returns(uint[], bytes32[20]);\n    function getConsultantFirstReviewNow(address _consultantAccount) public view returns(uint, bytes32);\n\n\n}",
  "sourcePath": "/Users/usman/Documents/blockchain/review/contracts/ConsultantContract.sol",
  "compiler": {
    "name": "solc",
    "version": "0.4.24+commit.e67f0147.Emscripten.clang"
  },
  "schemaVersion": "2.0.1",
  "updatedAt": "2019-01-15T08:22:49.091Z"
}