{
  "contractName": "ConsultantReviewContract",
  "abi": [
    {
      "constant": true,
      "inputs": [],
      "name": "testNumber",
      "outputs": [
        {
          "name": "",
          "type": "uint256"
        }
      ],
      "payable": false,
      "stateMutability": "view",
      "type": "function"
    },
    {
      "constant": true,
      "inputs": [
        {
          "name": "",
          "type": "uint256"
        }
      ],
      "name": "clientAccounts",
      "outputs": [
        {
          "name": "",
          "type": "address"
        }
      ],
      "payable": false,
      "stateMutability": "view",
      "type": "function"
    },
    {
      "constant": true,
      "inputs": [
        {
          "name": "",
          "type": "uint256"
        }
      ],
      "name": "reviewsArray",
      "outputs": [
        {
          "name": "rating",
          "type": "uint256"
        },
        {
          "name": "comment",
          "type": "string"
        },
        {
          "name": "clientAccount",
          "type": "address"
        },
        {
          "name": "consultantAccount",
          "type": "address"
        }
      ],
      "payable": false,
      "stateMutability": "view",
      "type": "function"
    },
    {
      "inputs": [],
      "payable": false,
      "stateMutability": "nonpayable",
      "type": "constructor"
    },
    {
      "constant": false,
      "inputs": [
        {
          "name": "_rating",
          "type": "uint256"
        },
        {
          "name": "_comment",
          "type": "string"
        },
        {
          "name": "_consultantAccount",
          "type": "address"
        },
        {
          "name": "_clientAccount",
          "type": "address"
        }
      ],
      "name": "setReview",
      "outputs": [],
      "payable": false,
      "stateMutability": "nonpayable",
      "type": "function"
    },
    {
      "constant": true,
      "inputs": [],
      "name": "getReview",
      "outputs": [
        {
          "name": "",
          "type": "uint256"
        },
        {
          "name": "",
          "type": "string"
        },
        {
          "name": "",
          "type": "address"
        },
        {
          "name": "",
          "type": "address"
        }
      ],
      "payable": false,
      "stateMutability": "view",
      "type": "function"
    },
    {
      "constant": true,
      "inputs": [],
      "name": "totalReviews",
      "outputs": [
        {
          "name": "",
          "type": "uint256"
        }
      ],
      "payable": false,
      "stateMutability": "view",
      "type": "function"
    },
    {
      "constant": true,
      "inputs": [],
      "name": "getClientAccounts",
      "outputs": [
        {
          "name": "",
          "type": "address[]"
        }
      ],
      "payable": false,
      "stateMutability": "view",
      "type": "function"
    },
    {
      "constant": false,
      "inputs": [
        {
          "name": "_clientAccount",
          "type": "address"
        }
      ],
      "name": "getConsultantsReviews",
      "outputs": [
        {
          "name": "",
          "type": "uint256[]"
        },
        {
          "name": "",
          "type": "string[]"
        },
        {
          "name": "",
          "type": "address[]"
        }
      ],
      "payable": false,
      "stateMutability": "nonpayable",
      "type": "function"
    },
    {
      "constant": false,
      "inputs": [
        {
          "name": "_clientAccount",
          "type": "address"
        },
        {
          "name": "_consultantAccount",
          "type": "address"
        }
      ],
      "name": "getConsultantReviews",
      "outputs": [
        {
          "name": "",
          "type": "uint256[]"
        },
        {
          "name": "",
          "type": "string[]"
        }
      ],
      "payable": false,
      "stateMutability": "nonpayable",
      "type": "function"
    },
    {
      "constant": true,
      "inputs": [
        {
          "name": "_clientAccount",
          "type": "address"
        }
      ],
      "name": "getClientFirstReviewNow",
      "outputs": [
        {
          "name": "",
          "type": "uint256"
        },
        {
          "name": "",
          "type": "string"
        }
      ],
      "payable": false,
      "stateMutability": "view",
      "type": "function"
    }
  ],
  "bytecode": "0x608060405234801561001057600080fd5b5061196d806100206000396000f3006080604052600436106100a4576000357c0100000000000000000000000000000000000000000000000000000000900463ffffffff1680630d1972f3146100a95780631c1b6e87146100d457806322149c3a14610111578063383375621461014f5780638640cc341461018e578063a73a4aaf146101cc578063dae55d67146101fa578063e236789014610225578063f0d4779914610250578063fe49cd4214610290575b600080fd5b3480156100b557600080fd5b506100be6102b9565b6040516100cb91906116cb565b60405180910390f35b3480156100e057600080fd5b506100fb60048036036100f691908101906113b9565b6102bf565b604051610108919061160b565b60405180910390f35b34801561011d57600080fd5b5061013860048036036101339190810190611354565b6102fd565b6040516101469291906116e6565b60405180910390f35b34801561015b57600080fd5b5061017660048036036101719190810190611354565b61049c565b6040516101859392919061167f565b60405180910390f35b34801561019a57600080fd5b506101b560048036036101b0919081019061137d565b610865565b6040516101c3929190611648565b60405180910390f35b3480156101d857600080fd5b506101e1610b70565b6040516101f19493929190611716565b60405180910390f35b34801561020657600080fd5b5061020f610ce8565b60405161021c9190611626565b60405180910390f35b34801561023157600080fd5b5061023a610d76565b60405161024791906116cb565b60405180910390f35b34801561025c57600080fd5b50610277600480360361027291908101906113b9565b610d83565b6040516102879493929190611762565b60405180910390f35b34801561029c57600080fd5b506102b760048036036102b291908101906113e2565b610e9a565b005b60005481565b6002818154811015156102ce57fe5b906000526020600020016000915054906101000a900473ffffffffffffffffffffffffffffffffffffffff1681565b6000606060008090505b60038054905081101561047b578373ffffffffffffffffffffffffffffffffffffffff1660038281548110151561033a57fe5b906000526020600020906004020160020160009054906101000a900473ffffffffffffffffffffffffffffffffffffffff1673ffffffffffffffffffffffffffffffffffffffff16141561046e5760038181548110151561039757fe5b9060005260206000209060040201600001546003828154811015156103b857fe5b9060005260206000209060040201600101808054600181600116156101000203166002900480601f01602080910402602001604051908101604052809291908181526020018280546001816001161561010002031660029004801561045e5780601f106104335761010080835404028352916020019161045e565b820191906000526020600020905b81548152906001019060200180831161044157829003601f168201915b5050505050905092509250610496565b8080600101915050610307565b60008090506020604051908101604052806000815250925092505b50915091565b6060806060600080600080600090505b600380549050811015610694578773ffffffffffffffffffffffffffffffffffffffff166003828154811015156104df57fe5b906000526020600020906004020160020160009054906101000a900473ffffffffffffffffffffffffffffffffffffffff1673ffffffffffffffffffffffffffffffffffffffff161415610687578360038281548110151561053d57fe5b90600052602060002090600402016000015490806001815401808255809150509060018203906000526020600020016000909192909190915055508260038281548110151561058857fe5b906000526020600020906004020160010190806001815401808255809150509060018203906000526020600020016000909192909190915090805460018160011615610100020316600290046105df929190611123565b5050816003828154811015156105f157fe5b906000526020600020906004020160030160009054906101000a900473ffffffffffffffffffffffffffffffffffffffff1690806001815401808255809150509060018203906000526020600020016000909192909190916101000a81548173ffffffffffffffffffffffffffffffffffffffff021916908373ffffffffffffffffffffffffffffffffffffffff160217905550505b80806001019150506104ac565b838383828054806020026020016040519081016040528092919081815260200182805480156106e257602002820191906000526020600020905b8154815260200190600101908083116106ce575b5050505050925081805480602002602001604051908101604052809291908181526020016000905b828210156107c6578382906000526020600020018054600181600116156101000203166002900480601f0160208091040260200160405190810160405280929190818152602001828054600181600116156101000203166002900480156107b25780601f10610787576101008083540402835291602001916107b2565b820191906000526020600020905b81548152906001019060200180831161079557829003601f168201915b50505050508152602001906001019061070a565b5050505091508080548060200260200160405190810160405280929190818152602001828054801561084d57602002820191906000526020600020905b8160009054906101000a900473ffffffffffffffffffffffffffffffffffffffff1673ffffffffffffffffffffffffffffffffffffffff1681526020019060010190808311610803575b50505050509050965096509650505050509193909250565b60608060008060008090505b600380549050811015610a2b578673ffffffffffffffffffffffffffffffffffffffff166003828154811015156108a457fe5b906000526020600020906004020160020160009054906101000a900473ffffffffffffffffffffffffffffffffffffffff1673ffffffffffffffffffffffffffffffffffffffff1614801561096457508573ffffffffffffffffffffffffffffffffffffffff1660038281548110151561091a57fe5b906000526020600020906004020160030160009054906101000a900473ffffffffffffffffffffffffffffffffffffffff1673ffffffffffffffffffffffffffffffffffffffff16145b15610a1e578260038281548110151561097957fe5b9060005260206000209060040201600001549080600181540180825580915050906001820390600052602060002001600090919290919091505550816003828154811015156109c457fe5b90600052602060002090600402016001019080600181540180825580915050906001820390600052602060002001600090919290919091509080546001816001161561010002031660029004610a1b929190611123565b50505b8080600101915050610871565b828281805480602002602001604051908101604052809291908181526020018280548015610a7857602002820191906000526020600020905b815481526020019060010190808311610a64575b5050505050915080805480602002602001604051908101604052809291908181526020016000905b82821015610b5c578382906000526020600020018054600181600116156101000203166002900480601f016020809104026020016040519081016040528092919081815260200182805460018160011615610100020316600290048015610b485780601f10610b1d57610100808354040283529160200191610b48565b820191906000526020600020905b815481529060010190602001808311610b2b57829003601f168201915b505050505081526020019060010190610aa0565b505050509050945094505050509250929050565b6000606060008060036000815481101515610b8757fe5b90600052602060002090600402016000015460036000815481101515610ba957fe5b906000526020600020906004020160010160036000815481101515610bca57fe5b906000526020600020906004020160020160009054906101000a900473ffffffffffffffffffffffffffffffffffffffff1660036000815481101515610c0c57fe5b906000526020600020906004020160030160009054906101000a900473ffffffffffffffffffffffffffffffffffffffff16828054600181600116156101000203166002900480601f016020809104026020016040519081016040528092919081815260200182805460018160011615610100020316600290048015610cd35780601f10610ca857610100808354040283529160200191610cd3565b820191906000526020600020905b815481529060010190602001808311610cb657829003601f168201915b50505050509250935093509350935090919293565b60606002805480602002602001604051908101604052809291908181526020018280548015610d6c57602002820191906000526020600020905b8160009054906101000a900473ffffffffffffffffffffffffffffffffffffffff1673ffffffffffffffffffffffffffffffffffffffff1681526020019060010190808311610d22575b5050505050905090565b6000600380549050905090565b600381815481101515610d9257fe5b9060005260206000209060040201600091509050806000015490806001018054600181600116156101000203166002900480601f016020809104026020016040519081016040528092919081815260200182805460018160011615610100020316600290048015610e445780601f10610e1957610100808354040283529160200191610e44565b820191906000526020600020905b815481529060010190602001808311610e2757829003601f168201915b5050505050908060020160009054906101000a900473ffffffffffffffffffffffffffffffffffffffff16908060030160009054906101000a900473ffffffffffffffffffffffffffffffffffffffff16905084565b6000600160008373ffffffffffffffffffffffffffffffffffffffff1673ffffffffffffffffffffffffffffffffffffffff168152602001908152602001600020905084816000018190555083816001019080519060200190610efe9291906111aa565b50828160030160006101000a81548173ffffffffffffffffffffffffffffffffffffffff021916908373ffffffffffffffffffffffffffffffffffffffff160217905550818160020160006101000a81548173ffffffffffffffffffffffffffffffffffffffff021916908373ffffffffffffffffffffffffffffffffffffffff160217905550600381908060018154018082558091505090600182039060005260206000209060040201600090919290919091506000820154816000015560018201816001019080546001816001161561010002031660029004610fe492919061122a565b506002820160009054906101000a900473ffffffffffffffffffffffffffffffffffffffff168160020160006101000a81548173ffffffffffffffffffffffffffffffffffffffff021916908373ffffffffffffffffffffffffffffffffffffffff1602179055506003820160009054906101000a900473ffffffffffffffffffffffffffffffffffffffff168160030160006101000a81548173ffffffffffffffffffffffffffffffffffffffff021916908373ffffffffffffffffffffffffffffffffffffffff16021790555050505060028290806001815401808255809150509060018203906000526020600020016000909192909190916101000a81548173ffffffffffffffffffffffffffffffffffffffff021916908373ffffffffffffffffffffffffffffffffffffffff160217905550505050505050565b828054600181600116156101000203166002900490600052602060002090601f016020900481019282601f1061115c5780548555611199565b8280016001018555821561119957600052602060002091601f016020900482015b8281111561119857825482559160010191906001019061117d565b5b5090506111a691906112b1565b5090565b828054600181600116156101000203166002900490600052602060002090601f016020900481019282601f106111eb57805160ff1916838001178555611219565b82800160010185558215611219579182015b828111156112185782518255916020019190600101906111fd565b5b50905061122691906112b1565b5090565b828054600181600116156101000203166002900490600052602060002090601f016020900481019282601f1061126357805485556112a0565b828001600101855582156112a057600052602060002091601f016020900482015b8281111561129f578254825591600101919060010190611284565b5b5090506112ad91906112b1565b5090565b6112d391905b808211156112cf5760008160009055506001016112b7565b5090565b90565b60006112e282356118b6565b905092915050565b600082601f83011215156112fd57600080fd5b813561131061130b826117db565b6117ae565b9150808252602083016020830185838301111561132c57600080fd5b6113378382846118e0565b50505092915050565b600061134c82356118d6565b905092915050565b60006020828403121561136657600080fd5b6000611374848285016112d6565b91505092915050565b6000806040838503121561139057600080fd5b600061139e858286016112d6565b92505060206113af858286016112d6565b9150509250929050565b6000602082840312156113cb57600080fd5b60006113d984828501611340565b91505092915050565b600080600080608085870312156113f857600080fd5b600061140687828801611340565b945050602085013567ffffffffffffffff81111561142357600080fd5b61142f878288016112ea565b9350506040611440878288016112d6565b9250506060611451878288016112d6565b91505092959194509250565b6114668161188c565b82525050565b60006114778261182e565b80845260208401935061148983611807565b60005b828110156114bb5761149f86835161145d565b6114a882611865565b915060208601955060018101905061148c565b50849250505092915050565b60006114d282611839565b808452602084019350836020820285016114eb85611814565b60005b848110156115245783830388526115068383516115c6565b925061151182611872565b91506020880197506001810190506114ee565b508196508694505050505092915050565b600061154082611844565b80845260208401935061155283611821565b60005b82811015611584576115688683516115fc565b6115718261187f565b9150602086019550600181019050611555565b50849250505092915050565b600061159b8261185a565b8084526115af8160208601602086016118ef565b6115b881611922565b602085010191505092915050565b60006115d18261184f565b8084526115e58160208601602086016118ef565b6115ee81611922565b602085010191505092915050565b611605816118ac565b82525050565b6000602082019050611620600083018461145d565b92915050565b60006020820190508181036000830152611640818461146c565b905092915050565b600060408201905081810360008301526116628185611535565b9050818103602083015261167681846114c7565b90509392505050565b600060608201905081810360008301526116998186611535565b905081810360208301526116ad81856114c7565b905081810360408301526116c1818461146c565b9050949350505050565b60006020820190506116e060008301846115fc565b92915050565b60006040820190506116fb60008301856115fc565b818103602083015261170d8184611590565b90509392505050565b600060808201905061172b60008301876115fc565b818103602083015261173d8186611590565b905061174c604083018561145d565b611759606083018461145d565b95945050505050565b600060808201905061177760008301876115fc565b818103602083015261178981866115c6565b9050611798604083018561145d565b6117a5606083018461145d565b95945050505050565b6000604051905081810181811067ffffffffffffffff821117156117d157600080fd5b8060405250919050565b600067ffffffffffffffff8211156117f257600080fd5b601f19601f8301169050602081019050919050565b6000602082019050919050565b6000602082019050919050565b6000602082019050919050565b600081519050919050565b600081519050919050565b600081519050919050565b600081519050919050565b600081519050919050565b6000602082019050919050565b6000602082019050919050565b6000602082019050919050565b600073ffffffffffffffffffffffffffffffffffffffff82169050919050565b6000819050919050565b600073ffffffffffffffffffffffffffffffffffffffff82169050919050565b6000819050919050565b82818337600083830152505050565b60005b8381101561190d5780820151818401526020810190506118f2565b8381111561191c576000848401525b50505050565b6000601f19601f83011690509190505600a265627a7a723058208e6477bf3e4bc49f8ad6b8e4d72d4668f5ea5ec9cbbe740e5c11f6860d06a2826c6578706572696d656e74616cf50037",
  "source": "pragma solidity ^0.4.23;\npragma experimental ABIEncoderV2;\n\n\n\ncontract ConsultantReviewContract{\n\t\n    uint public testNumber;\n\n    struct Review{\n        uint rating;\n        string comment;\n        address clientAccount;\n        address consultantAccount;\n    }\n\n    mapping (address => Review) reviews;\n    address[] public clientAccounts;\n    Review[] public reviewsArray;\n\n    constructor(){\n\t// Basic constructor for the contract\n    }\n\n    // Do we need any check for setting the review, if so what it will be \n    function setReview(uint _rating, string _comment, address _consultantAccount, address _clientAccount) public {\n\n        Review storage review = reviews[_clientAccount];\n\n        review.rating = _rating;\n        review.comment = _comment;\n        review.consultantAccount = _consultantAccount;\n        review.clientAccount = _clientAccount;\n\n        reviewsArray.push(review);\n        clientAccounts.push(_clientAccount);\n\n    }\n\n    // Need to have multiple reviews retrivals \n    // 1) client's review\n    // 2) client with specific consultant review \n    // 3) All reviews\n\n    function getReview() public view returns(uint, string, address, address){\n        return(reviewsArray[0].rating, reviewsArray[0].comment, reviewsArray[0].clientAccount, reviewsArray[0].consultantAccount);\n    }\n\n    function totalReviews() public view returns (uint){\n        return reviewsArray.length;\n    }\n\n    function getClientAccounts() public view returns (address[]){\n        return clientAccounts;\n    }\n\n    function getConsultantsReviews(address _clientAccount) public returns(uint[], string[], address[]){\n\n        uint[] _ratings;\n        string[] _comments;\n        address[] _consultantAccounts;\n\n\n        for (uint i = 0; i < reviewsArray.length; i++) {\n            if (reviewsArray[i].clientAccount == _clientAccount){\n                _ratings.push(reviewsArray[i].rating);\n                _comments.push(reviewsArray[i].comment);\n                _consultantAccounts.push(reviewsArray[i].consultantAccount);\n            }\n        }\n        return (_ratings, _comments, _consultantAccounts);\n\n    }\n\n\n    function getConsultantReviews(address _clientAccount, address _consultantAccount) public returns(uint[], string[]){\n\n        uint[] _ratings;\n        string[] _comments;\n\n        for (uint i = 0; i < reviewsArray.length; i++) {\n            if (reviewsArray[i].clientAccount == _clientAccount && reviewsArray[i].consultantAccount == _consultantAccount){\n                _ratings.push(reviewsArray[i].rating);\n                _comments.push(reviewsArray[i].comment);\n            }\n        }\n        return (_ratings, _comments);\n\n    }\n\n\n    function getClientFirstReviewNow(address _clientAccount) public view returns(uint, string){\n        \n        for(uint i = 0; i < reviewsArray.length; i++){\n            if (reviewsArray[i].clientAccount == _clientAccount){\n                return(reviewsArray[i].rating,reviewsArray[i].comment);  \n            }\n        }\n        return(0,\"\");\n    }\n\n}\n\n\n\n/*\n\t-- Just some comments\n\n\t\tClient storage client = clients[_address];\n\n\t\tclient.firstName = _firstName;\n\t\tclient.lastName = _lastName;\n\t\tclient.company = _company;\n\n\t\tclientAccounts.push(_address) -1;\n\n        function getConsultantsReviews(address _clientAccount) public returns(string[], string[], address[]);\n    function getConsultantReviews(address _clientAccount, address _consultantAccount) public  returns(string[], string[]);\n\n*/",
  "sourcePath": "/Users/usman/Documents/blockchain/review/contracts/ConsultantReviewContract.sol",
  "compiler": {
    "name": "solc",
    "version": "0.4.24+commit.e67f0147.Emscripten.clang"
  },
  "schemaVersion": "2.0.1",
  "updatedAt": "2018-12-09T11:23:31.244Z"
}