{
  "contractName": "ConsultantReviewContract",
  "abi": [
    {
      "constant": true,
      "inputs": [],
      "name": "testNumber",
      "outputs": [
        {
          "name": "",
          "type": "uint256"
        }
      ],
      "payable": false,
      "stateMutability": "view",
      "type": "function"
    },
    {
      "constant": true,
      "inputs": [
        {
          "name": "",
          "type": "uint256"
        }
      ],
      "name": "clientAccounts",
      "outputs": [
        {
          "name": "",
          "type": "address"
        }
      ],
      "payable": false,
      "stateMutability": "view",
      "type": "function"
    },
    {
      "constant": true,
      "inputs": [
        {
          "name": "",
          "type": "uint256"
        }
      ],
      "name": "reviewsArray",
      "outputs": [
        {
          "name": "rating",
          "type": "uint256"
        },
        {
          "name": "comment",
          "type": "bytes32"
        },
        {
          "name": "clientAccount",
          "type": "address"
        },
        {
          "name": "consultantAccount",
          "type": "address"
        }
      ],
      "payable": false,
      "stateMutability": "view",
      "type": "function"
    },
    {
      "inputs": [],
      "payable": false,
      "stateMutability": "nonpayable",
      "type": "constructor"
    },
    {
      "anonymous": false,
      "inputs": [
        {
          "indexed": false,
          "name": "rating",
          "type": "uint256"
        },
        {
          "indexed": false,
          "name": "comment",
          "type": "bytes32"
        },
        {
          "indexed": false,
          "name": "consultantAccount",
          "type": "address"
        },
        {
          "indexed": false,
          "name": "clientAccount",
          "type": "address"
        }
      ],
      "name": "ConsultantReviewEvent",
      "type": "event"
    },
    {
      "constant": false,
      "inputs": [
        {
          "name": "_rating",
          "type": "uint256"
        },
        {
          "name": "_comment",
          "type": "bytes32"
        },
        {
          "name": "_consultantAccount",
          "type": "address"
        },
        {
          "name": "_clientAccount",
          "type": "address"
        }
      ],
      "name": "setReview",
      "outputs": [],
      "payable": false,
      "stateMutability": "nonpayable",
      "type": "function"
    },
    {
      "constant": true,
      "inputs": [],
      "name": "getReview",
      "outputs": [
        {
          "name": "",
          "type": "uint256"
        },
        {
          "name": "",
          "type": "bytes32"
        },
        {
          "name": "",
          "type": "address"
        },
        {
          "name": "",
          "type": "address"
        }
      ],
      "payable": false,
      "stateMutability": "view",
      "type": "function"
    },
    {
      "constant": true,
      "inputs": [],
      "name": "totalReviews",
      "outputs": [
        {
          "name": "",
          "type": "uint256"
        }
      ],
      "payable": false,
      "stateMutability": "view",
      "type": "function"
    },
    {
      "constant": true,
      "inputs": [],
      "name": "getClientAccounts",
      "outputs": [
        {
          "name": "",
          "type": "address[]"
        }
      ],
      "payable": false,
      "stateMutability": "view",
      "type": "function"
    },
    {
      "constant": true,
      "inputs": [
        {
          "name": "_clientAccount",
          "type": "address"
        }
      ],
      "name": "getConsultantsReviews",
      "outputs": [
        {
          "name": "",
          "type": "uint256[]"
        },
        {
          "name": "",
          "type": "bytes32[20]"
        },
        {
          "name": "",
          "type": "address[]"
        }
      ],
      "payable": false,
      "stateMutability": "view",
      "type": "function"
    },
    {
      "constant": true,
      "inputs": [
        {
          "name": "_clientAccount",
          "type": "address"
        },
        {
          "name": "_consultantAccount",
          "type": "address"
        }
      ],
      "name": "getConsultantReviews",
      "outputs": [
        {
          "name": "",
          "type": "uint256[]"
        },
        {
          "name": "",
          "type": "bytes32[20]"
        }
      ],
      "payable": false,
      "stateMutability": "view",
      "type": "function"
    },
    {
      "constant": true,
      "inputs": [
        {
          "name": "_clientAccount",
          "type": "address"
        }
      ],
      "name": "getClientFirstReviewNow",
      "outputs": [
        {
          "name": "",
          "type": "uint256"
        },
        {
          "name": "",
          "type": "bytes32"
        }
      ],
      "payable": false,
      "stateMutability": "view",
      "type": "function"
    }
  ],
  "bytecode": "0x608060405234801561001057600080fd5b506110c7806100206000396000f3006080604052600436106100a4576000357c0100000000000000000000000000000000000000000000000000000000900463ffffffff1680630d1972f3146100a95780631c1b6e87146100d457806322149c3a1461014157806338337562146101a75780638640cc34146102b6578063a73a4aaf1461039d578063dae55d671461043d578063e2367890146104a9578063e3619d5b146104d4578063f0d477991461054f575b600080fd5b3480156100b557600080fd5b506100be610605565b6040518082815260200191505060405180910390f35b3480156100e057600080fd5b506100ff6004803603810190808035906020019092919050505061060b565b604051808273ffffffffffffffffffffffffffffffffffffffff1673ffffffffffffffffffffffffffffffffffffffff16815260200191505060405180910390f35b34801561014d57600080fd5b50610182600480360381019080803573ffffffffffffffffffffffffffffffffffffffff169060200190929190505050610649565b6040518083815260200182600019166000191681526020019250505060405180910390f35b3480156101b357600080fd5b506101e8600480360381019080803573ffffffffffffffffffffffffffffffffffffffff16906020019092919050505061073d565b604051808060200184601460200280838360005b838110156102175780820151818401526020810190506101fc565b5050505090500180602001838103835286818151815260200191508051906020019060200280838360005b8381101561025d578082015181840152602081019050610242565b50505050905001838103825284818151815260200191508051906020019060200280838360005b8381101561029f578082015181840152602081019050610284565b505050509050019550505050505060405180910390f35b3480156102c257600080fd5b50610317600480360381019080803573ffffffffffffffffffffffffffffffffffffffff169060200190929190803573ffffffffffffffffffffffffffffffffffffffff16906020019092919050505061097c565b604051808060200183601460200280838360005b8381101561034657808201518184015260208101905061032b565b50505050905001828103825284818151815260200191508051906020019060200280838360005b8381101561038857808201518184015260208101905061036d565b50505050905001935050505060405180910390f35b3480156103a957600080fd5b506103b2610b6d565b6040518085815260200184600019166000191681526020018373ffffffffffffffffffffffffffffffffffffffff1673ffffffffffffffffffffffffffffffffffffffff1681526020018273ffffffffffffffffffffffffffffffffffffffff1673ffffffffffffffffffffffffffffffffffffffff16815260200194505050505060405180910390f35b34801561044957600080fd5b50610452610c49565b6040518080602001828103825283818151815260200191508051906020019060200280838360005b8381101561049557808201518184015260208101905061047a565b505050509050019250505060405180910390f35b3480156104b557600080fd5b506104be610cd7565b6040518082815260200191505060405180910390f35b3480156104e057600080fd5b5061054d600480360381019080803590602001909291908035600019169060200190929190803573ffffffffffffffffffffffffffffffffffffffff169060200190929190803573ffffffffffffffffffffffffffffffffffffffff169060200190929190505050610ce4565b005b34801561055b57600080fd5b5061057a60048036038101908080359060200190929190505050610ff8565b6040518085815260200184600019166000191681526020018373ffffffffffffffffffffffffffffffffffffffff1673ffffffffffffffffffffffffffffffffffffffff1681526020018273ffffffffffffffffffffffffffffffffffffffff1673ffffffffffffffffffffffffffffffffffffffff16815260200194505050505060405180910390f35b60005481565b60028181548110151561061a57fe5b906000526020600020016000915054906101000a900473ffffffffffffffffffffffffffffffffffffffff1681565b60008060008090505b60038054905081101561072b578373ffffffffffffffffffffffffffffffffffffffff1660038281548110151561068557fe5b906000526020600020906004020160020160009054906101000a900473ffffffffffffffffffffffffffffffffffffffff1673ffffffffffffffffffffffffffffffffffffffff16141561071e576003818154811015156106e257fe5b90600052602060002090600402016000015460038281548110151561070357fe5b90600052602060002090600402016001015492509250610737565b8080600101915050610652565b60008090506000925092505b50915091565b6060610747611077565b606080610752611077565b6060600080600a6040519080825280602002602001820160405280156107875781602001602082028038833980820191505090505b509450600a6040519080825280602002602001820160405280156107ba5781602001602082028038833980820191505090505b50925060009150600090505b600380549050811015610967578873ffffffffffffffffffffffffffffffffffffffff166003828154811015156107f957fe5b906000526020600020906004020160020160009054906101000a900473ffffffffffffffffffffffffffffffffffffffff1673ffffffffffffffffffffffffffffffffffffffff16141561095a5760038181548110151561085657fe5b906000526020600020906004020160000154858381518110151561087657fe5b906020019060200201818152505060038181548110151561089357fe5b90600052602060002090600402016001015484836014811015156108b357fe5b602002019060001916908160001916815250506003818154811015156108d557fe5b906000526020600020906004020160030160009054906101000a900473ffffffffffffffffffffffffffffffffffffffff16838381518110151561091557fe5b9060200190602002019073ffffffffffffffffffffffffffffffffffffffff16908173ffffffffffffffffffffffffffffffffffffffff168152505081806001019250505b80806001019150506107c6565b84848497509750975050505050509193909250565b6060610986611077565b6060610990611077565b600080600a6040519080825280602002602001820160405280156109c35781602001602082028038833980820191505090505b50935060009150600090505b600380549050811015610b5c578773ffffffffffffffffffffffffffffffffffffffff16600382815481101515610a0257fe5b906000526020600020906004020160020160009054906101000a900473ffffffffffffffffffffffffffffffffffffffff1673ffffffffffffffffffffffffffffffffffffffff16148015610ac257508673ffffffffffffffffffffffffffffffffffffffff16600382815481101515610a7857fe5b906000526020600020906004020160030160009054906101000a900473ffffffffffffffffffffffffffffffffffffffff1673ffffffffffffffffffffffffffffffffffffffff16145b15610b4f57600381815481101515610ad657fe5b9060005260206000209060040201600001548483815181101515610af657fe5b9060200190602002018181525050600381815481101515610b1357fe5b9060005260206000209060040201600101548383601481101515610b3357fe5b6020020190600019169081600019168152505081806001019250505b80806001019150506109cf565b838395509550505050509250929050565b60008060008060036000815481101515610b8357fe5b90600052602060002090600402016000015460036000815481101515610ba557fe5b90600052602060002090600402016001015460036000815481101515610bc757fe5b906000526020600020906004020160020160009054906101000a900473ffffffffffffffffffffffffffffffffffffffff1660036000815481101515610c0957fe5b906000526020600020906004020160030160009054906101000a900473ffffffffffffffffffffffffffffffffffffffff16935093509350935090919293565b60606002805480602002602001604051908101604052809291908181526020018280548015610ccd57602002820191906000526020600020905b8160009054906101000a900473ffffffffffffffffffffffffffffffffffffffff1673ffffffffffffffffffffffffffffffffffffffff1681526020019060010190808311610c83575b5050505050905090565b6000600380549050905090565b6000600160008373ffffffffffffffffffffffffffffffffffffffff1673ffffffffffffffffffffffffffffffffffffffff168152602001908152602001600020905084816000018190555083816001018160001916905550828160030160006101000a81548173ffffffffffffffffffffffffffffffffffffffff021916908373ffffffffffffffffffffffffffffffffffffffff160217905550818160020160006101000a81548173ffffffffffffffffffffffffffffffffffffffff021916908373ffffffffffffffffffffffffffffffffffffffff1602179055506003819080600181540180825580915050906001820390600052602060002090600402016000909192909190915060008201548160000155600182015481600101906000191690556002820160009054906101000a900473ffffffffffffffffffffffffffffffffffffffff168160020160006101000a81548173ffffffffffffffffffffffffffffffffffffffff021916908373ffffffffffffffffffffffffffffffffffffffff1602179055506003820160009054906101000a900473ffffffffffffffffffffffffffffffffffffffff168160030160006101000a81548173ffffffffffffffffffffffffffffffffffffffff021916908373ffffffffffffffffffffffffffffffffffffffff16021790555050505060028290806001815401808255809150509060018203906000526020600020016000909192909190916101000a81548173ffffffffffffffffffffffffffffffffffffffff021916908373ffffffffffffffffffffffffffffffffffffffff160217905550507ff8733dfa639cd0b50e81d546dcd257024fe454bebf735e6bd218f580044193f5858585856040518085815260200184600019166000191681526020018373ffffffffffffffffffffffffffffffffffffffff1673ffffffffffffffffffffffffffffffffffffffff1681526020018273ffffffffffffffffffffffffffffffffffffffff1673ffffffffffffffffffffffffffffffffffffffff16815260200194505050505060405180910390a15050505050565b60038181548110151561100757fe5b90600052602060002090600402016000915090508060000154908060010154908060020160009054906101000a900473ffffffffffffffffffffffffffffffffffffffff16908060030160009054906101000a900473ffffffffffffffffffffffffffffffffffffffff16905084565b610280604051908101604052806014906020820280388339808201915050905050905600a165627a7a72305820e25b29e81f2066cc8e3b60ab4095f84106dc2006e914978c5bfbcfd8878570eb0029",
  "source": "pragma solidity ^0.4.23;\n\n\n\ncontract ConsultantReviewContract{\n\t\n    uint public testNumber;\n\n    struct Review{\n        uint rating;\n        bytes32 comment;\n        address clientAccount;\n        address consultantAccount;\n    }\n\n    mapping (address => Review) reviews;\n    address[] public clientAccounts;\n    Review[] public reviewsArray;\n\n    constructor() public{\n\t// Basic constructor for the contract\n    }\n\n    event ConsultantReviewEvent(\n        uint rating,\n        bytes32 comment,\n        address consultantAccount,\n        address clientAccount\n    );\n\n    // Do we need any check for setting the review, if so what it will be \n    function setReview(uint _rating, bytes32 _comment, address _consultantAccount, address _clientAccount) public {\n\n        Review storage review = reviews[_clientAccount];\n\n        review.rating = _rating;\n        review.comment = _comment;\n        review.consultantAccount = _consultantAccount;\n        review.clientAccount = _clientAccount;\n\n        reviewsArray.push(review);\n        clientAccounts.push(_clientAccount);\n\n        emit ConsultantReviewEvent(_rating, _comment, _consultantAccount, _clientAccount);\n\n    }\n\n    // Need to have multiple reviews retrivals \n    // 1) client's review\n    // 2) client with specific consultant review \n    // 3) All reviews\n\n    function getReview() public view returns(uint, bytes32, address, address){\n        return(reviewsArray[0].rating, reviewsArray[0].comment, reviewsArray[0].clientAccount, reviewsArray[0].consultantAccount);\n    }\n\n    function totalReviews() public view returns (uint){\n        return reviewsArray.length;\n    }\n\n    function getClientAccounts() public view returns (address[]){\n        return clientAccounts;\n    }\n\n    function getConsultantsReviews(address _clientAccount) public view returns(uint[], bytes32[20], address[]){\n\n        uint[] memory _ratings = new uint[](10);\n        bytes32[20] memory _comments;\n        address[] memory _consultantAccounts = new address[](10);\n        uint counter = 0; \n\n\n        for (uint i = 0; i < reviewsArray.length; i++) {\n            if (reviewsArray[i].clientAccount == _clientAccount){\n                // _ratings.push(reviewsArray[i].rating);\n                _ratings[counter] = reviewsArray[i].rating;\n                // _comments.push(reviewsArray[i].comment);\n                _comments[counter] = reviewsArray[i].comment;\n                _consultantAccounts[counter] = reviewsArray[i].consultantAccount;\n                counter++;\n            }\n        }\n        return (_ratings, _comments, _consultantAccounts);\n\n    }\n\n    // We might need event on this side aswell, will take a look\n    function getConsultantReviews(address _clientAccount, address _consultantAccount) public view returns(uint[], bytes32[20]){\n\n        uint[] memory _ratings = new uint[](10);\n        bytes32[20] memory _comments;\n        uint counter = 0; \n\n        for (uint i = 0; i < reviewsArray.length; i++) {\n            if (reviewsArray[i].clientAccount == _clientAccount && reviewsArray[i].consultantAccount == _consultantAccount){\n                _ratings[counter] = reviewsArray[i].rating;\n                _comments[counter] = reviewsArray[i].comment;\n                counter++;\n                // _comments.push(reviewsArray[i].comment);\n            }\n        }\n        return (_ratings, _comments);\n\n    }\n\n\n    function getClientFirstReviewNow(address _clientAccount) public view returns(uint, bytes32){\n        \n        for(uint i = 0; i < reviewsArray.length; i++){\n            if (reviewsArray[i].clientAccount == _clientAccount){\n                return(reviewsArray[i].rating,reviewsArray[i].comment);  \n            }\n        }\n        return(0,\"\");\n    }\n\n}\n\n\n/*\n\t-- Just some comments\n\n\t\tClient storage client = clients[_address];\n\n\t\tclient.firstName = _firstName;\n\t\tclient.lastName = _lastName;\n\t\tclient.company = _company;\n\n\t\tclientAccounts.push(_address) -1;\n\n        function getConsultantsReviews(address _clientAccount) public returns(string[], string[], address[]);\n    function getConsultantReviews(address _clientAccount, address _consultantAccount) public  returns(string[], string[]);\n\n*/",
  "sourcePath": "/Users/usman/Documents/blockchain/review/contracts/ConsultantReviewContract.sol",
  "compiler": {
    "name": "solc",
    "version": "0.4.24+commit.e67f0147.Emscripten.clang"
  },
  "schemaVersion": "2.0.1",
  "updatedAt": "2019-01-15T08:22:49.566Z"
}