{
  "contractName": "ConsultantReviewContract",
  "abi": [
    {
      "constant": true,
      "inputs": [],
      "name": "testNumber",
      "outputs": [
        {
          "name": "",
          "type": "uint256"
        }
      ],
      "payable": false,
      "stateMutability": "view",
      "type": "function"
    },
    {
      "constant": true,
      "inputs": [
        {
          "name": "",
          "type": "uint256"
        }
      ],
      "name": "clientAccounts",
      "outputs": [
        {
          "name": "",
          "type": "address"
        }
      ],
      "payable": false,
      "stateMutability": "view",
      "type": "function"
    },
    {
      "constant": true,
      "inputs": [
        {
          "name": "",
          "type": "uint256"
        }
      ],
      "name": "reviewsArray",
      "outputs": [
        {
          "name": "rating",
          "type": "uint256"
        },
        {
          "name": "comment",
          "type": "string"
        },
        {
          "name": "clientAccount",
          "type": "address"
        },
        {
          "name": "consultantAccount",
          "type": "address"
        }
      ],
      "payable": false,
      "stateMutability": "view",
      "type": "function"
    },
    {
      "inputs": [],
      "payable": false,
      "stateMutability": "nonpayable",
      "type": "constructor"
    },
    {
      "constant": false,
      "inputs": [
        {
          "name": "_testNumber",
          "type": "uint256"
        }
      ],
      "name": "setTestNumber",
      "outputs": [],
      "payable": false,
      "stateMutability": "nonpayable",
      "type": "function"
    },
    {
      "constant": true,
      "inputs": [],
      "name": "getTestNumber",
      "outputs": [
        {
          "name": "",
          "type": "uint256"
        }
      ],
      "payable": false,
      "stateMutability": "view",
      "type": "function"
    },
    {
      "constant": false,
      "inputs": [
        {
          "name": "_rating",
          "type": "uint256"
        },
        {
          "name": "_comment",
          "type": "string"
        },
        {
          "name": "_consultantAccount",
          "type": "address"
        }
      ],
      "name": "setReview",
      "outputs": [],
      "payable": false,
      "stateMutability": "nonpayable",
      "type": "function"
    },
    {
      "constant": true,
      "inputs": [],
      "name": "getReview",
      "outputs": [
        {
          "name": "",
          "type": "uint256"
        },
        {
          "name": "",
          "type": "string"
        },
        {
          "name": "",
          "type": "address"
        },
        {
          "name": "",
          "type": "address"
        }
      ],
      "payable": false,
      "stateMutability": "view",
      "type": "function"
    },
    {
      "constant": true,
      "inputs": [],
      "name": "totalReviews",
      "outputs": [
        {
          "name": "",
          "type": "uint256"
        }
      ],
      "payable": false,
      "stateMutability": "view",
      "type": "function"
    },
    {
      "constant": true,
      "inputs": [],
      "name": "getClientAccounts",
      "outputs": [
        {
          "name": "",
          "type": "address[]"
        }
      ],
      "payable": false,
      "stateMutability": "view",
      "type": "function"
    }
  ],
  "bytecode": "0x608060405234801561001057600080fd5b50610c29806100206000396000f300608060405260043610610099576000357c0100000000000000000000000000000000000000000000000000000000900463ffffffff1680630d1972f31461009e5780631c1b6e87146100c957806347d5558b14610136578063519c9dc6146101c9578063a73a4aaf146101f6578063aeb71b07146102f3578063dae55d671461031e578063e23678901461038a578063f0d47799146103b5575b600080fd5b3480156100aa57600080fd5b506100b36104c8565b6040518082815260200191505060405180910390f35b3480156100d557600080fd5b506100f4600480360381019080803590602001909291905050506104ce565b604051808273ffffffffffffffffffffffffffffffffffffffff1673ffffffffffffffffffffffffffffffffffffffff16815260200191505060405180910390f35b34801561014257600080fd5b506101c760048036038101908080359060200190929190803590602001908201803590602001908080601f0160208091040260200160405190810160405280939291908181526020018383808284378201915050505050509192919290803573ffffffffffffffffffffffffffffffffffffffff16906020019092919050505061050c565b005b3480156101d557600080fd5b506101f460048036038101908080359060200190929190505050610794565b005b34801561020257600080fd5b5061020b61079e565b60405180858152602001806020018473ffffffffffffffffffffffffffffffffffffffff1673ffffffffffffffffffffffffffffffffffffffff1681526020018373ffffffffffffffffffffffffffffffffffffffff1673ffffffffffffffffffffffffffffffffffffffff168152602001828103825285818151815260200191508051906020019080838360005b838110156102b557808201518184015260208101905061029a565b50505050905090810190601f1680156102e25780820380516001836020036101000a031916815260200191505b509550505050505060405180910390f35b3480156102ff57600080fd5b50610308610916565b6040518082815260200191505060405180910390f35b34801561032a57600080fd5b5061033361091f565b6040518080602001828103825283818151815260200191508051906020019060200280838360005b8381101561037657808201518184015260208101905061035b565b505050509050019250505060405180910390f35b34801561039657600080fd5b5061039f6109ad565b6040518082815260200191505060405180910390f35b3480156103c157600080fd5b506103e0600480360381019080803590602001909291905050506109ba565b60405180858152602001806020018473ffffffffffffffffffffffffffffffffffffffff1673ffffffffffffffffffffffffffffffffffffffff1681526020018373ffffffffffffffffffffffffffffffffffffffff1673ffffffffffffffffffffffffffffffffffffffff168152602001828103825285818151815260200191508051906020019080838360005b8381101561048a57808201518184015260208101905061046f565b50505050905090810190601f1680156104b75780820380516001836020036101000a031916815260200191505b509550505050505060405180910390f35b60005481565b6002818154811015156104dd57fe5b906000526020600020016000915054906101000a900473ffffffffffffffffffffffffffffffffffffffff1681565b6000600160003373ffffffffffffffffffffffffffffffffffffffff1673ffffffffffffffffffffffffffffffffffffffff168152602001908152602001600020905083816000018190555082816001019080519060200190610570929190610ad1565b50818160030160006101000a81548173ffffffffffffffffffffffffffffffffffffffff021916908373ffffffffffffffffffffffffffffffffffffffff160217905550338160020160006101000a81548173ffffffffffffffffffffffffffffffffffffffff021916908373ffffffffffffffffffffffffffffffffffffffff160217905550600381908060018154018082558091505090600182039060005260206000209060040201600090919290919091506000820154816000015560018201816001019080546001816001161561010002031660029004610656929190610b51565b506002820160009054906101000a900473ffffffffffffffffffffffffffffffffffffffff168160020160006101000a81548173ffffffffffffffffffffffffffffffffffffffff021916908373ffffffffffffffffffffffffffffffffffffffff1602179055506003820160009054906101000a900473ffffffffffffffffffffffffffffffffffffffff168160030160006101000a81548173ffffffffffffffffffffffffffffffffffffffff021916908373ffffffffffffffffffffffffffffffffffffffff16021790555050505060023390806001815401808255809150509060018203906000526020600020016000909192909190916101000a81548173ffffffffffffffffffffffffffffffffffffffff021916908373ffffffffffffffffffffffffffffffffffffffff1602179055505050505050565b8060008190555050565b60006060600080600360008154811015156107b557fe5b906000526020600020906004020160000154600360008154811015156107d757fe5b9060005260206000209060040201600101600360008154811015156107f857fe5b906000526020600020906004020160020160009054906101000a900473ffffffffffffffffffffffffffffffffffffffff166003600081548110151561083a57fe5b906000526020600020906004020160030160009054906101000a900473ffffffffffffffffffffffffffffffffffffffff16828054600181600116156101000203166002900480601f0160208091040260200160405190810160405280929190818152602001828054600181600116156101000203166002900480156109015780601f106108d657610100808354040283529160200191610901565b820191906000526020600020905b8154815290600101906020018083116108e457829003601f168201915b50505050509250935093509350935090919293565b60008054905090565b606060028054806020026020016040519081016040528092919081815260200182805480156109a357602002820191906000526020600020905b8160009054906101000a900473ffffffffffffffffffffffffffffffffffffffff1673ffffffffffffffffffffffffffffffffffffffff1681526020019060010190808311610959575b5050505050905090565b6000600380549050905090565b6003818154811015156109c957fe5b9060005260206000209060040201600091509050806000015490806001018054600181600116156101000203166002900480601f016020809104026020016040519081016040528092919081815260200182805460018160011615610100020316600290048015610a7b5780601f10610a5057610100808354040283529160200191610a7b565b820191906000526020600020905b815481529060010190602001808311610a5e57829003601f168201915b5050505050908060020160009054906101000a900473ffffffffffffffffffffffffffffffffffffffff16908060030160009054906101000a900473ffffffffffffffffffffffffffffffffffffffff16905084565b828054600181600116156101000203166002900490600052602060002090601f016020900481019282601f10610b1257805160ff1916838001178555610b40565b82800160010185558215610b40579182015b82811115610b3f578251825591602001919060010190610b24565b5b509050610b4d9190610bd8565b5090565b828054600181600116156101000203166002900490600052602060002090601f016020900481019282601f10610b8a5780548555610bc7565b82800160010185558215610bc757600052602060002091601f016020900482015b82811115610bc6578254825591600101919060010190610bab565b5b509050610bd49190610bd8565b5090565b610bfa91905b80821115610bf6576000816000905550600101610bde565b5090565b905600a165627a7a723058206dc76d73dd485a3b55ce1923f5b2c5ac5358569bfe8b73fad2f1c469331610a90029",
  "source": "pragma solidity ^0.4.23;\n\n\ncontract ConsultantReviewContract{\n\t\n    uint public testNumber;\n\n    struct Review{\n        uint rating;\n        string comment;\n        address clientAccount;\n        address consultantAccount;\n    }\n\n    mapping (address => Review) reviews;\n    address[] public clientAccounts;\n    Review[] public reviewsArray;\n\n    constructor(){\n\t// Basic constructor for the contract\n    }\n    function setTestNumber(uint _testNumber){\n\n        testNumber = _testNumber;\n    }\n\n    function getTestNumber() public view returns(uint){\n\n        return testNumber;\n    }\n\n\n    function setReview(uint _rating, string _comment, address _consultantAccount) public {\n\n        Review storage review = reviews[msg.sender];\n\n        review.rating = _rating;\n        review.comment = _comment;\n        review.consultantAccount = _consultantAccount;\n        review.clientAccount = msg.sender;\n\n        reviewsArray.push(review);\n        clientAccounts.push(msg.sender);\n\n    }\n\n    // Need to have multiple reviews retrivals \n    // 1) client's review\n    // 2) client with specific consultant review \n    // 3) All reviews\n\n    function getReview() public view returns(uint, string, address, address){\n        \n        return(reviewsArray[0].rating, reviewsArray[0].comment, reviewsArray[0].clientAccount, reviewsArray[0].consultantAccount);\n    }\n\n    function totalReviews() public view returns (uint){\n\n        return reviewsArray.length;\n    }\n\n    function getClientAccounts() public view returns (address[]){\n\n        return clientAccounts;\n\n    }\n}\n\n\n\n/*\n\t-- Just some comments\n\n\t\tClient storage client = clients[_address];\n\n\t\tclient.firstName = _firstName;\n\t\tclient.lastName = _lastName;\n\t\tclient.company = _company;\n\n\t\tclientAccounts.push(_address) -1;\n*/",
  "sourcePath": "/Users/usman/Documents/blockchain/review/contracts/ConsultantReviewContract.sol",
  "compiler": {
    "name": "solc",
    "version": "0.4.24+commit.e67f0147.Emscripten.clang"
  },
  "schemaVersion": "2.0.1",
  "updatedAt": "2018-11-05T12:16:55.774Z"
}