{
  "contractName": "ConsultantContract",
  "abi": [
    {
      "constant": true,
      "inputs": [],
      "name": "getOwner",
      "outputs": [
        {
          "name": "",
          "type": "address"
        }
      ],
      "payable": false,
      "stateMutability": "view",
      "type": "function"
    },
    {
      "constant": true,
      "inputs": [
        {
          "name": "",
          "type": "uint256"
        }
      ],
      "name": "consultantAccounts",
      "outputs": [
        {
          "name": "",
          "type": "address"
        }
      ],
      "payable": false,
      "stateMutability": "view",
      "type": "function"
    },
    {
      "inputs": [],
      "payable": false,
      "stateMutability": "nonpayable",
      "type": "constructor"
    },
    {
      "constant": true,
      "inputs": [
        {
          "name": "_address",
          "type": "address"
        }
      ],
      "name": "consultantExist",
      "outputs": [
        {
          "name": "",
          "type": "bool"
        }
      ],
      "payable": false,
      "stateMutability": "view",
      "type": "function"
    },
    {
      "constant": false,
      "inputs": [
        {
          "name": "_address",
          "type": "address"
        },
        {
          "name": "_firstName",
          "type": "string"
        },
        {
          "name": "_lastName",
          "type": "string"
        }
      ],
      "name": "setConsultant",
      "outputs": [],
      "payable": false,
      "stateMutability": "nonpayable",
      "type": "function"
    },
    {
      "constant": true,
      "inputs": [],
      "name": "getConsultants",
      "outputs": [
        {
          "name": "",
          "type": "address[]"
        }
      ],
      "payable": false,
      "stateMutability": "view",
      "type": "function"
    },
    {
      "constant": true,
      "inputs": [
        {
          "name": "_address",
          "type": "address"
        }
      ],
      "name": "getConsultant",
      "outputs": [
        {
          "name": "",
          "type": "string"
        },
        {
          "name": "",
          "type": "string"
        }
      ],
      "payable": false,
      "stateMutability": "view",
      "type": "function"
    },
    {
      "constant": true,
      "inputs": [],
      "name": "countConsultants",
      "outputs": [
        {
          "name": "",
          "type": "uint256"
        }
      ],
      "payable": false,
      "stateMutability": "view",
      "type": "function"
    }
  ],
  "bytecode": "0x608060405234801561001057600080fd5b50336000806101000a81548173ffffffffffffffffffffffffffffffffffffffff021916908373ffffffffffffffffffffffffffffffffffffffff1602179055506109af806100606000396000f300608060405260043610610083576000357c0100000000000000000000000000000000000000000000000000000000900463ffffffff16806311e34bd9146100885780634d13e8b1146101b0578063719f6ea01461020b578063893d20e8146102775780638c537daa146102ce578063952fa1ef146102f95780639fce5eed14610366575b600080fd5b34801561009457600080fd5b506100c9600480360381019080803573ffffffffffffffffffffffffffffffffffffffff169060200190929190505050610435565b604051808060200180602001838103835285818151815260200191508051906020019080838360005b8381101561010d5780820151818401526020810190506100f2565b50505050905090810190601f16801561013a5780820380516001836020036101000a031916815260200191505b50838103825284818151815260200191508051906020019080838360005b83811015610173578082015181840152602081019050610158565b50505050905090810190601f1680156101a05780820380516001836020036101000a031916815260200191505b5094505050505060405180910390f35b3480156101bc57600080fd5b506101f1600480360381019080803573ffffffffffffffffffffffffffffffffffffffff1690602001909291905050506105fd565b604051808215151515815260200191505060405180910390f35b34801561021757600080fd5b506102206106a0565b6040518080602001828103825283818151815260200191508051906020019060200280838360005b83811015610263578082015181840152602081019050610248565b505050509050019250505060405180910390f35b34801561028357600080fd5b5061028c61072e565b604051808273ffffffffffffffffffffffffffffffffffffffff1673ffffffffffffffffffffffffffffffffffffffff16815260200191505060405180910390f35b3480156102da57600080fd5b506102e3610757565b6040518082815260200191505060405180910390f35b34801561030557600080fd5b50610324600480360381019080803590602001909291905050506107bf565b604051808273ffffffffffffffffffffffffffffffffffffffff1673ffffffffffffffffffffffffffffffffffffffff16815260200191505060405180910390f35b34801561037257600080fd5b50610433600480360381019080803573ffffffffffffffffffffffffffffffffffffffff169060200190929190803590602001908201803590602001908080601f0160208091040260200160405190810160405280939291908181526020018383808284378201915050505050509192919290803590602001908201803590602001908080601f01602080910402602001604051908101604052809392919081815260200183838082843782019150505050505091929192905050506107fd565b005b606080600160008473ffffffffffffffffffffffffffffffffffffffff1673ffffffffffffffffffffffffffffffffffffffff168152602001908152602001600020600001600160008573ffffffffffffffffffffffffffffffffffffffff1673ffffffffffffffffffffffffffffffffffffffff168152602001908152602001600020600101818054600181600116156101000203166002900480601f0160208091040260200160405190810160405280929190818152602001828054600181600116156101000203166002900480156105515780601f1061052657610100808354040283529160200191610551565b820191906000526020600020905b81548152906001019060200180831161053457829003601f168201915b50505050509150808054600181600116156101000203166002900480601f0160208091040260200160405190810160405280929190818152602001828054600181600116156101000203166002900480156105ed5780601f106105c2576101008083540402835291602001916105ed565b820191906000526020600020905b8154815290600101906020018083116105d057829003601f168201915b5050505050905091509150915091565b600080600090505b600280549050811015610695578273ffffffffffffffffffffffffffffffffffffffff1660028281548110151561063857fe5b9060005260206000200160009054906101000a900473ffffffffffffffffffffffffffffffffffffffff1673ffffffffffffffffffffffffffffffffffffffff161415610688576001915061069a565b8080600101915050610605565b600091505b50919050565b6060600280548060200260200160405190810160405280929190818152602001828054801561072457602002820191906000526020600020905b8160009054906101000a900473ffffffffffffffffffffffffffffffffffffffff1673ffffffffffffffffffffffffffffffffffffffff16815260200190600101908083116106da575b5050505050905090565b60008060009054906101000a900473ffffffffffffffffffffffffffffffffffffffff16905090565b60008060009054906101000a900473ffffffffffffffffffffffffffffffffffffffff1673ffffffffffffffffffffffffffffffffffffffff163373ffffffffffffffffffffffffffffffffffffffff161415156107b457600080fd5b600280549050905090565b6002818154811015156107ce57fe5b906000526020600020016000915054906101000a900473ffffffffffffffffffffffffffffffffffffffff1681565b6000600160008573ffffffffffffffffffffffffffffffffffffffff1673ffffffffffffffffffffffffffffffffffffffff1681526020019081526020016000209050828160000190805190602001906108589291906108de565b50818160010190805190602001906108719291906108de565b5060028490806001815401808255809150509060018203906000526020600020016000909192909190916101000a81548173ffffffffffffffffffffffffffffffffffffffff021916908373ffffffffffffffffffffffffffffffffffffffff1602179055505050505050565b828054600181600116156101000203166002900490600052602060002090601f016020900481019282601f1061091f57805160ff191683800117855561094d565b8280016001018555821561094d579182015b8281111561094c578251825591602001919060010190610931565b5b50905061095a919061095e565b5090565b61098091905b8082111561097c576000816000905550600101610964565b5090565b905600a165627a7a723058208a454b9065a01997c47487c535f026a4a25ce0d92a40aa6bf29929a0c2f7d8030029",
  "source": "pragma solidity ^0.4.23;\n\nimport \"./Owned.sol\";\n\ncontract ConsultantContract is Owned{\n\t\n    struct Consultant { // change string to bytes16\n        string firstName;\n        string lastName;\n    }\n\n    mapping (address => Consultant) consultants;\n    address[] public consultantAccounts;\n\n    constructor() public{\n    }\n\n    function consultantExist(address _address) public view returns(bool){\n        for (uint i=0; i<consultantAccounts.length; i++) {\n            if (consultantAccounts[i] == _address)\n               return true;\n        }\n\n        return false;\n    }\n\n    function setConsultant(address _address, string _firstName, string _lastName) public {\n\n        Consultant storage consultant = consultants[_address];\n\n        consultant.firstName = _firstName;\n        consultant.lastName = _lastName;\n\n        consultantAccounts.push(_address);\n    }\n\n    function getConsultants() view public returns(address[]){\n\n        return consultantAccounts;\n    }\n\n\n    function getConsultant(address _address) view public returns (string, string){\n\n        return (consultants[_address].firstName, consultants[_address].lastName);\n    }\n\n    function countConsultants() onlyOwner view public returns (uint){\n\n        return consultantAccounts.length;\n    }\n\n}",
  "sourcePath": "/Users/usman/Documents/blockchain/review/contracts/ConsultantContract.sol",
  "compiler": {
    "name": "solc",
    "version": "0.4.24+commit.e67f0147.Emscripten.clang"
  },
  "schemaVersion": "2.0.1",
  "updatedAt": "2018-11-05T12:16:55.443Z"
}