{
  "contractName": "ConsultantReviewContract",
  "abi": [
    {
      "constant": true,
      "inputs": [],
      "name": "testNumber",
      "outputs": [
        {
          "name": "",
          "type": "uint256"
        }
      ],
      "payable": false,
      "stateMutability": "view",
      "type": "function"
    },
    {
      "constant": true,
      "inputs": [
        {
          "name": "",
          "type": "uint256"
        }
      ],
      "name": "consultantAccounts",
      "outputs": [
        {
          "name": "",
          "type": "address"
        }
      ],
      "payable": false,
      "stateMutability": "view",
      "type": "function"
    },
    {
      "constant": true,
      "inputs": [
        {
          "name": "",
          "type": "uint256"
        }
      ],
      "name": "reviewsArray",
      "outputs": [
        {
          "name": "rating",
          "type": "uint256"
        },
        {
          "name": "comment",
          "type": "string"
        },
        {
          "name": "clientAccount",
          "type": "address"
        }
      ],
      "payable": false,
      "stateMutability": "view",
      "type": "function"
    },
    {
      "inputs": [],
      "payable": false,
      "stateMutability": "nonpayable",
      "type": "constructor"
    },
    {
      "constant": false,
      "inputs": [
        {
          "name": "_testNumber",
          "type": "uint256"
        }
      ],
      "name": "setTestNumber",
      "outputs": [],
      "payable": false,
      "stateMutability": "nonpayable",
      "type": "function"
    },
    {
      "constant": false,
      "inputs": [],
      "name": "getTestNumber",
      "outputs": [
        {
          "name": "",
          "type": "uint256"
        }
      ],
      "payable": false,
      "stateMutability": "nonpayable",
      "type": "function"
    },
    {
      "constant": false,
      "inputs": [
        {
          "name": "_address",
          "type": "address"
        },
        {
          "name": "_rating",
          "type": "uint256"
        },
        {
          "name": "_comment",
          "type": "string"
        },
        {
          "name": "_clientAccount",
          "type": "address"
        }
      ],
      "name": "setReview",
      "outputs": [],
      "payable": false,
      "stateMutability": "nonpayable",
      "type": "function"
    },
    {
      "constant": true,
      "inputs": [],
      "name": "totalReviews",
      "outputs": [
        {
          "name": "",
          "type": "uint256"
        }
      ],
      "payable": false,
      "stateMutability": "view",
      "type": "function"
    }
  ],
  "bytecode": "0x608060405234801561001057600080fd5b5061075c806100206000396000f300608060405260043610610083576000357c0100000000000000000000000000000000000000000000000000000000900463ffffffff1680630d1972f314610088578063519c9dc6146100b3578063952fa1ef146100e0578063aeb71b071461014d578063c19bfeb714610178578063e23678901461022b578063f0d4779914610256575b600080fd5b34801561009457600080fd5b5061009d610336565b6040518082815260200191505060405180910390f35b3480156100bf57600080fd5b506100de6004803603810190808035906020019092919050505061033c565b005b3480156100ec57600080fd5b5061010b60048036038101908080359060200190929190505050610346565b604051808273ffffffffffffffffffffffffffffffffffffffff1673ffffffffffffffffffffffffffffffffffffffff16815260200191505060405180910390f35b34801561015957600080fd5b50610162610384565b6040518082815260200191505060405180910390f35b34801561018457600080fd5b50610229600480360381019080803573ffffffffffffffffffffffffffffffffffffffff16906020019092919080359060200190929190803590602001908201803590602001908080601f0160208091040260200160405190810160405280939291908181526020018383808284378201915050505050509192919290803573ffffffffffffffffffffffffffffffffffffffff16906020019092919050505061038d565b005b34801561023757600080fd5b50610240610506565b6040518082815260200191505060405180910390f35b34801561026257600080fd5b5061028160048036038101908080359060200190929190505050610513565b60405180848152602001806020018373ffffffffffffffffffffffffffffffffffffffff1673ffffffffffffffffffffffffffffffffffffffff168152602001828103825284818151815260200191508051906020019080838360005b838110156102f95780820151818401526020810190506102de565b50505050905090810190601f1680156103265780820380516001836020036101000a031916815260200191505b5094505050505060405180910390f35b60005481565b8060008190555050565b60028181548110151561035557fe5b906000526020600020016000915054906101000a900473ffffffffffffffffffffffffffffffffffffffff1681565b60008054905090565b6000600160008673ffffffffffffffffffffffffffffffffffffffff1673ffffffffffffffffffffffffffffffffffffffff1681526020019081526020016000209050838160000181905550828160010190805190602001906103f1929190610604565b50818160020160006101000a81548173ffffffffffffffffffffffffffffffffffffffff021916908373ffffffffffffffffffffffffffffffffffffffff160217905550600381908060018154018082558091505090600182039060005260206000209060030201600090919290919091506000820154816000015560018201816001019080546001816001161561010002031660029004610494929190610684565b506002820160009054906101000a900473ffffffffffffffffffffffffffffffffffffffff168160020160006101000a81548173ffffffffffffffffffffffffffffffffffffffff021916908373ffffffffffffffffffffffffffffffffffffffff1602179055505050505050505050565b6000600380549050905090565b60038181548110151561052257fe5b9060005260206000209060030201600091509050806000015490806001018054600181600116156101000203166002900480601f0160208091040260200160405190810160405280929190818152602001828054600181600116156101000203166002900480156105d45780601f106105a9576101008083540402835291602001916105d4565b820191906000526020600020905b8154815290600101906020018083116105b757829003601f168201915b5050505050908060020160009054906101000a900473ffffffffffffffffffffffffffffffffffffffff16905083565b828054600181600116156101000203166002900490600052602060002090601f016020900481019282601f1061064557805160ff1916838001178555610673565b82800160010185558215610673579182015b82811115610672578251825591602001919060010190610657565b5b509050610680919061070b565b5090565b828054600181600116156101000203166002900490600052602060002090601f016020900481019282601f106106bd57805485556106fa565b828001600101855582156106fa57600052602060002091601f016020900482015b828111156106f95782548255916001019190600101906106de565b5b509050610707919061070b565b5090565b61072d91905b80821115610729576000816000905550600101610711565b5090565b905600a165627a7a723058205bb8d8c292805dd7faf76f1930c23a2b4dbe2134dc2d70a05bec139413cb40790029",
  "source": "pragma solidity ^0.4.23;\n\n\ncontract ConsultantReviewContract{\n\t\n    uint public testNumber;\n\n    struct Review{\n        uint rating;\n        string comment;\n        address clientAccount;\n    }\n\n    mapping (address => Review) reviews;\n    address[] public consultantAccounts;\n    Review[] public reviewsArray;\n\n    constructor(){\n\t// Basic constructor for the contract\n    }\n    function setTestNumber(uint _testNumber){\n\n        testNumber = _testNumber;\n    }\n\n    function getTestNumber()returns(uint){\n\n        return testNumber;\n    }\n\n\n    function setReview(address _address,uint _rating, string _comment, address _clientAccount) public {\n\n        Review storage review = reviews[_address];\n\n        review.rating = _rating;\n        review.comment = _comment;\n        review.clientAccount = _clientAccount;\n\n        reviewsArray.push(review);\n\n    }\n\n    function totalReviews() view public returns (uint){\n\n        return reviewsArray.length;\n    }\n}\n\n\n\n/*\n\t-- Just some comments\n\n\t\tClient storage client = clients[_address];\n\n\t\tclient.firstName = _firstName;\n\t\tclient.lastName = _lastName;\n\t\tclient.company = _company;\n\n\t\tclientAccounts.push(_address) -1;\n*/",
  "sourcePath": "/Users/usman/Documents/blockchain/review/contracts/ConsultantReviewContract.sol",
  "compiler": {
    "name": "solc",
    "version": "0.4.24+commit.e67f0147.Emscripten.clang"
  },
  "schemaVersion": "2.0.1",
  "updatedAt": "2018-11-05T06:13:19.654Z"
}