{
  "contractName": "Owned",
  "abi": [
    {
      "inputs": [],
      "payable": false,
      "stateMutability": "nonpayable",
      "type": "constructor"
    },
    {
      "constant": true,
      "inputs": [],
      "name": "getOwner",
      "outputs": [
        {
          "name": "",
          "type": "address"
        }
      ],
      "payable": false,
      "stateMutability": "view",
      "type": "function"
    }
  ],
  "bytecode": "0x608060405234801561001057600080fd5b50336000806101000a81548173ffffffffffffffffffffffffffffffffffffffff021916908373ffffffffffffffffffffffffffffffffffffffff16021790555060ed8061005f6000396000f300608060405260043610603f576000357c0100000000000000000000000000000000000000000000000000000000900463ffffffff168063893d20e8146044575b600080fd5b348015604f57600080fd5b5060566098565b604051808273ffffffffffffffffffffffffffffffffffffffff1673ffffffffffffffffffffffffffffffffffffffff16815260200191505060405180910390f35b60008060009054906101000a900473ffffffffffffffffffffffffffffffffffffffff169050905600a165627a7a7230582018975c8e8a6762a96b7d030a91b5e03a319f56f9157ee6db6506369b9a1020c40029",
  "source": "pragma solidity ^0.4.23;\n\n\ncontract Owned{\n\t\n\t// This is a base contract use to make sure only owner can perform specific actions.\n\n\taddress owner;\n\n\tconstructor() public {\n\t\towner = msg.sender;\n\t}\n\n\tmodifier onlyOwner{\n\t\trequire(msg.sender == owner);\n\t\t_;\n\t}\n\n\tmodifier exceptOwner{\n\t\trequire(msg.sender != owner);\n\t\t_;\n\t}\n\n\tfunction getOwner() public view returns (address){\n\n\t\treturn owner;\n\t}\n}",
  "sourcePath": "/Users/usman/Documents/blockchain/review/contracts/Owned.sol",
  "compiler": {
    "name": "solc",
    "version": "0.4.24+commit.e67f0147.Emscripten.clang"
  },
  "schemaVersion": "2.0.1",
  "updatedAt": "2018-10-13T06:26:26.352Z"
}