{
  "contractName": "Owned",
  "abi": [
    {
      "inputs": [],
      "payable": false,
      "stateMutability": "nonpayable",
      "type": "constructor"
    },
    {
      "constant": true,
      "inputs": [],
      "name": "getOwner",
      "outputs": [
        {
          "name": "",
          "type": "address"
        }
      ],
      "payable": false,
      "stateMutability": "view",
      "type": "function"
    }
  ],
  "bytecode": "0x608060405234801561001057600080fd5b50336000806101000a81548173ffffffffffffffffffffffffffffffffffffffff021916908373ffffffffffffffffffffffffffffffffffffffff16021790555060ed8061005f6000396000f300608060405260043610603f576000357c0100000000000000000000000000000000000000000000000000000000900463ffffffff168063893d20e8146044575b600080fd5b348015604f57600080fd5b5060566098565b604051808273ffffffffffffffffffffffffffffffffffffffff1673ffffffffffffffffffffffffffffffffffffffff16815260200191505060405180910390f35b60008060009054906101000a900473ffffffffffffffffffffffffffffffffffffffff169050905600a165627a7a723058200af5488112f58bd2bfd5f9592e54b0e33bf38ee0a9905a025103590ba098e71b0029",
  "source": "pragma solidity ^0.4.23;\n\n\ncontract Owned{\n\t\n\t// This is a base contract use to make sure only owner can perform specific actions.\n    address owner;\n\n    constructor() public {\n        owner = msg.sender;\n    }\n\n    modifier onlyOwner{\n        require(msg.sender == owner);\n        _;\n    }\n\n    modifier exceptOwner{\n        require(msg.sender != owner);\n        _;\n    }\n\n    function getOwner() public view returns (address){\n        return owner;\n    }\n}",
  "sourcePath": "/Users/usman/Documents/blockchain/review/contracts/Owned.sol",
  "compiler": {
    "name": "solc",
    "version": "0.4.24+commit.e67f0147.Emscripten.clang"
  },
  "schemaVersion": "2.0.1",
  "updatedAt": "2018-12-02T17:31:26.461Z"
}